:1000000058C4000073C4000071C400006FC4000035
:100010006DC400006BC4000069C4000067C4000028
:1000200065C4000063C400000C94882F0C94543005
:100030000C945F295BC4000059C4000057C4000041
:1000400055C4000053C4000051C400004FC4000058
:100050004DC400000C94D62949C4000047C40000D8
:1000600045C4000043C4000041C400003FC4000078
:100070003DC400003BC4000039C4000037C4000088
:1000800035C4000033C4000031C400002FC4000098
:100090002DC400002BC4000029C4000027C40000A8
:1000A00025C4000023C4000021C40000002010303B
:1000B0000050406000312141006151710012022264
:1000C00000423252007262820013032300534363E2
:1000D00000140424006454740015052500453555AA
:1000E0000075658500160626004636560017072758
:1000F0000047375700281838005848680039294900
:1001000000695979001A0A2A004A3A5A0120103027
:1001100001504060013121410161517101120222FF
:10012000014232520172628201130323015343637D
:100130000114042401645474011505250145355545
:1001400001756585011606260146365601170727F3
:10015000014737570128183801584868013929499B
:1001600001695979011A0A2A014A3A5A46003500AA
:1001700029212F22E00000001E00140004221D216E
:10018000E30000001F001A2816001B0050002B423D
:1001900020000800070006464F002C4321001500F0
:1001A000094419414C242800220017000A000500C8
:1001B000000000000000260200002D000000E30007
:1001C0005300270200002E000000000023001C0046
:1001D0000B00110000000000240018000D00104664
:1001E0004C344B0025000C000E0036005200284312
:1001F000260012380F00370051002A422700130052
:1002000033323831007C4E002D0031003431303231
:10021000E4000000000000000000000000000000FA
:1002200000000000000000000000000000000000CE
:1002300000004C000000E000000049000000000049
:100240000000E200000000000000000000000000CC
:10025000000000000000000000000000000000009E
:10026000000000000000000000000000000000008E
:100270000000000000004A0050004D000000000097
:1002800000004B0051004E00000000000000000084
:10029000520000000000E60000004A004F004D0040
:1002A0000000E4000000000000000000000000006A
:1002B000000000000000000000000000000000003E
:1002C0000000000000000000000000001E0200000E
:1002D00000000000000000001F02000000002B00D2
:1002E000000000002002000000002C0000000000C0
:1002F00021020000000000000000000022020000B7
:1003000000000000000000000000000000000000ED
:1003100000000000000000000000000000003502A6
:1003200023023500000000000000310224023100E9
:100330000000000000003402250234000000280004
:1003400000002F0226022F0000002A0000003002C9
:100350002702300000000000000000000000000044
:100360000000000046000000000000000000000047
:100370003A00277828780000000000003B00297828
:100380002A78000000002B003C0021782278000031
:1003900000002C003D00000000000000E200000012
:1003A0003E00000053000000000000004700000075
:1003B000000000000000000053004B0000004E0051
:1003C000000000003F0057002E0055000000000014
:1003D00040005F005C0059006300000041006000C5
:1003E0005D005A0062002800420061005E005B0070
:1003F00063002A00430056002E0054000000000055
:100400004400450000000000000000000000000063
:1004100000000000000000000000000000000000DC
:1004200000000000000000000000000000000000CC
:1004300000000000000000000000000000000000BC
:1004400000000000000000000000000000000000AC
:10045000000000000000000000000000000000009C
:10046000000000000000000000000000000000008C
:100470000000000000000000000040003D003A00C5
:1004800000000000000041003E003B0000000000B2
:10049000000042003F003C0000000000000043005C
:1004A00044004500000000000000000000000000C3
:1004B0000000000029000000E000E100E000000072
:1004C0001E00140004001D00000000001F001A00A0
:1004D00016001B0050002B0020000800070006003B
:1004E0004F002C002100150009001900E200000057
:1004F000220017000A000500000000004600260246
:1005000000002D000000E3005300270200002E0031
:100510000000000023001C000B0011000000000080
:10052000240018000D0010004C004B0025000C00AA
:100530000E00360052002800260012000F0037007F
:1005400051002A00270013003300380000004E003D
:100550002D44005234003000E40000000000000090
:1005600000000000000000000000A80000000000E3
:10057000000000000000AA00AD0000000000D30051
:100580000000A900AC0000000000D1000000000045
:10059000AB0000000000000000000000AE00000002
:1005A000000000000000000000000000000000004B
:1005B00000000000000000000000000000000552E4
:1005C000CF0000000000000000000000CE0000008E
:1005D000000000000000D900CD00DA000000D200C9
:1005E00000000000D00000000000D3000000000068
:1005F00000000000000000000000000000000000FB
:1006000000000000000101010101010101010202DD
:1006100002020202020202030303030303030304B0
:10062000040404040404050505050506060606067B
:10063000070707070708080808090909090A0A0A35
:100640000B0B0B0C0C0C0D0D0D0E0E0E0F0F0F10D7
:100650001011111112121313141415151616171761
:10066000181819191A1A1B1B1C1D1D1E1E1F2020CD
:10067000212222232424252626272829292A2B2C17
:100680002D2D2E2F30313232333435363738393A3A
:100690003B3C3D3E3F404142434445464748494A32
:1006A0004C4D4E4F50515354555658595A5B5D5E00
:1006B0005F616264656668696B6C6D6F707273759B
:1006C00077787A7B7D7E8082838587888A8C8E8FFF
:1006D00091939596989A9C9EA0A2A3A5A7A9ABAD2D
:1006E000AFB1B3B5B7BABCBEC0C2C4C6C9CBCDCF1B
:1006F000D1D4D6D8DBDDDFE2E4E7E9EBEEF0F3F5C9
:10070000F8FAFDFF20034500720067006F00440007
:100710006F007800200045005A00200047006C0060
:100720006F007700000028035A00530041002000AA
:1007300054006500630068006E006F006C006F007D
:100740006700790020004C00610062007300000027
:100750000403090409025400030100A0FA0904007B
:1007600000010301010009211101000122440007D9
:1007700005810308000109040100010301020009C9
:100780002111010001224700070582031000010921
:100790000402000103000000092111010001226D83
:1007A0000007058303200001120100020000000879
:1007B0009732764901000102000105010980A1017B
:1007C000850319012AB700150126B7009501751098
:1007D0008100C0050C0901A101850419012AA002AC
:1007E000150126A002950175108100C005010906BA
:1007F000A1018506050719E029E7150025019508DF
:10080000750181020507190029EF1500250195F0F2
:1008100075018102050819012905950575019102E7
:10082000950175039101C005010902A1010901A10A
:100830000005091901290815002501950875018190
:10084000020501093009311581257F95027508815E
:100850000609381581257F950175088106050C0A62
:1008600038021581257F950175088106C0C00501F4
:100870000906A101050719E029E7150025019508DA
:10088000750181029501750881010507190029FF8D
:10089000150026FF00950675088100050819012935
:1008A00005150025019505750191029501750391C6
:1008B00001C011241FBECFEFDAE0DEBFCDBF12E0D2
:1008C000A0E0B1E0EEEAF6E602C005900D92AE3986
:1008D000B107D9F726E0AEE9B2E001C01D92AD3113
:1008E000B207E1F70E946F140C94CB3289CB809849
:1008F000889A8198899A84988C9A85988D9A8698F6
:100900008E9A87988F9A08952098289821982998E8
:1009100022982A9823982B9852985A9853985B9823
:100920003E98469808954FD180930001109201019E
:10093000EBDFDDCFA1E0B0E0E0EAF4E00C941D32A3
:100940008091000190910101892B91F08091A0028A
:100950008F5F8093A00281110BC035D190E080930E
:10096000000110920101892B19F4C6D00E94FC1FCE
:1009700084EEE82E85E0F82EC12CD12CA12C8C2DF4
:10098000895FB82E8091000190910101892BB9F403
:1009900081E00C2C01C0880F0A94EAF780958983C6
:1009A00004E610E021E030E0CE010196AC0162E106
:1009B00080E40E94682B80930001909301018B2DAD
:1009C0008B3009F45CC008F04CC0893009F451C088
:1009D0008A3009F451C0883009F448C0209A289818
:1009E0008091000190910101892B09F04EC019827C
:1009F00024E630E041E050E0CE010196BC0180E405
:100A00000E94F62A809300019093010189818095CC
:100A10008F73F7019081891719F08083AA24A3941A
:100A20009FB18FB1869586958C739370892B9FE3C8
:100A30008927F7019781891719F08783AA24A3943E
:100A400063DF8FEFC81AD80A8FEFE81AF80A87E039
:100A5000C816D10409F093CF8A2D2196EAE00C94B0
:100A600039328C3079F4539A5B98BACF219A29980D
:100A7000B7CF229A2A98B4CF239A2B98B1CF529A03
:100A80005A98AECF3E9A4698ABCF80E0C1CF9BD06C
:100A9000809300011092010137DF29DFE2EFF5E0DA
:100AA0008EE011928A95E9F70895259A2D9A089576
:100AB000269A2E9A0895279A2F9A089556985E9806
:100AC000089525982D98089526982E98089527988A
:100AD0002F980895F3DFF5DFF7DFF9CF90E09093DB
:100AE00089008093880090938B0080938A00909374
:100AF0008D0080938C000895EDDF8FEFEFDFD5DF61
:100B00008FEF90E722E0815090402040E1F700C055
:100B10000000CEDF8FEF90E722E081509040204030
:100B2000E1F700C00000C7DF8FEF90E722E08150BF
:100B300090402040E1F700C00000C3DF8FEF90E756
:100B400022E0815090402040E1F700C00000BCDF6F
:100B50008FEF90E722E0815090402040E1F700C005
:100B60000000B5DFB7CF89EA8093800089E08093E9
:100B7000810024982C983F98479A54985C9A5598ED
:100B80005D9A6E98769A0E9427106093D0057093B4
:100B9000D1058093D2059093D30567702FEF629FA4
:100BA000C0011124959587959595879597DF80913C
:100BB000D00584FF06C08FEF0E9405219DDF0C94B5
:100BC000C01380E0F9CFA2E0B0E0E9EEF5E00C94CC
:100BD000233280E280930001109201018091A102F2
:100BE00081110EC00E94832A81E08093A1028FEFC1
:100BF00093ED20E3815090402040E1F700C00000D9
:100C00009FE319829A8304E610E022E030E0CE01EF
:100C10000196AC0160E080E40E94682B80930001A3
:100C200090930101009769F422E030E0CE01019633
:100C3000AC016CE080E40E94682B809300019093EB
:100C400001012296E4E00C943F321092D0051092FC
:100C5000D1051092D2051092D30584E08061809373
:100C6000D00564E170E080E090E00E9429100C94CF
:100C7000EC0F0C94C11308958730C8F46E30B8F4AB
:100C80004630A8F450E096E0699F400D511D1124B4
:100C900094E5899F400D511D1124FA01EE0FFF1FAD
:100CA000E459FE4F85919591282F822F089521E0D8
:100CB00090E0FBCFE1CF089581E0089581E00895B1
:100CC000FBCF089581E0089581E00895FDCF089558
:100CD00008950895FDCF089508950895A6E0B0E021
:100CE000E4E7F6E00C94243249835A839E833091E2
:100CF000A70289819A81311117C03E81311589F08F
:100D0000211579F07BD5182F682F89819A8155D5C7
:100D100069817A81812F0E940F122696E3E00C945C
:100D200040325CD5182FF4CF69D569817A81F3CF31
:100D3000FC01262F408151816281738184819581DC
:100D4000CDCFCF93DF93EC0161E0F2DFBE01B6DFE0
:100D5000811529F061E0CE01EBDFBE01B1DFDF914B
:100D6000CF9108950F931F93CF93DF93EC0160E031
:100D7000DFDF8C01BE01ADDFBE01C801ABDFDF915B
:100D8000CF911F910F9108950F931F93CF93DF93EE
:100D9000EC0161E0CDDF8C01BE0194DF811106C062
:100DA00080E0DF91CF911F910F910895BE01C8019E
:100DB0008DDF8115A9F3BE01C8010E94A22681150D
:100DC00079F3BE01C8010E941923811549F3BE01C0
:100DD000C8010E94F022811519F3BE01C8010E94CA
:100DE00085148115E9F2BE01C8010E94D214811553
:100DF000B9F2BE01C8010E941213811589F2BE0129
:100E0000C8010E942413811559F2BE01C8010E9435
:100E10003E13C7CF21E030E002C0220F331F8A9576
:100E2000E2F7C90105C4CF93C82F81E090E00C2EF2
:100E300002C0880F991F0A94E2F70E941D108C2FA0
:100E4000E9DFCF91089581E0089581E00895FBCF17
:100E50000895CF93C82F9BD38C2FF7DF8C2FF7DF0C
:100E60008FEF94E32CE0815090402040E1F700C0E8
:100E70000000CF91089581E0ECDF0C94FA2980E026
:100E8000E8DF0C942B2A28DF0E94F3280E94931F8E
:100E90001DD081E00C9410201BD080E00E94102017
:100EA0001CDF0C94F62881E008950895CF93DF931A
:100EB000D82FF9DFC82F811511F08D2FF6DF8C2F79
:100EC000DF91CF9108950895F1CF089580E0FCCF90
:100ED0000E94F026F9CFCF930E94F026C82F809170
:100EE000A2028C1771F0C093A2020E94CA296093DB
:100EF000A3027093A4028093A5029093A6028C2F64
:100F0000E3DFCF910895ADE0B0E0E9E8F7E00C94BD
:100F10002532488759876A877B878C879D879111FF
:100F20007BD71F8286E0FE0138969E012F5F3F4FE0
:100F3000D90101900D928A95E1F78D8181110CC044
:100F400029813A814B815C816D817E818F81AFD611
:100F50002D96E2E00C944132CE010196F2DE811131
:100F6000EFCFF6CFFC012481213019F480819181EB
:100F700078C40895611521F00E9475240C942A25E7
:100F80000E94B524FBCFCF93C82F8115B9F08238CA
:100F9000B9F40E94FF2681FD11C089E30E94272831
:100FA000C6D78FEF97EE23E0815090402040E1F7C5
:100FB00000C0000089E30E943E28B9D7CF91089570
:100FC000833899F40E94FF2680FDF8CF83E50E94C4
:100FD0002728ADD78FEF91EE24E08150904020403C
:100FE000E1F700C0000083E5E6CF843899F40E9461
:100FF000FF2682FDE3CF87E40E94272898D78FEF52
:1010000091EE24E0815090402040E1F700C00000C4
:1010100087E4D1CF8450813A68F48C2F0E94A127B5
:10102000811521F08C2F0E943E2881D78C2F0E94A1
:101030002728C3CF8C2F805E883048F481E0C1FD23
:1010400084E0C0FD880FC2FD8295C7D6B6CF8C2F35
:10105000855A833030F48C2F8452990B0E942D27AF
:10106000ADCFEC2FE85AEB3150F4F0E0EE0FFF1F5C
:10107000E25FFD4F808191810E9454279FCF8C2F8A
:101080008D5C833108F09ACF61E08C2F73DF96CFAF
:10109000811509F44EC0823861F40E94FF2681FF59
:1010A00048C089E30E94272842D789E30E943E284E
:1010B0003EC7833851F40E94FF2680FF3AC083E583
:1010C0000E94272834D783E5F1CF843851F40E9459
:1010D000FF2682FF2EC087E40E94272828D787E4B6
:1010E000E5CF982F9450913A08F3982F905E98305E
:1010F00050F4982F81E091FD84E090FD880F92FDDF
:10110000829571D6D5CF982F955A933020F480E0F0
:1011100090E00C942D27982F985A9B3120F480E072
:1011200090E00C945427982F9D5C933110F460E06C
:1011300021CF08951F93CF93DF93182FEB0123DF67
:10114000209731F4812FA4DFDF91CF911F91089573
:101150008FE99FE00197F1F700C000002197F0CFE1
:1011600060E570E0893311F060E070E0E3CF811555
:1011700011F033D6DCC60895811511F034D6D7C6E8
:101180000895A0E0B0E0E7ECF8E00C941F326C01A9
:10119000D62FC72FFC011581068102950F7012D63C
:1011A000E82E8115E9F0E12E1115D1F08C2F807F0A
:1011B000803461F08D2F805E8830E0F08C2F807E4F
:1011C000803221F4D230B0F00115A1F08091E30516
:1011D00082FF10C082E0CFD6F5D591E08927E82EB6
:1011E000EC2FE295EF70C03C78F5F0E0E353FD4C56
:1011F0000C940F32E12CF4CF0C2F0F70C03110F093
:101200000295007F111581F0011549F08D2F805E48
:10121000883010F0D11105C0802FDFD588D68D2FF2
:1012200040C0802FEBD5FACF8D2F32DF011561F052
:101230008D2F805E883010F0D11103C0802FD3D560
:1012400002C0802FE1D573D6E11409F4B2C0B6D53F
:1012500080FDAFC0F6011582ABD51AD2C60168D1A8
:10126000A7D524D2A6C08C2F8F70F82EC07FC03295
:1012700019F0F29480EFF822D13038F079F111159D
:1012800009F437C00115C9F0CACF8091E30582FD8A
:1012900010C0111541F0F11419F08F2D9ED547D6CD
:1012A00080E071DED1CF80E0F3DEF11469F28F2DA2
:1012B000C6CF111551F0013018F48F2D58DFC4CF6F
:1012C00009F0C2CF8F2DBCD5BFCF0111BDCF8F2D5F
:1012D00053DF8F2DC0D58F2DA5D5B6CF111521F099
:1012E000023008F0B1CFE9CF0111AECF8F2D44DF2E
:1012F000ABCF0115D9F3D93349F48FEF97EE23E043
:10130000815090402040E1F700C000008D2FC0DEEA
:101310009BCF8C2F869586958370813060F009F085
:1013200093CF8D2F9C2F9370111102C080E090E01D
:101330000E94542789CF8D2F9C2F9370111102C0CA
:1013400080E090E00E942D277FCF612F8D2F12DE4D
:101350007BCF8C2F8370C1F5111128C04D2F429582
:1013600046954770440F440F2D2F2F7030E0042E08
:1013700002C0220F331F0A94E2F780E090E0D4FF0E
:1013800009C08FE090E002C0880F991F4A95E2F7EC
:1013900080959095C695C695C370822B932BC230CD
:1013A00079F0C33079F0C13049F04BD10E94F0267A
:1013B0008BDDCDB7DEB7E8E00C943B323BD1F6CF06
:1013C00047D1F4CF35D1F2CF111559F1C0FFEECF8F
:1013D0004D2F429546954770440F440F2D2F2F7087
:1013E00030E0042E02C0220F331F0A94E2F780E09F
:1013F00090E0D4FF09C08FE090E002C0880F991FF1
:101400004A95E2F780959095C695C695C370822B54
:10141000932BC23061F0C33061F0C13031F06BD139
:10142000C5CF823008F4C2CFD3CF5ED1BFCF6AD14F
:10143000BDCF1BD1BBCFCF70111529F08C2F28D178
:101440008D2F95DEB3CF8D2F97DE8C2F2FD1AECF82
:10145000D23F39F168F4D03FC1F0D13F89F0111586
:1014600009F43FC0011509F439C08D2F8CDD9ECFE2
:10147000D33FE9F0D43F99F78091E30582FD1FC087
:101480008C2F8F71111511F310C0111531F001114E
:101490008DCF8C2F8F711AD189CF023008F086CF73
:1014A000F8CF8C2F8F711111D1CFF2D07FCF1115C2
:1014B00021F08C2F8F71E3D079CFDED077CF11154B
:1014C00029F063E08C2F8F713FD570CF81E053D529
:1014D000023008F46BCF82E04ED568CF8C2F8F712D
:1014E000E4CF011571F0D93349F48FEF97EE23E083
:1014F000815090402040E1F700C000008D2FC8DDF2
:1015000055CF8C2F8F71A2CF0F931F93CF93DF9363
:10151000EC01688179818D81ADD18C01FAD087D0C1
:10152000B801CE012EDEDF91CF911F910F9108956A
:10153000CF93DF93EC018C81811581F0CE0124DC07
:1015400081110FC03FD4811549F08D81811531F093
:101550008091E30582FF02C082E00DD5DF91CF913B
:101560000895CE01D1DFCE01FDDBF8CF80E090E021
:101570000E942D2780E090E00E9454274DD4D7D4BC
:101580000E9443250C942A250E945528EFCF33D47E
:10159000FBCF282F92959F70963099F060F4925F60
:1015A0009F70923030F4203FB1F038F481E0283E53
:1015B00038F080E008959A5FF3CF81E0243FC9F7C7
:1015C000089591E0813F09F090E081E0283E08F025
:1015D00080E0892B089581E00895FC012481211584
:1015E00021F0808191813DD1D4CF80E00895A6E0A3
:1015F000B0E0EDEFFAE00C9425322696E2E00C9490
:101600004132A7E0B0E0E7E0FBE00C9425322796FA
:10161000E2E00C9441320895FECF0895FDCF089585
:10162000FADFFCDF8093D6029093D70208950895E5
:10163000F7CF08952091D6023091D702822B932BB9
:10164000EFCF2091D6023091D70282239323E8CFA7
:101650002091D6023091D70282279327E1CFDBCFAA
:101660000895FDCF0895D7CF0895FDDFFADF809369
:10167000D4029093D502089580E090E0F6CF21E067
:1016800030E002C0220F331F8A95E2F7C901EDCF87
:1016900021E030E002C0220F331F8A95E2F78091EB
:1016A000D4029091D502822B932BDFCF21E030E042
:1016B00002C0220F331F8A95E2F720953095809162
:1016C000D4029091D50282239323CFCF21E030E042
:1016D00002C0220F331F8A95E2F78091D4029091C5
:1016E000D50282279327C1CF2091D4023091D50211
:1016F000822B932BBACF2091D4023091D502822332
:101700009323B3CF2091D4023091D502822793271F
:10171000ACCF0895CF93C1E061FDC4E060FDCC0F74
:1017200062FDC29593E0769567959A95E1F7660F0D
:10173000771F660F771F460F571FFA0140E050E0F2
:1017400090E06191DF019C01042E02C0369527953F
:101750000A94E2F72695220B26272C2326272E9380
:101760004F5F5F4F4430510561F7CF910895A82F27
:10177000A77023E0969587952A95E1F7880F991F22
:10178000880F991F680F791FFB0140E050E080E04F
:10179000219130E00A2E02C0369527950A94E2F78F
:1017A0002170042E01C0220F0A94EAF7822B4F5FAA
:1017B0005F4F4430510561F70895262F9E3068F43D
:1017C000863058F4682F70E086E0989F600D711D98
:1017D000112448EA52E0822F9DCF0895292F9E3090
:1017E00058F4863048F490E068EA72E036E0239FCF
:1017F000800D911D1124BBCF80E00895CF92DF9220
:10180000FF920F931F93CF93DF936C010091D4024B
:101810001091D5028091D6029091D702082B192BF6
:10182000CFE0D0E081E090E00C2E02C0880F991F3D
:101830000A94E2F780239123892B61F4219790F792
:10184000F12C8F2DDF91CF911F910F91FF90DF90A1
:10185000CF900895FC2EB6018C2FECD5019771F333
:10186000F0CFCF93DF93EC01C9DFBE01E3D5DF9169
:10187000CF9108951F93CF93DF93EB019091A7022F
:10188000911531F0CB01EDDFDF91CF911F910895DC
:10189000811551F0CB01B2DF182F682FCE018DDFFB
:1018A000BE01812FC7D5F0CFCB0198DF182FF8CF1D
:1018B0000F931F930091D8028091D902801303C027
:1018C0001F910F91089587E0089FF0011124E652BF
:1018D000FD4F2081318142815381648175818681F0
:1018E00090DE0F5F1F4F0770E7CF209112033091FA
:1018F00013034091140350911503609116037091E6
:101900001703809118037DCE80911803803170F405
:1019100080911703811551F0E091D8022091D902EE
:1019200030911303409112032E1301C00895BF019B
:1019300087E0E89FF0011124DF01A652BD4F149605
:101940008C911497811549F111968C9111978313FD
:1019500024C08C91841321C015968C911597811108
:101960001CC012968D919D91A0911403B091150306
:101970008A1B9B0B883C910580F4809118038F7023
:10198000806180931803E052FD4F80818F708061E9
:10199000808382E193E0CCDD8BCF6F5F7F4FFB01D3
:1019A000E770C2CFE091D8029091D902E91302C04A
:1019B00080E008959F0157E0E59FF0011124E65271
:1019C000FD4F5181561306C05081581303C05581F5
:1019D000541305C02F5F3F4FF901E770E7CF81E057
:1019E00008958F929F92AF92BF92DF92EF92FF92F3
:1019F0000F931F93CF93DF93CDB7DEB72D970FB61D
:101A0000F894DEBF0FBECDBF8C0186E0F801DE0189
:101A1000189601900D928A95E1F7F801F58084817E
:101A200092E1892E93E0992E90911603911117C09F
:101A3000811509F4EFC0F11409F42EC1C801CDDD00
:101A4000811509F429C187E0F801D40101900D92B4
:101A50008A95E1F7C40186DA57DF47DFDBC0E08013
:101A6000A280B380D0901703209114033091150306
:101A7000A501421B530BD11409F4CFC0483C5105BA
:101A800008F09EC0811509F4C5C0909113039180A0
:101A900080911803803108F065C0991226C090919A
:101AA00012039E1122C0F11057C08F708061809385
:101AB00018031BDF82E193E03BDD80911803F801FE
:101AC0008683F12C8F2D2D960FB6F894DEBF0FBEB6
:101AD000CDBFDF91CF911F910F91FF90EF90DF90DD
:101AE000BF90AF909F908F900895F11035C040E067
:101AF000692D8E2D57DF40E0692D8E2D53DFF82E96
:101B00008111DFCF88859985ACDE292F22952F7032
:101B1000903450F49F70223078F0911591F0F801D4
:101B20009681903170F4CECF2A5F2F70223070F002
:101B3000C801FEDCFD2CC6CF911519F0811509F402
:101B4000C1CF805E883008F4BDCFF2CF803F08F46B
:101B5000B9CF815F8330F7CF809118038160809384
:101B60001803AFCF991207C0909112039E1103C0C2
:101B7000F11409F473C0C80130DD811509F48CC07B
:101B8000F11409F489C080911803803280F020910B
:101B900012033091130329833A83AB82BC82909164
:101BA00016039D831E828F83CE010196C1DC87E0E0
:101BB000F801A2E1B3E001900D928A95E1F74CCFD4
:101BC00090911803903188F4488559856A857B8502
:101BD0008C859D850CDD82E193E0AADCF40187E031
:101BE00011928A95E9F781DE6CCF811599F02091E9
:101BF000130381812813BFCF809112038E11BBCFB5
:101C0000F110B9CF9683C80193DCF40187E01192FB
:101C10008A95E9F7FF24F39455CF483C510508F025
:101C20003EC08115B9F3F114B9F19091130381818C
:101C3000981329C0809112038E1125C0809118033A
:101C400080FD18C08031B0F08683807F803F39F0FE
:101C50008681982F907F905F8F70892B8683C80133
:101C600067DC87E0F801A2E1B3E001900D928A956C
:101C7000E1F7F3CE87E0F801A2E1B3E001900D9225
:101C80008A95E1F7C7CFC801A8DC811190CF809178
:101C90001803816080931803C8014ADCBBCF4885D4
:101CA00059856A857B858C859D85A1DC97CFAEE0C3
:101CB000B0E0EDE5FEE00C942432288739874A87AE
:101CC0005B876C877D878E87CE0108968ADE6C8560
:101CD000811599F0611539F0288539854A855B852C
:101CE0007D858E858EDC8091D8029091D9028913F2
:101CF0003DC02E96E3E00C94403287E09E01285FC1
:101D00003F4FF90127503109D90101900D928A9571
:101D1000E1F7611541F3A091D9028A2F90E08395F4
:101D2000877090E0AC012091D8022417150691F03D
:101D300097E09A9FD0011124A652BD4F9E012F5FBC
:101D40003F4FF90101900D929A95E1F74093D90226
:101D5000AFDDC9CF1CDC1092D9021092D802E2E1AB
:101D6000F3E087E011928A95E9F7BDCF17E0189F5D
:101D7000C001112486529D4F34DE811509F4B9CF7C
:101D8000E091D8021E9FF0011124E652FD4F208100
:101D900031814281538164817581868132DC8091F9
:101DA000D8029091D902019687708093D8029BCF78
:101DB000809141038695869586950895809141038B
:101DC0008770089590914103977081E0911101C04F
:101DD00080E0089580916D03089590916D03982B94
:101DE00090936D0308958095982F80916D038923BA
:101DF00080936D03089510926D03089590916C0384
:101E0000982B90936C0308958095982F80916C0384
:101E1000892380936C03089510926C0308950895AC
:101E2000FECF089590914203292F282329F0809511
:101E3000892380934203F4CF08950895FECF089537
:101E400090914303292F2823281721F0982B909352
:101E50004303F4CF089590914303292F282329F0B9
:101E60008095892380934303E9CF089580914303AC
:101E7000811521F01092430380E0E0CF0895CF93C5
:101E8000C0916D0380916C03C82B80914303811531
:101E900029F0C82B0E947B278111E8DF8C2FCF917E
:101EA0000895CF93DF93C091E801D091E901E7DF76
:101EB0008883C091E801D091E90148E050E069E3EE
:101EC00073E0CE010E945532892B59F088E0FE0163
:101ED000A9E3B3E001900D928A95E1F7CE010E944B
:101EE0000127DF91CF910895CF93DF93C091E60151
:101EF000D091E701C4DF8983C091E601D091E70169
:101F000040E250E069E173E0CE010E945532892B36
:101F100059F080E2FE01A9E1B3E001900D928A95AB
:101F2000E1F7CE010E940E27DF91CF9108950E9424
:101F3000E926811529F08091E20587FF01C0D4CF01
:101F4000B0CF0895FECF08959091E30592FF0EC0A3
:101F5000982F990F990F990F962B9093410398DB27
:101F600080914103869586958695ECCF91CB109212
:101F7000410380E0E7CF90914103809589238093CE
:101F80004103282F277059F4891749F09091E305F0
:101F900092FF05C086958695869588DBE8CF0895E3
:101FA0009091E30592FB222720F9281749F080FB46
:101FB00092F99093E30582EE95E043D082E0DBCF87
:101FC00008958091E305002482FF0394802DE8CFDB
:101FD00081E0E6CF80E0E4CF80E090E0BC01C5C3C3
:101FE000A3E0B0E0E6EFFFE00C94253261D36CD3C0
:101FF0001B82CE0103967FD381E090E08093D602CE
:102000001092D70284D3198284E18A83CE0101968B
:102010008FD30E94D7180E9425060E94D0182396BD
:10202000E2E00C944132DCCF089554C3089541C3DB
:10203000089556C3089565C3089569C308956CC390
:10204000089576C308957BC308957FC3089583C31D
:10205000089585C308958FC30895A6E0B0E0E3E333
:10206000F0E10C9423320E94BE298C0180916E0312
:1020700090916F038017910779F019821A820E945C
:10208000BE29BC0149815A8180E090E00E9483070B
:1020900000936E0310936F032696E4E00C943F3296
:1020A0000E94CA296093740370937503809376032A
:1020B000909377036093700370937103809372031E
:1020C00090937303089508950895FDCF089508959A
:1020D000FEDFFBCF0895FECF08950895FEDFFBCF0E
:1020E00080E193E10DD4F0DFF3CF81E0089581E04A
:1020F0000895FBCF0895089508950895FCDFFCDF4F
:10210000FCCF95DF811101C08EDF88E793E091DF7E
:1021100082EE95E094DF8FDF8BDA8091D40290918C
:10212000D5029FCA0E94B52934D3EBDF0E94E7266F
:102130000E9463070E94FC1FD1CF1F93CF93DF93B0
:10214000C82FD62F142F0E945A19412F6D2F8C2F74
:102150000E942D29DF91CF911F910895A6E0B0E054
:10216000E4EBF0E10C941C32C2DF81110DC075DF8D
:102170000E94E8260E94931F0E9464250E946B071C
:102180002696EBE00C94383215D384EDA82E85E02A
:10219000B82E750110E0F7010081812FF3D21F5F87
:1021A0001E3009F444C09FEFE91AF90A081799F3A1
:1021B0008091780381FDECD29CDF982E10E0812F76
:1021C000E1D2F82EF50181915F01F81659F18F25C2
:1021D000D82E00E0EE24E3948D2D8E21E9F0CC245E
:1021E000C3948F2D8E2109F4C12C911489F0602F96
:1021F000812F0E94192981110BC009831A830E9423
:10220000BE29BC0149815A8181E09C2D0E9483072F
:102210004C2D602F812F91DF0F5FEE0C0630E1F621
:10222000F501F2921F5F1E3051F63ADFA1CF08137D
:10223000BFCF9DCF0F931F93CF93DF93FDD0EC01C2
:10224000D23508F050C0D03508F0C8C0C03ED10526
:1022500030F5CD3CD10508F09DC0C83AD10578F4E1
:10226000C53AD10508F093C0C130D105B1F1CE0116
:102270000497813A910588F1C0E0D0E02EC0CE01EC
:10228000885A91094B97C0F7C85AD0E0CC0FDD1F90
:10229000CC5BDD4F0990D881C02DD4641EC0D034F2
:1022A000A8F4D03208F0ADC0C83ED105B0F0CE01E0
:1022B00091509F3108F78D2F62D1082F8C2F90E01D
:1022C000BBD0D02FDF71C82FD92B07C08C2F90E047
:1022D000B3D0DF70C82FD92BD06ACE01DF91CF9158
:1022E0001F910F910895C03882E5D807B8F5C03620
:1022F00082E5D80708F056C0C03482E5D807C8F494
:10230000C03282E5D80708F047C08C2F86958695A5
:1023100020E2829FC0011124C37021E030E002C09E
:10232000220F331FCA95E2F7E901C82BD92BDD68CC
:10233000D4CF8C2F86958695877020E2829FC0012E
:102340001124C37021E030E002C0220F331FCA9570
:10235000E2F7E901C82BD92BDC68BFCFC03C82E58E
:10236000D80750F48C2F8F71C03AD24580F5982F42
:1023700084EF906AEC01B1CFCE01805C92458097EA
:1023800008F07ACFDC2FDF71C0EFD06AA6CFA49718
:10239000D064A3CFD065A1CF8C2F8F71D82FC1EF80
:1023A000D06A9BCF8C2F86958695877020E2829F7E
:1023B000C0011124C37021E030E002C0220F331F9E
:1023C000CA95E2F7E901C82BD92BDA6886CFD7D0B6
:1023D000982F80E09F71EC01D0627FCF8C2F8F719E
:1023E000CED053E0CC0FDD1F5A95E1F7DF70282FD8
:1023F00084FF04C090E1899F90011124C22FD0690D
:102400006CCF8D2F8F71BBD0082F8C2F90E014D004
:10241000302F3F71282F392B3062E9015ECF462FD4
:102420007E3028F4663018F4672F0C945A0680E04A
:1024300090E00895F4DFFECE803E9105D1F1C8F41E
:102440008133910509F481C048F48932910509F47A
:1024500071C08A32910509F47FC0089589339105CE
:10246000E1F082389105C9F08533910509F45DC02A
:102470000895843E9105D1F148F4823E910531F1F1
:10248000833E910541F181EE90E00895863E9105ED
:10249000C1F1873E9105F1F108952091E205237085
:1024A00009F064C02091E30523FF14C089E290E0A5
:1024B00008952091E20520FD45C03091E30530FFED
:1024C00009C024FD24C083EE90E008952091E20528
:1024D00022FDF7CF08952091E20522FD44C03091FE
:1024E000E30530FD43C024FFF5CF11C02091E30583
:1024F00021FFF0CF8091E20584FD09C087EE90E0D6
:1025000008952091E20523FFE5CF24FFF7CF80E077
:1025100090E008952091E20523FD2BC03091E30562
:1025200031FFE1CF84EE90E008952091E20525FF90
:10253000D1CFBCCF2091E20525FD1EC02091E3053F
:1025400023FFC8CF89E390E008952091E20526FF9C
:10255000C1CF8AE290E008952091E20526FFBACF2C
:1025600081E390E0089582EE90E0089580EE90E09F
:10257000089586EE90E0089585E390E008959091A7
:10258000E20592FF10C041E0282F2471243009F0A9
:1025900040E031E0282F2871283009F030E043175F
:1025A00011F02CE0822793FF10C041E0282F247106
:1025B000243109F040E031E0282F2871283109F05A
:1025C00030E0431711F02CE082273091E30530FF13
:1025D00010C051E0282F2171213009F050E041E076
:1025E000282F2871283009F040E0541711F029E015
:1025F000822731FF10C041E0282F2171213109F0DD
:1026000040E031E0282F2871283109F030E04317ED
:1026100011F029E0822794FF02C083FD877E089590
:1026200080E00895CF939C01205E3245C1E02032C6
:10263000310538F4FB01C581C11103C08F710E94BF
:1026400013078C2FCF9108959C01FB018581811583
:1026500099F02B359CE7390769F02C359CE7390751
:1026600021F02A353C4721F00895ABDC80E0089545
:10267000AFDCFCCFAFDCFACF81E008959C01FB0119
:102680008581811599F021309CE7390761F023306D
:102690009CE7390739F021153C4749F40E943B0774
:1026A00080E00895C2DC0E943F07FACF81E00895E0
:1026B000089580E090E00E9499329C0181E0233EE1
:1026C0003E4F09F080E0089563EE7EEF80E090E0F9
:1026D0000C94C7326FEF7FEF80E090E00C94C7322C
:1026E000CF93DF93EC0182E090E00E948C328883EC
:1026F000DF91CF910895FC01608182E090E00C941D
:10270000AD3283E090E00E948C3290E00895682F13
:1027100083E090E00C94AD32CF93DF93EC0184E042
:1027200090E00E94993288839983DF91CF91089538
:10273000FC016081718184E090E00C94C73248E034
:1027400050E067E170E00C947C3248E050E067E1D3
:1027500070E00C949E328FE090E00C949432AB01C8
:10276000BC018FE090E00C94BF32AB01BC0183E16F
:1027700090E00C94BF32682F8EE090E00C94AD3264
:1027800008950895E82FF0E0EE50FA4F8081089503
:1027900008950E949304E4EEF5E08EE011928A958C
:1027A000E9F7E2EFF5E08EE011928A95E9F713D0B0
:1027B0000C94B305CF9384EE95E00E949A04482FC1
:1027C00062EF75E084EE95E007D0C82F0E943906CD
:1027D0008C2FCF9108950895EF92FF920F931F933E
:1027E000CF93DF93182F092FF62EE72EC42F1092C8
:1027F0007B03D0917D03D11509F46BC00E94BE29E3
:102800004091790350917A039C01241B350B8093EE
:10281000790390937A0384179507C9F0C901911140
:102820008FEFEEE7F3E020E030E09191911539F081
:10283000DF011197891708F448C01C923D2F93E0DF
:10284000EC38F90791F730937C0320937D03C11195
:102850000DC0CD2F80917C03811581F1C11106C07F
:102860000E94BE298093790390937A0310927C038F
:1028700080917B0390917D03EF2DFE2DC12FD02FF2
:102880000EE713E0AF01425F5F4F3EE16191299196
:10289000621759F0D8016C91611107C03C93CF01C8
:1028A0000197DC012C9381E091E00F5F1F4FE4174B
:1028B000F50761F790937D0380937B0380917B0301
:1028C000CDB7DEB7E6E00C943D32981B9C932D2FDC
:1028D000B6CF411509F4BECFC3CF40CC08950E94B6
:1028E00058290E94DF2CFCDB0E94F72C1BDC0E9485
:1028F000002D0E94032DF1DF0E94192DFFDBF9CF7F
:1029000080939E0290939F020895CF93DF93EC01F2
:10291000FB018581811104C081E0DF91CF91089591
:1029200059DA8272FE01E052F847EB30F105A0F768
:10293000E752FD4C0C940F320E94322080E0EDCF24
:10294000811529F00E948820F9CF8115D9F30E94C2
:102950007C20F4CF811529F00E94AF20EFCF8115A4
:10296000D9F30E94A320EACF811529F00E94CD203F
:10297000E5CF8115D9F30E94BE20E0CF811529F063
:102980000E94EB20DBCF8115D9F30E94DC20D6CF4B
:10299000811529F00E940321D1CF8115D9F30E941E
:1029A000F720CCCF0F931F93CF938C01FB01C581F0
:1029B000C11531F0C1E08C2FCF911F910F91089577
:1029C00009DA8272F801E054F847EF30F10590F728
:1029D000EC51FD4C0C940F320E944120ECCF0E9430
:1029E0005120E9CF0E943220E6CF811529F00E94C4
:1029F0008820E1CF8115D9F30E947C20DCCF81159E
:102A000029F00E94AF20D7CF8115D9F30E94A320CF
:102A1000D2CF811529F00E94CD20CDCF8115D9F3D9
:102A20000E94BE20C8CF811529F00E94EB20C3CFA1
:102A30008115D9F30E94DC20BECF811529F00E94B8
:102A40000321B9CF8115D9F30E94F720B4CF8115A6
:102A500029F00E942A21AFCF8115D9F30E941921B4
:102A6000AACFA0E0B0E0E7E3F5E10C941E32062F18
:102A7000B72EE82F71110EC0411521F0F0E0EC5F88
:102A8000F94FE4916E2F7E2F8E2FCDB7DEB7E9E0A0
:102A90000C943A32411521F0F0E0EC5FF94FE491EB
:102AA00086E0089FE00111242FEF30E0CE01B9014C
:102AB0000E94E831AB01C801880F991FF5E5F49F2A
:102AC000B001F59F700D1124861B682F660F680FEB
:102AD000C9018B199109E89FD001E99FB00D11241C
:102AE0008B2FB69E60011124CD2CD12C89010C199D
:102AF0001D096801E09F7001E19FF00C1124433033
:102B0000510551F18901061B1109B09E6001B19E6A
:102B1000D00C1124CD2CD12C2C193D09E29F800121
:102B2000E39F100D1124712FCC3FD34050F441305E
:102B30005105B1F04230510561F47E2FEB2F812F0A
:102B400008C04430510579F04630510511F07B2F13
:102B50008F2D6E2FE82F98CF7F2D8E2FEB2FF9CF53
:102B60007E2FEF2DF6CF8E2FE12F7B2FF2CF41E07E
:102B700078CF282F269F020E20E0211D1124822FBE
:102B800008959C0180E090E0269F020E811D369FF3
:102B9000800D911D1124830F911D0895AC01823089
:102BA000910508F408959FEF413E8EE1580740F4E7
:102BB0009A0195E0369527959A95E1F7922F985FBF
:102BC00061E0262F290F3327331F35952795822F54
:102BD000229FF001239FF00DF00D11244E175F0787
:102BE00038F4922F9150961760F7862F81500895F0
:102BF0002F3FE9F3622F6F5FF6CF4091F4015091C0
:102C0000F50125E038E0429FC001439F900D529F9F
:102C1000900D1124875E994C8093F4019093F501F7
:102C2000890F0895CF93C82FE8DF8C9FC00111242E
:102C3000892FCF910895982FE82F96FDE0958E2F3C
:102C40008F7096FD8F5FE695E695E695E670F0E06D
:102C5000E458FD4F2181289F202D812D112422959C
:102C60002F708295807F282B8081820F97FD819520
:102C7000805808951F93CF93DF93EB01182F822F75
:102C80008695D9DF805887FD8195612F880F71DF88
:102C9000BE01DF91CF911F9108950F931F93CF93A2
:102CA000DF93162FD72F082FC22FE42FF0E0EE0F5F
:102CB000FF1FEA5AFE4F64EE80815BDF4D2F50E02C
:102CC000282F30E0245E3F4F6C2F70E0C9018C1B31
:102CD00091091AF4CB01821B930B23E0880F991FF3
:102CE0002A95E1F7481B590BCA0157FD80E06D2F6B
:102CF00040DF612F782F802FDF91CF911F910F91AF
:102D000008950F931F93CF93DF93162F072FD82F7C
:102D1000C22FE42FF0E0EE0FFF1FEA5AFE4F64EEE1
:102D2000808127DF4D2F50E0282F30E0245E3F4F79
:102D30006C2F70E0C9018C1B91091AF4CB01821B26
:102D4000930B23E0880F991F2A95E1F7481B590B35
:102D5000CA0157FD80E06D2F0CDF612F702FDF91CE
:102D6000CF911F910F910895622F0895E42FF0E005
:102D7000EE0FFF1FEA5AFE4F6081621B0895E42F99
:102D8000F0E0EE0FFF1FE95AFE4F6081621B0895CD
:102D90000F931F93022F50E0FA01EE0FFF1FE95A25
:102DA000FE4FE081E052E7FDE195440F551F4A5A7E
:102DB0005E4FDA012C91201B310B2E0F620F1F91F9
:102DC0000F910895EF920F93972F202F30E0B901C4
:102DD000660F771F620F731F759567956E0D792FBC
:102DE0000F91EF9008950F93CF93DF93C72FD82FB4
:102DF00047FD419588E390E0841B910947FD939539
:102E0000889FB001899F700D700D1124229FC00111
:102E1000239F900D900D1124860F971FBFDE682F02
:102E2000660F680F600F7C2F8D2FDF91CF910F9170
:102E300008950F931F93A02FB0E0FD01EE0FFF1F29
:102E4000E95AFE4F00810052110B2003F001219F2F
:102E5000F00D1124AA0FBB1FAA5ABE4F2C91205768
:102E6000330B4203D001439FB00D11249F012A0F61
:102E70003B1F12F421583F4F220F232F221F330BE9
:102E8000620F1F910F9108950F931F93A02FB0E031
:102E9000FD01EE0FFF1FE95AFE4F00810052110B9A
:102EA0002003F001219FF00D1124AA0FBB1FAA5A85
:102EB000BE4F2C912057330B4203D001439FB00DDE
:102EC00011249F012A0F3B1F12F4215C3F4F96E013
:102ED000359527959A95E1F7620F1F910F91089507
:102EE0000F931F93E02FF0E0DF01AA0FBB1FAA5A38
:102EF000BE4F9C91905797FD9195EE0FFF1FE95A99
:102F0000FE4FA081A052BB0B8D012003F001219F39
:102F1000F00D112428E330E0291B310997FD33958A
:102F20004203D001439FB00D1124EA0FFB1F9F0104
:102F3000220F331F2E0F3F1F12F421583F4F220F35
:102F4000232F221F330B620F1F910F9108951F93A0
:102F5000CF93DF93EB01182F822F86956CDE80587C
:102F600087FD81956CE0880F04DE6C2F680F7D2F44
:102F7000812FDF91CF911F9108950F931F93CF93CE
:102F8000DF93D62F172F082FC42F822F54DEEC2F5C
:102F9000F0E0EE0FFF1FEA5AFE4F90819058890F24
:102FA00087FD81956CE0880FE4DD6D2F680F712F30
:102FB000802FDF91CF911F910F9108951F93CF9391
:102FC000DF93EB01182FE42FF0E0EE0FFF1FEA5A1A
:102FD000FE4F8081821B87FD819568E1CADD6C2FE1
:102FE000680F7D2F812FDF91CF911F910895209140
:102FF000040630E1230F08F42FEF60E1822F90E008
:10300000C0DDBC0188EB9BE00E94E83180E090E0ED
:10301000089590915304982B909353040895FC01C4
:103020009B01009719F4832F80780895AC0197FFD6
:1030300004C044275527481B590BB901640F751F5D
:1030400037FD10C0241B350BA0E23A9F902D2A9F1C
:10305000802D912911240E94FC3180E2861BF7FD0E
:1030600081950895CB0160E2969F902D869F802DDB
:1030700091291124421B530BBA010E94FC3180E6B6
:10308000EDCF0F931F93CF93DF93D62FC72F182F1A
:10309000C901272F201B022FBA01C1DF982F990FDA
:1030A000990F891B6C2F800F64DD6D2F782F812F76
:1030B000DF91CF911F910F9108950F931F93CF939D
:1030C000DF93D62F172FC82FC9012C2F201B022FBB
:1030D000BA01A5DF982F990F990F891B6C2F800FCC
:1030E00048DD6D2F712FDF91CF911F910F910895C2
:1030F000EF920F931F93CF93DF93D62FC72F182FE5
:10310000C9010E19070FBA018ADF6C2F081B802F27
:1031100030DD6D2F782F812FDF91CF911F910F918F
:10312000EF900895EF920F931F93CF93DF93D62FD5
:10313000172FC82FC9010E190C0FBA0170DF6C2FA1
:10314000081B802F16DD6D2F712FDF91CF911F91FE
:103150000F91EF9008950F93CF93DF93C72FD82F40
:10316000C901BA015CDF800F682F7C2F8D2FDF91A2
:10317000CF910F910895EF920F93CF93DF93C72FC5
:10318000D82FC9010E19BA014ADF602F681B7C2FA6
:103190008D2FDF91CF910F91EF900895E8CC089596
:1031A00080E096E00E94251010925304089585E374
:1031B0008093000680910B0290910C02A0910D0269
:1031C0008093010690930206A09303068FE78093F5
:1031D00004068FEF8093050680E096E00E9425109C
:1031E000109253040895E0918A02F0918B020995A0
:1031F00008950895FF920F931F93CF93DF93162F97
:10320000042FF22EC0918602D0918702F2DF2F2D7B
:10321000402F612FFE010995CDB7DEB7E5E00C9494
:103220003E321F93CF93DF93C82FD0E0FE01EA54C4
:10323000FE4F8081682371F0E0DC182F80E8F2DC1B
:103240008158782F612F80910306A8DF472F282F00
:10325000CE01D0DFDF91CF911F910895FF920F93A0
:103260001F93CF93DF93C82FD0E0FE01EA54FE4FA7
:1032700080816823A1F000910206F090030610916E
:10328000010683E0CFDC612F90EE899F600D112451
:10329000702F8F2D83DF472F282FCE01ABDFCDB7C7
:1032A000DEB7E5E00C943E32E0918802F0918902AD
:1032B000099508950C947510089590910906A091B0
:1032C0000A06B0910B06892F9A2FAB2FA6959795DA
:1032D0008795A69597958795837090E0A0E0B0E0DC
:1032E00082309105A105B10571F083309105A105EA
:1032F000B10561F040E060E010979040814041F4FA
:1033000064E180E0D1CF44E160E0FBCF44E164E1DF
:1033100084E1F8CF81E0089581E00895FBCF08951E
:10332000FBDFFCCF982F990F990F890F982F9B5F88
:10333000913308F090E308954F925F926F927F92DD
:103340008F929F92AF92BF92CF92DF92EF920F93A4
:103350001F93CF93DF933C012B01FC018081E2DFBF
:10336000C82F192F609104066695809108069091E8
:10337000090607DCE82ED0E0CE01880F991F8A5A93
:103380009E4F6C011C1709F0A0F481E0103308F087
:1033900080E0DF91CF911F910F91EF90DF90CF9060
:1033A000BF90AF909F908F907F906F905F904F9065
:1033B0000895FE01EA54FE4F8081F3019181892333
:1033C00051F1F6018081282F2057330B590181815B
:1033D000282F2052330B4901AA9C9001AB9C300D41
:1033E000300D1124889CC001899C900D900D1124F2
:1033F000820F931FD3DB082F6091010670910206A4
:10340000809103069401A501F2010995C7DE472FBB
:10341000282FCE01EFDE82E0C80ED11C2196B2CF5C
:1034200068E778E189CF62E978E186CF62EE76E1FC
:1034300083CF6BEB78E180CFA0E0B0E0E2E2FAE18D
:103440000C941D326C015B01FC0180816BDFC82F85
:10345000192F6091040666958091080690910906DF
:1034600090DB082FD0E0CE01880F991F8A5A9E4F1B
:103470007C011C1709F048F481E0103308F080E06B
:10348000CDB7DEB7EAE00C943932FE01EA54FE4FC4
:103490008081F60191818923A1F0F70121812052D9
:1034A000330B40814057550B609101067091020625
:1034B00080910306F501099571DE472F282FCE0173
:1034C00099DE82E0E80EF11C2196D3CF61E478E129
:1034D000B3CF6DE578E1B0CF63EF76E1ADCF6BEAC6
:1034E00078E1AACFA0E0B0E0E8E7FAE10C941F325F
:1034F0007C016B01FC01808115DFC82F192F6091C1
:1035000004066695669521E0620F08F46FEF8091DE
:1035100008069091090635DB082FD0E0C11748F066
:1035200081E0103308F080E0CDB7DEB7E8E00C941E
:103530003B32FE01EA54FE4F8081F70191818923DD
:1035400079F0609101067091020680910306202FA8
:103550004C2FF601099522DE472F282FCE014ADE97
:103560002196DCCF6AE376E1BDCF6DE476E1BACF98
:1035700061E876E1B7CF64EB76E1B4CF66EB76E154
:10358000B1CF6FEB76E1AECF68EC76E1ABCF67EA17
:1035900077E1A8CF6DEB77E1A5CF6EED77E1A2CF14
:1035A0008F929F92BF92CF92DF92EF92FF920F93F2
:1035B0001F93CF93DF936C014B01FC018081B2DE3E
:1035C000C82F192F609104066695669580910806AC
:1035D00090910906D6DAE82E805C2DDB8058F82E13
:1035E0008E2D29DB8058B82ED0E0C11780F081E005
:1035F000103308F080E0DF91CF911F910F91FF9081
:10360000EF90DF90CF90BF909F908F900895FE0134
:10361000EA54FE4F8081F6019181892381F0609107
:10362000010670910206809103060C2F2B2D4F2D61
:10363000F4010995B3DD472F282FCE01DBDD21965C
:10364000D4CF69E177E1ACCF64E477E1A9CF60E75B
:1036500077E1A6CFA0E0B0E0E0E3FBE10C941F32FD
:103660007C01FC0180815EDEC82F192F609101066C
:10367000709102068091030691DD062FD72EC82E89
:10368000D0E01C1709F048F481E0103308F080E026
:10369000CDB7DEB7E8E00C943B32FE01EA54FE4FB2
:1036A0008081F7019181892329F02C2D4D2D602FE8
:1036B000CE01A0DD2196E5CFA0E0B0E0E2E6FBE19F
:1036C0000C941C327C01FC0180812CDEC82F192F48
:1036D00000910106D0900206D0910306602F7D2D47
:1036E0008D2F5CDDC62EB72EA82E60910406600FCC
:1036F0007D2D8D2F53DD062FD72E982ED0E01C1751
:1037000009F048F481E0103308F080E0CDB7DEB76F
:10371000EBE00C943832FE01EA54FE4F9081F70141
:103720008181892351F0292D4D2D602F90FD03C0FB
:103730002A2D4B2D6C2DCE015DDD2196E0CFA0E032
:10374000B0E0E5EAFBE10C941F327C01FC018081D2
:10375000E9DDC82F192FD0900206C09003066091B2
:10376000040680E406DA082FD0E01C1709F048F4BC
:1037700081E0103308F080E0CDB7DEB7E8E00C94CC
:103780003B32FE01EA54FE4F8081F701918189238B
:10379000A1F0FE01EE0FFF1FE95AFE4F80818295D6
:1037A0008F7060910106809F600D11247D2D8C2DFE
:1037B000F5DC472F282FCE011DDD2196D6CFA0E0C6
:1037C000B0E0E5EEFBE10C941F327C01FC0180814E
:1037D000A9DDC82F192FD0900206C0900306609172
:1037E000040680E4C6D9082FD0E01C1709F048F47D
:1037F00081E0103308F080E0CDB7DEB7E8E00C944C
:103800003B32FE01EA54FE4F8081F701918189230A
:10381000C1F0FE01EE0FFF1FEA5AFE4F6081609F6C
:10382000B001112495E0759567959A95E1F780911F
:103830000106680F7D2D8C2DB1DC472F282FCE017E
:10384000D9DC2196D2CF0F931F93CF93DF93EC0156
:103850008881811117C06091040620E1620F08F48D
:103860006FEF80910806909109068BD96AE070E0AD
:103870000E94E831892B31F480E3D4D98093EC01A4
:103880001092ED0188814EDD092F182F9A81911138
:1038900017C02091EC013091ED012817310590F00F
:1038A0002017310578F46981822FD8DC81E3809379
:1038B000EC011092ED0106C06981812FCFDC1F5F02
:1038C0001017D0F381E0003308F080E0DF91CF9152
:1038D0001F910F9108950F931F93CF93DF93EC01E6
:1038E0008881811117C06091040620E1620F08F4FD
:1038F0006FEF809108069091090643D965E070E06A
:103900000E94E831892B31F480E38CD98093EA015D
:103910001092EB01888106DD092F182F9A819111F1
:1039200017C02091EA013091EB012817310590F082
:103930002017310578F46981822F73DC81E380934D
:10394000EA011092EB0106C06981812F6ADC1F5FDA
:103950001017D0F381E0003308F080E0DF91CF91C1
:103960001F910F910895A7E0B0E0E9EBFCE10C9402
:103970001532582E8091F201851125C090910006D4
:1039800093702091F30130E081E09217130609F45F
:1039900080E08093F101809105069091F0019817E5
:1039A00031F08093F00140E060E080E07DDC852D27
:1039B0008F3158F4E52DE150EE3160F4F0E0ED5038
:1039C000FD4C0C940F3281E0E4CF8F3F09F48EC29E
:1039D00080E00CC08091F1018115D1F340E060E0FE
:1039E00080E062DCF5CF8FEE91E034DE9091EF0164
:1039F0009F5F9093EF0181117DC282E08093EE0181
:103A00008091F101811176C2511074C283E070C2BD
:103A10008FEE91E051DEEACF8FEE91E090DEE6CFBF
:103A20008FEE91E0CCDEE2CF8FEE91E09BDDDECF3A
:103A30008FEE91E09ADDDACF8FEE91E099DDD6CF6F
:103A40008FEE91E043DDD2CF8FEE91E042DDCECF1D
:103A50008FEE91E0E5DCCACF8FEE91E0E4DCC6CFDB
:103A60008FEE91E088DDC2CF8FEE91E087DDBECF93
:103A70008FEE91E086DDBACF8FEE91E085DDB6CF97
:103A80008FEE91E0D3DCB2CF8FEE91E025DDAECFAB
:103A90008FEE91E024DDAACF8FEE91E0CADCA6CFB5
:103AA0008FEE91E0CEDDA2CF8FEE91E0CDDD9ECF07
:103AB0008FEE91E0CCDD9ACF8FEE91E0C4DE96CF11
:103AC0008FEE91E008DF92CF8FEE91E060DD8ECF38
:103AD0008FEE91E05FDD8ACF8FEE91E05EDD86CFE5
:103AE0008091EF01811108C08091F101811521F0D1
:103AF00080E398D8809352048091EF0113DC99837E
:103B000000914E0410914F042091500430915104C3
:103B1000409108065091090660910A0670910B06C3
:103B2000041715072607370708F041C0E091520433
:103B3000E817C8F0E917B8F4F0E0EA54FE4F8081C6
:103B40009091F001892379F058D881FF36C01A820C
:103B500070E080E06A8122DB472F90915204282F89
:103B6000892F90E047DB8981803308F180E35AD8C0
:103B7000809352046091040680E097E002D820E030
:103B800038E0281B390B8091080690910906A09116
:103B90000A06B0910B06820F931FA11DB11D8093E1
:103BA0004E0490934F04A0935004B093510481E0CD
:103BB0009981903308F41ACF0BCF1FD88A8380E8FD
:103BC00031D88158782F80910306C4CF80914A0460
:103BD00090914B04A0914C04B0914D044091080683
:103BE0005091090660910A0670910B064817590713
:103BF0006A077B0708F4ECCE8091F10181114DC07A
:103C00008091EF018FDBF92E082F10E0C801880F9B
:103C1000991F800F911F86549C4F8E839F830F1591
:103C200008F471C08F2D8033A8F18150990B9C014D
:103C3000220F331F280F391F2E833F83A9016DEBFD
:103C400073E08AEB93E00E9462320E94FD152E81A0
:103C50003F8126543C4F2E833F8381FF6BC0F90187
:103C6000108211821282C3D9AB01BC018091080677
:103C700090910906A0910A06B0910B06840F951F3A
:103C8000A61FB71F80934A0490934B04A0934C0443
:103C9000B0934D0481E09F2D8CCF40E060E080E048
:103CA00003DB6AEBE62E63E0F62E00E010E00E94F4
:103CB000FD1581FF0DC0F7011082118212820F5F86
:103CC0001F4F83E0E80EF11C0033110581F798CFF8
:103CD0000E94FD15D82E80E80E9412168158782F78
:103CE000C801880F991F800F911F86549C4F8E83A7
:103CF0009F836D2D8091030651DAEE81FF816083F1
:103D000071838283DCCFF801EA54FE4F8081909169
:103D1000F001892339F0EE81FF81228141816081A8
:103D2000C80168DA8E819F8103968E839F830F5F1F
:103D30001F4F75CF0E94FD15182F80E80E941216A4
:103D40008158782F612F8091030628DAEE81FF8158
:103D500060837183828387CF8091F101811521F087
:103D600040E060E080E0A0DA8091EF01DBDA9D8343
:103D70008091080690910906A0910A06B0910B0661
:103D80004091B6035091B7036091B8037091B903A5
:103D9000481759076A077B0708F0A1C06091010620
:103DA0007091020680910306F9D9362E7C83282E65
:103DB0000CE813E082E0E82E81E0F82E86E591E041
:103DC0008E839F83570186E0E80EF11C4501370181
:103DD00068011B82F60181916F01811509F482C08F
:103DE000422C8C818A833982D401ED914D01F0E01F
:103DF000DF01AA54BE4F9C918091F001982329F0D5
:103E0000242D4A816981CF01F5D9D301EE913D017D
:103E1000F0E0DF01AA54BE4F9C918091F0019823FD
:103E200029F0242D4A816981CF01E4D9F6018081EE
:103E300082938B8191E09B83813061F6F8018281CE
:103E4000922CCC80D32C811103C0912CC12CD12C6D
:103E5000F501E281F0E0DF01AA54BE4F9C91809110
:103E6000F001982329F0292D4C2D6D2DCF01C2D9B9
:103E7000F501E381F0E0DF01AA54BE4F9C918091EF
:103E8000F001982329F0292D4C2D6D2DCF01B2D9A9
:103E90000E94FD15837091E0811190E0F8019283FA
:103EA0000D5F1F4F8E819F818E159F0509F08ACF70
:103EB0009ED8AB01BC018091080690910906A091A3
:103EC0000A06B0910B06840F951FA61FB71F80939B
:103ED000B6039093B703A093B803B093B90381E0FE
:103EE0009D8167CE412C1A8219827ECFE6D982E06D
:103EF0008093EE012796E2E10C94313281E008953F
:103F000081E00895FBCF0895CF93DF93FC0180817A
:103F1000815008DAEC016D2FF3DF6D2F8C2FF2DF6B
:103F2000DF91CF910895CF930E94CA29AB01BC01C4
:103F3000409354045093550480935604709357044F
:103F4000C09158048091EE01823081F1F0F481112A
:103F500020C01092EF014093080650930906609329
:103F60000A0670930B0690915904911108C0809134
:103F70000006837021F080910006869586958093D7
:103F8000580481E08093EE0102C08330C9F0CF91E4
:103F900008958C2FE8DCC115D1F38091EE018230B9
:103FA00009F4BED98FEE91E0AFDFF1CFC093F201FB
:103FB0008091000683708093F30115D983E0E2CFEE
:103FC00080915304811531F080E096E00E94251025
:103FD00010925304609108067091090680910A06B8
:103FE00090910B060E9446296A3171058105910561
:103FF00070F21092EE01CBCFE0918402F091850235
:10400000099581E08093530480E096E00E9423109C
:104010001092530480910006843008F4C8C80895B3
:10402000CF93C82F811581F08091590481110CC064
:104030009ADC1092F2018091000683708093F30164
:10404000D2D883E08093EE01C0935904CF910895B4
:104050009091000621E09227909300061092EE01C5
:104060000C94091881E0F4CF80910006837011F45C
:104070001092EE01809100068C7F81608093000693
:104080000895F2DF81E00C94091880910006837096
:1040900011F01092EE01809100068C7F8093000653
:1040A0000895F3DF81E00C94091890910006937055
:1040B00099F0811591F08F3190F48F73880F880FEC
:1040C000982F209100062370922B90930006109257
:1040D000EE01862F0C940918089581E0EFCF8EE150
:1040E000EDCF682F9091000696959695892F8F5F5A
:1040F0008F3108F081E0D9CF81E0F3CF682F909124
:10410000000696959695892F815009F48EE1CDCFC2
:1041100081E0F4CF90910006937049F080930106FE
:104120006093020640930306822F0C9409180895A9
:10413000A1E0B6E0EC91F0E0282F12964C916E9140
:10414000CF010896E7CF81E0F3CFE0E0F6E0282F3B
:1041500043816281E181E850FF0BCF01DBCF81E039
:10416000F4CFE0E0F6E0628120E1620F08F46FEF47
:104170009181282F4381892F90E0CCCF81E0F1CF2E
:10418000E0E0F6E0628120E1621B08F460E09181EA
:10419000282F4381892F90E0BDCF81E0F1CFE0E06F
:1041A000F6E0438120E1420F08F44FEF9181282F80
:1041B0006281892F90E0AECF81E0F1CFE0E0F6E0C0
:1041C000438120E1421B08F440E09181282F628165
:1041D000892F90E09FCF81E0F1CF2091040630E15C
:1041E000230F08F42FEF209304060C94091881E0A4
:1041F000F4CF2091040630E1231B08F420E0209343
:1042000004060C94091881E0F4CF8093050681E040
:104210000C94091821E030E0909105069F3F09F0C9
:1042200020E026583D4FF9019081909305060C94AB
:10423000091881E0EFCF21E030E0909105069F3F23
:1042400009F020E026583D4FF90190819093050632
:104250000C94091881E0EFCFA1E0B0E0E2E3F1E2D5
:104260000C9423324983E82FF0E0E457FD4F80811E
:1042700004E610E09D01AE014F5F5F4F880F0E9482
:10428000682B2196E4E00C943F32462F6DEFE4CF8B
:10429000EF92FF920F931F93CF93DF93282F30E07D
:1042A00094EA899FE0011124C65ADB4F84E2F82E7C
:1042B00024573D4FF9018081880FE82E04E610E075
:1042C00020E130E0AE016F2D8E2D0E94682B8F2DE6
:1042D000805FF82E6096843B89F7CDB7DEB7E6E0C5
:1042E0000C943D32CF93DF93D82F6BE0CEDF40E0CC
:1042F0006AE08D2FB1DF8FE39CE90197F1F700C0F1
:10430000000040E060E08D2FA7DF40E061E08D2FEE
:10431000A3DF40E066E08D2F9FDF60E08D2FB5DFEB
:10432000C0E040E06C2F8D2F97DFCF5FC231C9F71F
:1043300040E06C2F8D2F90DFCF5FC432C9F740E093
:104340006C2F8D2F89DFCF5FC43BC9F76BE08D2FBA
:104350009CDF41E06AE08D2F7FDF60E08D2F95DFED
:10436000DF91CF910895A4E0B0E0E9EBF1E20C9485
:104370002232F62E042F122F80339105E8F5880F94
:10438000991F880F991F84559F4FBC01AD01CE0125
:1043900001960E944C32898183706A815B814C81D5
:1043A00024EA829FC00111249C01265A3B4FF90147
:1043B000E60FF11D70817F110CC0F901E50FF11DB1
:1043C0007081701306C0240F311DF901208121175F
:1043D00099F0865A9B4FFC01E60FF11DF082FC011B
:1043E000E50FF11D0083FC01E40FF11D10838057E0
:1043F0009F4F21E0FC0120832496E5E00C943E329F
:10440000FF920F931F93CF93DF93182F062FF42E55
:10441000C0E0D0E02F2D402F612FCE01A4DF2196E8
:10442000C033D105B9F7CDB7DEB7E5E00C943E3225
:10443000A4E0B0E0EEE1F2E20C942132062FF42E7B
:10444000E22E94E0899FB001112464557F4FAD01A5
:10445000CE0101960E944C327A81FB81AF2FA69546
:10446000A695A6951A2F4C81E42FE695E695E6953C
:10447000F770477089818370672F6695669566959A
:1044800024EA829FC00111249C01265A3B4F260F2B
:10449000311D2F563F4FD9015C91777021E001C04B
:1044A000220F7A95EAF7011509F441C0522B9C01BD
:1044B000265A3B4F620F732F711D6F567F4FDB01E2
:1044C0005C93210F311D2F563F4FD9015C9121E0A4
:1044D00001C0220FFA95EAF7F11461F1522B9C0109
:1044E000265A3B4FD901A10FB11DAF56BF4F5C9368
:1044F0002E0F311D2F563F4FD9015C9121E001C095
:10450000220F4A95EAF7E114C1F0252B865A9B4FFA
:10451000E80FF92FF11DEF56FF4F20838D559F4F68
:1045200021E0FC0120832496E6E00C943D322095A6
:104530005223BDCF20955223D2CF20952523E6CFFD
:10454000CF93DF9394EA899FE0011124C651DB4F9A
:104550009881911511F09CDE1882DF91CF9108951A
:10456000EF92FF920F931F93CF93DF93082F84EA6C
:10457000089FE0011124FE01E350FB4F808181156B
:1045800089F0CE0185519B4F7C0110E0F7014191EC
:104590007F01612F802F60DE1F5F1231B9F7C3509A
:1045A000DB4F1882CDB7DEB7E6E00C943D32CF93F7
:1045B000AAD780E097DE81E095DEC0E021E041E00F
:1045C00061E08C2F35DFCF5FC033C1F780E0C8DFFB
:1045D00081E0C6DFCF91089580E0B2DF81E0B0CF07
:1045E000CF93DF93EB0186319C4709F50E94EA0ED9
:1045F0009D81911599F08A7A91E0811101C090E036
:104600009093A205811541F085E321D50E94970F73
:1046100080E0DF91CF91089589E2F7CF8091A205E4
:10462000811519F085E32AD5F1CF89E2FCCF81E02D
:10463000F0CFCF93DF93EC01FB018581811509F465
:10464000CBC09E0130572332310508F0ABC082EE5B
:1046500095E00E941F10FE01E150F047E232F105A3
:1046600020F4EF5EFC4C0C940F328091E2058160E7
:104670008093E20590C08091E30588608093E30514
:104680008AC08091E2058260F3CF8091E205846068
:10469000EFCF8091E2058860EBCF8091E3058160E8
:1046A000EDCF8091E3058260E9CF8091E2058061E2
:1046B000DFCF8091E2058062DBCF8091E2058064EC
:1046C000D7CF0E94C70A8091E2058068D1CF809140
:1046D000E2058C60CDCF8091E3058360CFCF8091E0
:1046E000E2058E7FC5CF8091E305877FC7CF80919C
:1046F000E2058D7FBDCF8091E2058B7FB9CF8091A0
:10470000E205877FB5CF8091E3058E7FB7CF80919B
:10471000E3058D7FB3CF8091E2058F7EA9CF809195
:10472000E2058F7DA5CF8091E2058F7BA1CF0E940E
:10473000C70A8091E2058F779BCF8091E205837F46
:1047400097CF8091E3058C7F99CF9091E205892FD7
:104750008B7F92FF8460877F92FF886089CF8091F2
:10476000E305982F909590FB80F990FB81F986CF17
:104770009091E205892F8F7B96FF806479CF0E940C
:10478000C70A9091E205892F97FB87F9805870CF6F
:1047900081E00E942B1082EE95E00E9421100E9481
:1047A000C70A80E0DF91CF91089580E0F2CF909129
:1047B000E205892F8F7E94FF80615ACF9091E205A8
:1047C000892F8E7F90FF816053CF9091E305892FD1
:1047D000877F93FF886052CF81E0E4CF382F25EBAD
:1047E0003203C001112497FF04C080589109892F1A
:1047F000089580589F4FFBCF8091AA0580FF0DC080
:104800006091FB0170E0660F771F6038710588F5D5
:104810006115710581F1862F089581FF07C06091B0
:10482000FB0184E0689FB0011124EFCF82FF04C038
:104830006091FB0188E0F6CF9091A9059115B9F040
:104840006091FA018091FB01961728F098E0899F0A
:10485000B0011124DACF899FC001112423E0880F11
:10486000991F2A95E1F770E00E94FC31CECF68E0F5
:10487000D2CF8FE7089581E008958091AA0580FF47
:104880000CC06091F70170E0759567957595679517
:104890006115710541F1862F089581FF06C0609171
:1048A000F70170E075956795F3CF6091F70182FD90
:1048B0000BC09091A8059115A1F06091F60180912F
:1048C000F701961738F0682F70E06038710500F333
:1048D0008FE70895899FC001112470E00E94FC3188
:1048E000F4CF61E0D8CF81E00895E82FED5CE331AB
:1048F00098F5F0E0ED5CFC4C0C940F327DDF819577
:104900008093AD05089578DFFBCF76DF81958093A6
:10491000AC05089571DFFBCFB0DF8093AE0508953D
:10492000ACDF8195FACFA9DF81958093AF0508951B
:10493000A4DFFBCF815D990B21E001C0220F8A9596
:10494000EAF78091AB05822B8093AB0508958091A7
:10495000AA0581608093AA0508958091AA058260C6
:10496000F9CF8091AA058460F5CF4091AC058D3CCC
:1049700059F48091AD0587FF0DC01092AD0541152A
:1049800059F41092A90508C08E3C81F48091AD05C0
:1049900018169CF3411581F08091AE059091AF05FA
:1049A000892B09F056C01092A80508958F3C41F458
:1049B00047FFF0CF1092AC058091AD058115E0CF97
:1049C000803D19F41416B4F3E5CF9091AE05893DFE
:1049D00029F41916FCF61092AE05DCCF8A3D19F4C5
:1049E00097FFD8CFF8CF9091AF058B3D29F497FF73
:1049F000D1CF1092AF05CECF8C3D19F41916CCF360
:104A0000C9CF982F915D983078F4815D990B21E0A2
:104A100001C0220F8A95EAF7822F80959091AB050D
:104A200089238093AB05B6CF8D3D31F48091AA05E3
:104A30008E7F8093AA05AECF8E3D21F48091AA058A
:104A40008D7FF7CF8F3D09F0A5CF8091AA058B7F91
:104A5000F0CF089593D49C019091AC058091AD0561
:104A6000982B21F02093A6053093A7059091AE05D1
:104A70008091AF05982B21F02093A4053093A505D4
:104A80008BEA95E0DDC1EBEAF5E085E011928A95CD
:104A9000E9F71092A9051092A8051092AA050895A9
:104AA000FC01818181110EC0828181110BC0838143
:104AB000811108C091E08481811101C090E0892FAB
:104AC0008170089581E0FCCFA5E0B0E0EAE6F5E270
:104AD0000C94223285E0EBEAF5E09E012F5F3F4F18
:104AE000D90101900D928A95E1F71092AC051092D0
:104AF000AD051092AE051092AF058A819B81892B7E
:104B0000022FF32E811581F08091A6059091A705C3
:104B1000B4D3AC019091A9059115A1F18091FC014C
:104B20008417150608F43BC08C819D81892B89F080
:104B30008091A4059091A505A0D3AC019091A80502
:104B4000911509F45AC08091F8018417150608F4EC
:104B500062C0602F7F2D8BEA95E0BFD2811104C027
:104B60008BEA95E09DDF811175DF85E0E02FFF2D59
:104B7000ABEAB5E001900D928A95E1F72596E5E064
:104B80000C943E322091A3058AE0289F90011124C5
:104B90002417350748F69F5F9093A90502C09F3FF1
:104BA000D1F71A81111551F027DE91E011160CF0A2
:104BB0009FEF899F802D11248093AC051B811115D7
:104BC00051F01ADE91E011160CF09FEF899F802DB5
:104BD00011248093AD058091AC05811509F4A4CF13
:104BE0001091AD05111509F49FCFF8DD8093AC0548
:104BF000812FF4DD8093AD0597CF2091F9018AE0F4
:104C0000289F900111242417350708F0A2CF9F5F39
:104C10009093A80502C09F3FD1F71C81111551F058
:104C20002CDE91E011160CF09FEF899F802D11244E
:104C30008093AE058D81182F811551F01EDE91E015
:104C400011160CF09FEF899F802D11248093AF05E2
:104C50008091AE05811509F47CCF9091AF05192F95
:104C6000911509F476CFBADD8093AE05812FB6DDBC
:104C70008093AF056ECF0F931F93CF93DF93C42F15
:104C8000D22FFC0185818115C9F04093B20576D3FE
:104C90008093B0059093B1058C2F805E883048F4E6
:104CA00081E0C1FD84E0C0FD880FC2FD82950E94B5
:104CB000B708DF91CF911F910F9108951091B20520
:104CC000141333C08091B0059091B105D6D2883CC1
:104CD000910558F5CD2FC05E1D17C1F0812F805E64
:104CE000883048F481E011FD84E010FD880F12FD4A
:104CF00082950E94BC08C83048F481E0D1FD84E070
:104D0000D0FD880FD2FD82950E94B708802F0E94A7
:104D1000B00881E0D1FD84E0D0FD880FD2FD8295FE
:104D2000C83038F60E94BC08C4CF8C2F805E883013
:104D300008F0BFCF81E0C1FD84E0C0FD880FC2FD57
:104D40008295F0CF0F93FC01CB01E851FC47E7308F
:104D5000F10588F5EA5BFC4C0C940F3206E221EE7B
:104D600041EE6AE17CE787DF80E00F91089507E27A
:104D700025EE45EE6BE17CE7F6CF06E221EE40EE54
:104D800068E17CE7F0CF07E225EE44EE69E17CE7DD
:104D9000EACF06E221EE42EE6CE17CE7E4CF07E2E7
:104DA00025EE46EE6DE17CE7DECF08E221E045EE40
:104DB0006EE17CE7D8CFFB01858181111092B205AD
:104DC00081E0D3CF8093B7059093B80508950895F7
:104DD0000895E8D1982F81E0913009F080E008959E
:104DE000E091B705F091B805309739F00190F08166
:104DF000E02D309711F00995089580E00895F0CFE7
:104E00000895E091B705F091B805309731F0028030
:104E1000F381E02D309709F009950895E091B705E9
:104E2000F091B805309759F024813581232B39F062
:104E300026E0DC012C930480F581E02D099508958E
:104E4000E091B705F091B805309731F00680F78111
:104E5000E02D309709F009950895A3E0B0E0E3E371
:104E6000F7E20C9425322091B5053091B60528174C
:104E70003907B1F08093B5059093B605E091B70579
:104E8000F091B805309761F00084F185E02D3097FE
:104E900039F023E029838A839B83CE01019609950B
:104EA0002396E2E00C944132A3E0B0E0EAE5F7E2B9
:104EB0000C9425322091B3053091B4052817390799
:104EC000B1F08093B3059093B405E091B705F091EC
:104ED000B805309761F00084F185E02D309739F006
:104EE00024E029838A839B83CE010196099523962A
:104EF000E2E00C944132CF93DF93C091E801D0916E
:104F0000E90167DF811521F08091E20587FD11C07D
:104F10009E012E5F3F4F96E080E09150F901408165
:104F20002F5F3F4F41118F5F9111F7CFDF91CF91ED
:104F300008952091E6013091E7012E5F3F4F9EE1F9
:104F4000EBCFCF93C82F811102C080E02EC041DF8C
:104F5000811521F08091E20587FD0FC08091E80165
:104F60009091E901FC013296089620812C17F9F006
:104F70003196E817F907C9F7E8CF8C2F8695869503
:104F80008695C03F10F7E091E601F091E701E80F48
:104F9000F11D228130E0C77081E001C0880FCA9501
:104FA000EAF7282381E0232B81F2CF91089581E055
:104FB000FCCF9C01FC01329680E09FEF40814617B8
:104FC00059F031969F3F19F4411101C0982F8F5F1E
:104FD0008630A1F79F3F09F40895290F311D97FDF1
:104FE0003A95F90162830895FC0132960896219161
:104FF000261302C0DF011E92E817F907C1F70895D2
:10500000262F269526952695603F60F4820F911DE8
:10501000FC01677021E001C0220F6A95EAF78281E6
:10502000822B82830895262F269526952695603F0C
:1050300068F4820F911DFC019DEF61FD97EF60FF09
:10504000959562FD92958281892382830895CF93FD
:10505000C82FBFDE6C2F811559F08091E20587FFC4
:1050600007C08091E6019091E701CADFCF910895D2
:105070008091E8019091E9019CDFF8CFCF93C82F90
:10508000A8DE6C2F811559F08091E20587FF07C0DB
:105090008091E6019091E701C6DFCF91089580915C
:1050A000E8019091E901A0DFF8CF93DE811571F05E
:1050B0008091E20587FF0AC0E091E601F091E701E7
:1050C00032968EE111928A95E9F70895E091E80110
:1050D000F091E901329686E0F5CFDC01FB019C916D
:1050E0008081981322C011968C911197811519F027
:1050F000918189131AC012968C911297811519F01B
:105100009281891312C014968C911497811519F00D
:10511000948189130AC013969C91911521F081E026
:105120002381291303C080E001C081E081700895CC
:105130000895FECF08958F5F809300026091FD0176
:105140007091FE018091FF0190910002F2CF83E007
:10515000809300026091FD017091FE018091FF013A
:1051600090910002E6CFE7CF089581E0809300029E
:105170006091FD017091FE018091FF01909100020C
:10518000D8CFF3CF089591E0811101C090E09093C2
:10519000FF016091FD017091FE018091FF019091EE
:1051A0000002C7CF8091FF0108958093FE016091B6
:1051B000FD017091FE018091FF0190910002B9CF35
:1051C0008091FE0108958093FD016091FD01709131
:1051D000FE018091FF0190910002ABCF8091FD0113
:1051E000089508950895FECF08950895FACF08957B
:1051F0000F931F93CF93DF930E9447050E94DA130A
:10520000F4DF09EB15E0C0E0D0E08C2F0E94C21360
:10521000F80181938F0191E0811101C090E0D92BB9
:10522000CF5FCE3091F78D2FDF91CF911F910F91EE
:105230000895E82FF0E0E754FA4F808190E021E0F4
:1052400030E002C0220F331F6A95E2F7282339238A
:1052500081E0232B09F480E0089541110DC0E82F6F
:10526000F0E0E754FA4F21E001C0220F6A95EAF717
:1052700020958081282320830895CF93DF93EC012C
:105280007DD08C1B9D0BDF91CF910895EF92FF9203
:105290000F931F937B018C017DD09701A801621BA6
:1052A000730B840B950B1F910F91FF90EF90089556
:1052B00085B7806885BF85B7806885BF08951F92D0
:1052C0001FB61F9211248F939F93AF93BF9380912A
:1052D000C705811113C080910C0690910D06A09115
:1052E0000E06B0910F064196A11DB11D80930C06CC
:1052F00090930D06A0930E06B0930F06BF91AF9149
:105300009F918F911F901FBE1F901895809114063A
:10531000843031F10E9443071092C70588E190E084
:1053200020E40FB6F894A895809360000FBE2093F8
:10533000600083B7817F846083BF83B7816083BF50
:105340007894889583B78E7F83BF0FB6F894A8951D
:1053500080916000886180936000109260000FBEB1
:1053600008950E94C70A0C944C0782E084BD93E024
:1053700095BD9AEF97BD80936E0008952FB7F8946E
:1053800080910C0690910D06A0910E06B0910F062B
:105390002FBF08952FB7F89460910C0670910D06F9
:1053A00080910E0690910F062FBF089578941F925A
:1053B0001FB61F9211248F939F93AF93BF93809139
:1053C0000C0690910D06A0910E06B0910F06019665
:1053D000A11DB11D80930C0690930D06A0930E069F
:1053E000B0930F06BF91AF919F918F911F901FBEF9
:1053F0001F901895F89481E08093E00080E28093FC
:10540000D800E9ECF0E010828FE19EE40197F1F71B
:1054100000C000001DBA109268001CBC10BE1FBA6C
:1054200010927A0010926E0010926F00109271002C
:10543000109272001082ECEB108214B817B81AB8F0
:105440001DB810BA108215B818B81BB81EB811BA1A
:105450000C94003F089588E19AE00FB6F894A8955F
:10546000809360000FBE90936000FFCFEF92FF9299
:105470001F93CF93DF93182FEB011092BC0084EAA7
:105480008093BC007BDF7C018091BC0087FF25C03E
:105490008091B900887F883029F08091B900887F99
:1054A000803171F51093BB0084E88093BC0066DF07
:1054B0007C018091BC0087FF1DC02091B900287F2E
:1054C00080E090E0283181F081E090E0203409F420
:1054D00080E091958195910907C0C701CEDEC8177C
:1054E000D90790F68EEF9FEFDF91CF911F91FF903C
:1054F000EF900895C701C1DEC817D907D0F6F2CFE3
:105500008FEF9FEFF1CF1092B9008CE08093B8003D
:1055100008950F931F93CF93DF93EB018093BB000C
:1055200084E88093BC002ADF8C018091BC0087FF57
:1055300010C02091B900287F81E090E0283209F462
:1055400080E0919581959109DF91CF911F910F9105
:105550000895CF3FDC0749F3C8018FDEC817D9078C
:1055600020F78EEF9FEFF0CF0F931F93CF93DF9332
:10557000EC0184EC8093BC0001DF8C018091BC00C5
:1055800087FF08C08091BB0090E0DF91CF911F9111
:105590000F910895CF3FDC0789F3C8016EDEC8176D
:1055A000D90760F78EEF9FEFF0CF0F931F93CF9344
:1055B000DF93EC0184E88093BC00E0DE8C018091F5
:1055C000BC0087FF08C08091BB0090E0DF91CF91C5
:1055D0001F910F910895CF3FDC0789F3C8014DDE7D
:1055E000C817D90760F78EEF9FEFF0CF6F927F92C9
:1055F0009F92AF92BF92CF92DF92EF92FF920F9362
:105600001F93CF93DF937B015A0189018160982E0C
:10561000B5DE3C010431110578F10F3F100781F12F
:10562000C80164E170E0D4D66B01B601892D1EDF9C
:10563000EC01892B41F5C12CD12C81E0A81AB108CD
:10564000CA14DB04B0F5D7FF27C084E98093BC00FF
:10565000CE011C161D0614F480E090E0DF91CF917E
:105660001F910F91FF90EF90DF90CF90BF90AF9080
:105670009F907F906F900895CC24C394D12CD5CF68
:1056800085E0C82EFBCF0F3F100779F2C301F5DD8F
:105690000817190750F6CFCFC80166DFEC0197FD58
:1056A00004C0F701EC0DFD1D80838FEFC81AD80AE6
:1056B000C7CFD7FDCACFC80178DFEC0197FD05C081
:1056C000EA0CFB1CF7018083C0CFCEEFDFEFBDCF2C
:1056D000A0E0B0E0EDE6FBE2ACC6982E862E742E7C
:1056E000652E6901E8014ADE5C010431110500F113
:1056F0000F3F100709F1C80164E170E069D6F62E8A
:10570000E72E6F2D7E2D892DB1DE8C01892BB9F00E
:10571000CF3FDC07B1F3C501B0DDC817D90788F763
:1057200084E98093BC00C801CDB7DEB7EEE09DC62A
:10573000FF24F394E12CE5CF85E0F82EFBCFBE01EA
:10574000882DE7DE8C01E72CF62CCE0CDF1CEC1448
:10575000FD0431F30115110519F7BE01F70181911F
:105760007F01D7DE8C01F3CF9B01BA019091140623
:105770009430D9F48F708093E9009FEF8091E80016
:1057800085FD06C085ED8A95F1F700009150B1F7CF
:105790008091E80085FF09C040E050E0C901BDD11B
:1057A0008091E8008E778093E800089543E050E010
:1057B000BC0183E0D9CF45E050E0BC0182E0D4CF0A
:1057C00040E250E0BC0183E0CFCFCF93DF93EC0108
:1057D000E9DC48E050E0BE0181E0C6DF88E0FE0180
:1057E000A8ECB5E001900D928A95E1F7DF91CF9199
:1057F000089580911306811107C01DD36DD3809148
:10580000E20084608093E2000895109213060895E8
:10581000ACDC81E0B8CC6091100681E0611101C080
:1058200080E095CC9091140681E0943009F080E0FE
:105830006091100698CC42E061EC81E078D242E1C0
:1058400061EC82E074D242E261EC83E070D290912C
:10585000140681E0943009F080E0609110066BCC72
:1058600080911606893081F148F4823009F497C09E
:10587000833009F458C0813041F008958A3009F42A
:1058800081C08B3009F469C0089580911506813A72
:1058900009F048C08091E800877F8093E8008091FC
:1058A000190690911A06892B59F060E080E090E08B
:1058B00070E080D18091E8008B778093E8000895B4
:1058C00068E088EC95E0F4CF80911506813251F5BF
:1058D0008091190690911A068D7F892B19F5809178
:1058E000E800877F8093E8008091E80082FF16C07F
:1058F0002091F3008091F200922F029731F4809171
:10590000F100813011F0863019F48091F1004DDC06
:105910008091E8008B778093E8003DC28091140667
:105920008111E2CF089580911506813AD9F78091CF
:10593000190690911A06892BA9F78091E800877FB4
:105940008093E8008091E80080FFFCCF2BDC8093FF
:10595000F1008091E8008E77DECF809115068132CC
:1059600009F78091190690911A06892BD9F6809132
:10597000E800877F8093E8000ED28091170603DC51
:105980000C94C70A80911506813261F68091E80077
:10599000877F8093E800FFD18091180614CC809116
:1059A0001506813A09F0BECF8091E800877F809389
:1059B000E8008091E80080FFFCCF10DCC8CF84B7FE
:1059C000877F84BF0FB6F894A895809160008861A6
:1059D00080936000109260000FBE80E890E00FB6E8
:1059E000F89480936100909361000FBECACB23D2DC
:1059F00073D2E2EEF0E08081846080837894CFC43B
:105A000081E092E0DFC980911406853029F480910D
:105A10001406853011F0A5CC089578DCE9DB8115FA
:105A2000B1F380911206811591F361D00E94C70AEB
:105A3000EECF08959A0140911B0650911C0600C0BC
:105A4000492F50E043305105D1F078F441305105F1
:105A500009F448C04230510571F484E590E044E512
:105A600057E0F90140835183089541325105E9F02F
:105A70004232510539F180E090E040E0F2CF482F0A
:105A800050E0813061F04230510561F0E0E5F7E02F
:105A90004115510581F7849190E0AF01E2CFE6E234
:105AA000F7E0F9CFE4E0F7E0F6CF6330710518F7DF
:105AB000660F771FFB01E956FD4F4081518189E058
:105AC00090E0CFCF63307105B0F6FB01EE0FFF1F02
:105AD000EF56FD4F4081518162577D4FFB01808120
