:100000000C9457040C9474040C9474040C947404AD
:100010000C9474040C9474040C9474040C94740480
:100020000C9474040C9474040C94C7300C949B319D
:100030000C94A42B0C9474040C9474040C94740409
:100040000C9474040C9474040C9474040C94740450
:100050000C9474040C94472C0C9474040C94740445
:100060000C9474040C9474040C9474040C94740430
:100070000C9474040C9474040C9474040C94740420
:100080000C9474040C9474040C9474040C94740410
:100090000C9474040C9474040C9474040C94740400
:1000A0000C9474040C9474040C947404004434543C
:1000B00000746484005545650085759500362646B4
:1000C00000665676009686A6003727470077678732
:1000D00000382848008878980039294900695979FA
:1000E000009989A9003A2A4A006A5A7A003B2B4BA8
:1000F000006B5B7B004C3C5C007C6C8C005D4D6D50
:10010000008D7D9D003E2E4E006E5E7E0144345477
:10011000017464840155456501857595013626464F
:1001200001665676019686A60137274701776787CD
:100130000138284801887898013929490169597995
:10014000019989A9013A2A4A016A5A7A013B2B4B43
:10015000016B5B7B014C3C5C017C6C8C015D4D6DEB
:10016000018D7D9D013E2E4E016E5E7E00003500AC
:1001700029212F22E00000001E00140004221D216E
:10018000E30000001F001A2816001B0050002B423D
:1001900020000800070006464F002C4321001500F0
:1001A000094419414C242800220017000A000500C8
:1001B000000000000000260200002D0000000000EA
:1001C0000000270200002E000000000023001C0099
:1001D0000B00110000000000240018000D00104664
:1001E0004C34000025000C000E003600520028435D
:1001F000260012380F00370051002A422700130052
:1002000033323831007C00002D003100343130327F
:10021000E4000000000000000000000000000000FA
:1002200000000000000000000000000000000000CE
:1002300000004C000000E000000049000000000049
:100240000000E200000000000000000000000000CC
:10025000000000000000000000000000000000009E
:10026000000000000000000000000000000000008E
:100270000000000000004A0050004D000000000097
:1002800000004B0051004E00000000000000000084
:10029000520000000000E60000004A004F004D0040
:1002A0000000E4000000000000000000000000006A
:1002B000000000000000000000000000000000003E
:1002C0000000000000000000000000001E0200000E
:1002D00000000000000000001F02000000002B00D2
:1002E000000000002002000000002C0000000000C0
:1002F00021020000000000000000000022020000B7
:1003000000000000000000000000000000000000ED
:1003100000000000000000000000000000003502A6
:1003200023023500000000000000310224023100E9
:100330000000000000003402250234000000280004
:1003400000002F0226022F0000002A0000003002C9
:100350002702300000000000000000000000000044
:100360000000000046000000000000000000000047
:100370003A00277828780000000000003B00297828
:100380002A78000000002B003C0021782278000031
:1003900000002C003D00000000000000E200000012
:1003A0003E00000053000000000000004700000075
:1003B00000000000000000005300000000000000EA
:1003C000000000003F0057002E0055000000000014
:1003D00040005F005C0059006300000041006000C5
:1003E0005D005A0062002800420061005E005B0070
:1003F00063002A00430056002E0054000000000055
:1004000044000000000000000000000000000000A8
:1004100000000000000000000000000000000000DC
:1004200000000000000000000000000000000000CC
:1004300000000000000000000000000000000000BC
:1004400000000000000000000000000000000000AC
:10045000000000000000000000000000000000009C
:10046000000000000000000000000000000000008C
:100470000000000000000000000040003D003A00C5
:1004800000000000000041003E003B0000000000B2
:10049000000042003F003C0000000000000043005C
:1004A00044004500000000000000000000000000C3
:1004B0000000000029000000E000E100E000000072
:1004C0001E00140004001D00000000001F001A00A0
:1004D00016001B0050002B0020000800070006003B
:1004E0004F002C002100150009001900E200000057
:1004F000220017000A00050000000000000026028C
:1005000000002D000000E3000000270200002E0084
:100510000000000023001C000B0011000000000080
:10052000240018000D0010004C00000025000C00F5
:100530000E00360052002800260012000F0037007F
:1005400051002A002700130033003800000000008B
:100550002D00005234003000E400000000000000D4
:1005600000000000000000000000A80000000000E3
:10057000000000000000AA00AD0000000000D30051
:100580000000A900AC0000000000D1000000000045
:10059000AB0000000000000000000000AE00000002
:1005A000000000000000000000000000000000004B
:1005B00000000000000000000000000000000552E4
:1005C000CF0000000000000000000000CE0000008E
:1005D000000000000000D900CD00DA000000D200C9
:1005E00000000000D00000000000D3000000000068
:1005F00000000000000000000000000000000000FB
:1006000000000000000101010101010101010202DD
:1006100002020202020202030303030303030304B0
:10062000040404040404050505050506060606067B
:10063000070707070708080808090909090A0A0A35
:100640000B0B0B0C0C0C0D0D0D0E0E0E0F0F0F10D7
:100650001011111112121313141415151616171761
:10066000181819191A1A1B1B1C1D1D1E1E1F2020CD
:10067000212222232424252626272829292A2B2C17
:100680002D2D2E2F30313232333435363738393A3A
:100690003B3C3D3E3F404142434445464748494A32
:1006A0004C4D4E4F50515354555658595A5B5D5E00
:1006B0005F616264656668696B6C6D6F707273759B
:1006C00077787A7B7D7E8082838587888A8C8E8FFF
:1006D00091939596989A9C9EA0A2A3A5A7A9ABAD2D
:1006E000AFB1B3B5B7BABCBEC0C2C4C6C9CBCDCF1B
:1006F000D1D4D6D8DBDDDFE2E4E7E9EBEEF0F3F5C9
:10070000F8FAFDFF20034500720067006F00440007
:100710006F007800200045005A00200047006C0060
:100720006F007700000028035A00530041002000AA
:1007300054006500630068006E006F006C006F007D
:100740006700790020004C00610062007300000027
:100750000403090409025400030100A0FA0904007B
:1007600000010301010009211101000122400007DD
:1007700005810308000109040100010301020009C9
:100780002111010001224700070582030800010929
:100790000402000103000000092111010001226D83
:1007A0000007058303200001120100020000000879
:1007B0009732764901000102000105010980A1017B
:1007C000850319012AB700150126B7009501751098
:1007D0008100C0050C0901A101850419012AA002AC
:1007E000150126A002950175108100C005010906BA
:1007F000A1018506050719E029E7150025019508DF
:10080000750181020507190029EF1500250195F0F2
:1008100075018102050819012905950575019102E7
:10082000950175039101C005010902A1010901A10A
:100830000005091901290815002501950875018190
:10084000020501093009311581257F95027508815E
:100850000609381581257F950175088106050C0A62
:1008600038021581257F950175088106C0C00501F4
:100870000906A101050719E029E7150025019508DA
:10088000750181029501750881010507190029FF8D
:10089000150026FF00950675088100050819012935
:1008A00005950575019102950175039101C011240B
:1008B0001FBECFEFDAE0DEBFCDBF12E0A0E0B1E0B7
:1008C000EAE6FBE602C005900D92AA39B107D9F716
:1008D00026E0AAE9B2E001C01D92A032B207E1F71A
:1008E0000E94D1150C9440350C9400008098889A91
:1008F0008198899A84988C9A85988D9A86988E9AF0
:1009000087988F9A08952098289821982998229856
:100910002A9823982B9852985A9853985B983E9807
:1009200046980895CF93C82F873078F58091EA01D3
:100930009091EB01892B39F564E670E080E40E9428
:100940002C299093EB018093EA01892BD1F464E682
:1009500070E082E10E9498299093EB018093EA0174
:10096000892B79F481E090E001C0880FCA95EAF7FD
:1009700064E670E080950E9498299093EB01809343
:10098000EA010E940A2ACF9108958A30B1F038F422
:10099000883069F0893071F0209A2898F4CF8C3033
:1009A00091F070F08D30C1F73E9A4698ECCF219AC5
:1009B0002998E9CF229A2A98E6CF239A2B98E3CF59
:1009C000529A5A98E0CF539A5B98DDCFCF938730F5
:1009D00050F58091EA019091EB01C0E0892B71F410
:1009E00064E670E081E40E942C299093EB018093EF
:1009F000EA01892B31F0C0E00E940A2A8C2FCF91A6
:100A0000089584E690E00E94C62997FF05C0909360
:100A1000EB018093EA01EFCFC82FC0951092EB0154
:100A20001092EA01E9CFCFB18FB1869586958C738C
:100A3000C3708C2BC82FC095E1CF0E94320690E086
:100A40009093EB018093EA010E9483040E94760454
:100A50000895EF92FF920F931F93CF93DF938091AE
:100A6000EA019091EB01892BA1F080919C028F5FAC
:100A700080939C0281110DC00E94320690E09093F9
:100A8000EB018093EA01892B21F40E94BC050E94AE
:100A9000FA230FEA14E0C0E0D0E087E0E82EEC0E85
:100AA0008C2F0E9492048E2D0E9492048C2F0E9403
:100AB000E6048F73F80191918F01F12C891721F0D1
:100AC00031978083FF24F3948E2D0E94E6048F7368
:100AD000F8019681891779F0868381E08F29D82BD8
:100AE0000E948304CF5FC730C1F68D2FCDB7DEB72C
:100AF000E6E00C94983380E0F1CF0E94320690E05B
:100B00009093EB018093EA010E9483040E94760493
:100B1000EDEBF4E0119284E0EB3CF807D9F708958F
:100B2000259A2D9A0895269A2E9A0895279A2F9AF3
:100B3000089556985E98089525982D9808952698BA
:100B40002E98089527982F9808950E9499050E943D
:100B50009C050E949F050E94A205089590E0909335
:100B600089008093880090938B0080938A009093F3
:100B70008D0080938C0008950E94A5058FEF0E9440
:100B8000AE050E9490052FEF80E792E02150804053
:100B90009040E1F700C000000E9493052FEF80E72E
:100BA00092E0215080409040E1F700C000000E9498
:100BB00096052FEF80E792E0215080409040E1F7CA
:100BC00000C000000E949C052FEF80E792E02150BA
:100BD00080409040E1F700C000000E949F052FEF89
:100BE00080E792E0215080409040E1F700C0000093
:100BF0000E94A2050E94A505089589EA80938000BD
:100C000089E08093810024982C983F988AB18F7C4A
:100C10008AB96E98479A8BB180638BB9769A0E9495
:100C200062116093A9047093AA048093AB0490931B
:100C3000AC0467702FEF629FC001112495958795D2
:100C4000959587950E94AE058091A90484FF08C000
:100C50008FEF0E941F250E94BC050E94F214089588
:100C600080E0F7CF80E290E09093EB018093EA017F
:100C700080919D0281110EC00E94262981E08093FF
:100C80009D022FEF83ED90E3215080409040E1F7EB
:100C900000C0000064E670E080E40E942C2990937C
:100CA000EB018093EA01892B09F04EC064E670E005
:100CB00080E00E9498299093EB018093EA01892BB0
:100CC00009F042C064E670E080E00E9498299093A9
:100CD000EB018093EA01892BB9F564E670E08FE3BC
:100CE0000E9498299093EB018093EA01892B61F58A
:100CF0000E940A2A64E670E080E40E942C29909306
:100D0000EB018093EA01892BF9F464E670E08CE052
:100D10000E9498299093EB018093EA01892BA1F41A
:100D200064E670E080E00E9498299093EB01809344
:100D3000EA01892B49F464E670E08FE30E94982968
:100D40009093EB018093EA010E940A2A8091EA01C4
:100D500008951092A9041092AA041092AB04109264
:100D6000AC0484E080618093A9046091A90470912F
:100D7000AA048091AB049091AC040E9467110E9478
:100D8000751108950E94F31408958730B8F46E30F9
:100D9000A8F4463098F450E096E0699F400D511D4C
:100DA0001124FA0194E5899FE00DF11D1124EE0F45
:100DB000FF1FE459FE4F85919491089581E090E0E2
:100DC00008950E94C506089581E008950E94E406F2
:100DD000089581E008950E94E40608950E94EB06BC
:100DE000089508950E94F1060895A6E0B0E0EBEFA3
:100DF000F6E00C947F3349835A839E833091A3029B
:100E000089819A8131111AC03E81332399F02223BE
:100E100089F00E94FD0C182F682F89819A810E9409
:100E2000D90C69817A81812F0E94DB132696E3E039
:100E30000C949B330E94EB0C182FF3CF0E94FD0CF7
:100E400069817A81F1CFFC01262F40815181628135
:100E50007381848195810E94F5060895CF93DF9375
:100E6000EC0161E00E942307BE010E94E606DF91CB
:100E7000CF910895CF93DF93EC0160E00E942307A8
:100E8000BE010E94F206DF91CF91089508950E945D
:100E9000AE0B0E9446072FEF84E39CE02150804078
:100EA0009040E1F700C0000008950E9447070E94AB
:100EB0006B2C08950E9447070E949D2C08950F9364
:100EC0001F93CF93DF938C0161E00E942307EC0115
:100ED000B8010E94EE06811106C080E0DF91CF913B
:100EE0001F910F910895B801CE010E94E228882336
:100EF000A1F3B801CE010E947827882371F3B801CD
:100F0000CE010E945428882341F3B801CE010E94EB
:100F10001B27882311F3F8018581882361F0C330F2
:100F2000FCE7DF07E9F058F4C115ECE7DE07A9F0AC
:100F3000C130DC47B9F0C8010E94E906CFCFCB35FC
:100F40008CE7D807A9F0CC35ECE7DE0771F0CA359D
:100F5000DC4789F70E943311EECF0E945507BDCFC1
:100F60000E943B110E945A07B8CF0E942911E3CF7B
:100F70000E943711E0CF0E94822B0E949A230E9488
:100F8000EA0781E00E941B2408950E94EE0780E09A
:100F90000E941B240E94862B0895089581E00895E5
:100FA0000895CF93DF93D82F0E94CE07C82F8823B0
:100FB00019F08D2F0E94D0078C2FDF91CF910895CB
:100FC0000895CF93C82F0E94CD078C2F0E94D10780
:100FD000CF91089580E00E94E10708950E94182AA9
:100FE0000E94E1070895CF930E94182AC82F80918C
:100FF0009E028C1779F0C0939E020E94102C609381
:101000009F027093A0028093A1029093A2028C2F62
:101010000E94E107CF910895ADE0B0E0E2E1F8E091
:101020000C948033488759876A877B878C879D8794
:1010300091110E9461101F8286E0FE013896DE0148
:10104000119601900D928A95E1F78D8181110DC065
:1010500029813A814B815C816D817E818F810E94E3
:10106000940F2D96E2E00C949C33CE0101960E94E1
:101070002E078111EDCFF5CFFC012481213021F421
:10108000808191810E942F0D0895662329F00E948E
:1010900055160E94281708950E94AF16FACFCF93D5
:1010A000C82F8823C9F08238C9F40E94182A81FD0C
:1010B00013C089E30E9419100E949A102FEF87EE47
:1010C00093E0215080409040E1F700C0000089E3A8
:1010D0000E9421100E949A10CF9108958338A1F4A4
:1010E0000E94182A80FDF8CF83E50E9419100E9403
:1010F0009A102FEF81EE94E0215080409040E1F76C
:1011000000C0000083E5E4CF8438A1F40E94182ACF
:1011100082FDE2CF87E40E9419100E949A102FEFFF
:1011200081EE94E0215080409040E1F700C0000043
:1011300087E4CECF8CEF8C0F813A90F46C2F8091A6
:10114000EC019091ED010E94A82A882329F08C2FB0
:101150000E9421100E949A108C2F0E941910BACF61
:1011600080E28C0F883048F4C77081E001C0880F9E
:10117000CA95EAF70E944410ADCFEBE5EC0FE330DF
:1011800040F4F0E0E15CFD4F808190E00E944A2A4B
:10119000A3CFE8E5EC0FEB3150F4F0E0EE0FFF1FCA
:1011A000E75FFD4F808191810E946F2A95CF83E395
:1011B0008C0F833108F090CF61E08C2F0E9445089E
:1011C0008BCF882309F456C0823879F40E94182AFC
:1011D00081FF50C089E30E9419100E949A1089E390
:1011E0000E9421100E949A100895833859F40E9499
:1011F000182A80FF3FC083E50E9419100E949A10B0
:1012000083E5EECF843859F40E94182A82FF32C059
:1012100087E40E9419100E949A1087E4E1CF9CEFA6
:10122000980F913AE8F290E2980F983050F4877056
:1012300091E001C0990F8A95EAF7892F0E944A1020
:10124000D1CF9BE5980F933028F490E080E00E9486
:101250004A2A089598E5980F9B3128F490E080E0A1
:101260000E946F2A089593E3980F933118F460E079
:101270000E94450808951F93CF93DF93182FEB0129
:101280000E944F08209739F4812F0E94E108DF91D6
:10129000CF911F9108958FE99FE00197F1F700C06A
:1012A00000002197EFCF70E060E0893311F460E532
:1012B00070E00E943B090895882321F00E944410A9
:1012C0000E949A100895882321F00E944A100E94DB
:1012D0009A100895B0E0A0E0E0E7F9E00C947933CB
:1012E0006C01D62FC72FFC011581068102950F7066
:1012F0000E943A10E82E8823E9F0E12E1123D1F064
:101300008C2F807F803451F080E28D0F8830F8F090
:10131000011104C08C2F807E8032C9F08091AE0410
:1013200082FF15C082E00E94FD100E943A1091E0F9
:10133000E82EE926BC2EB2949FE0B922FBE0FB1513
:10134000B8F1EB2DF0E0EE5BFA4C0C946A33E12C33
:10135000F1CF0C2F0F70C07F11F00295007F112389
:1013600099F0002359F080E28D0F883010F0D111F0
:1013700007C0802F0E9444100E949A108D2F5AC0DF
:10138000802F0E945410F8CF8D2F0E94E108002377
:1013900079F080E28D0F883010F0D11104C0802FD9
:1013A0000E944A1003C0802F0E945A100E949A1077
:1013B000EB2DE850FF0B349720F40E94182A0E946E
:1013C000E107EE2089F00E94361080FD0DC0F60185
:1013D00015820E9430100E94370CC6010E94750BC6
:1013E0000E9430100E94470CCDB7DEB7E9E00C94A4
:1013F00095332C2F2F70F22EC07FC03219F0F2944B
:1014000080EFF822DD2341F0D130D1F1112309F42E
:1014100043C00023F1F0B2CF8091AE0482FD15C02D
:10142000112359F0FF2029F08F2D0E9444100E94B3
:101430009A1080E00E944F08BBCF80E00E94E10834
:10144000FF2009F4B5CF8F2DABCF112369F0011127
:1014500004C08F2D0E945C09ABCF013009F0A8CFEA
:101460008F2D0E947810A4CF0111A2CF8F2D0E9442
:1014700063098F2D0E9484108F2D0E94681098CFD1
:10148000112321F0023008F093CFE3CF011190CF68
:101490008F2D0E9463098CCF0023D1F3D93349F4F7
:1014A0003FEF87EE93E0315080409040E1F700C07D
:1014B00000008D2F0E94E1087BCF8C2F86958695AA
:1014C000837069F0813009F073CF8D2F9C2F93705A
:1014D000111102C080E090E00E946F2A69CF8D2F29
:1014E0009C2F9370111102C080E090E00E944A2A64
:1014F0005FCF612F8D2F0E9445085ACF8C2F8370AC
:10150000A1F5111155CF4D2F429546954770440FC7
:10151000440F2D2F2F7030E0042E02C0220F331FF6
:101520000A94E2F790E080E0D4FF09C08FE090E0F9
:1015300002C0880F991F4A95E2F780959095C6954D
:10154000C695C370822B932BC23049F058F4C1303A
:1015500019F00E94070C2CCF0E94FE0B29CF0E948D
:10156000100C26CF0E94FB0B23CF8695112311F080
:101570008C2F8170882309F41BCF4D2F42954695FF
:101580004770440F440F2D2F2F7030E0042E02C0FF
:10159000220F331F0A94E2F790E080E0D4FF09C0E5
:1015A0008FE090E002C0880F991F4A95E2F780957E
:1015B0009095C695C695C370822B932BC23049F087
:1015C00058F4C13019F00E94720CF2CE0E94690CDE
:1015D000EFCE0E947B0CECCE0E941F0CE9CECF70A8
:1015E000112329F08C2F0E94370C8D2F33CF8D2F94
:1015F0000E9463098C2F0E94470CDACED23F39F14A
:1016000060F4D03FB9F0D13F81F0112309F445C017
:101610000111B4CE8C2F8F711EC0D33FF9F0D43F8F
:10162000A1F78091AE0482FD23C08C2F8F7111230E
:1016300011F311C0112339F00111BACE8C2F8F7123
:101640000E94590CB5CE023008F0B2CEF7CF8C2FE5
:101650008F711111D0CF0E94370CAACE112329F01F
:101660008C2F8F710E942B0CA3CE0E94260CA0CE33
:10167000112349F0CF718C2F0E94370C63E08C2F1F
:101680000E94DF1095CE81E00E94FD10023008F428
:101690008FCE82E00E94FD108BCE002359F0D9330B
:1016A00009F007CFEFEFF7EE23E0E150F0402040E4
:1016B000E1F7FDCE8C2F8F719ECF0F931F93CF93A9
:1016C000DF93EC01688179818D810E943A0D8C0154
:1016D0000E94840C0E94FA0BB801CE010E946A0994
:1016E000DF91CF911F910F910895CF93DF93EC017C
:1016F0008C81882399F0CE010E945F07811111C06F
:101700000E943A10882351F08D81882339F080910E
:10171000AE0482FF03C082E00E94FD10DF91CF91F2
:101720000895CE010E945D0BCE010E943A07F6CFCC
:1017300090E080E00E944A2A90E080E00E946F2AB8
:101740000E9461100E949A100E9444170E9428175C
:1017500008950E9429100E94980B08950E9451102C
:101760000E94A90B089592959F70963091F058F4BD
:10177000925F9F70923058F4803F19F030F4883EA9
:1017800030F481E008959A5FF4CF843FD1F380E094
:101790000895883EB0F3813FD1F7F3CFFC01248157
:1017A000222339F0808191810E942F0D0E94B30B7A
:1017B000089580E00895A6E0B0E0E1EEFBE00C942F
:1017C00080332696E2E00C949C33A7E0B0E0EBEE89
:1017D000FBE00C9480332796E2E00C949C33089550
:1017E0000E94EF0B08950E94F00B9093D302809318
:1017F000D202089508950E94F30B08952091D20219
:101800003091D302822B932B0E94F30B08952091E9
:10181000D2023091D302822393230E94F30B0895C6
:101820002091D2023091D302822793270E94F30B9A
:1018300008950E94EF0B08950E94190C08950E94CC
:101840001C0C9093D1028093D002089590E080E028
:101850000E941F0C089521E030E0A90102C0440F4E
:10186000551F8A95E2F7CA010E941F0C089521E0D6
:1018700030E002C0220F331F8A95E2F78091D00238
:101880009091D102822B932B0E941F0C089521E08E
:1018900030E002C0220F331F8A95E2F72095309581
:1018A0008091D0029091D102822393230E941F0C39
:1018B000089521E030E002C0220F331F8A95E2F73D
:1018C0008091D0029091D102822793270E941F0C11
:1018D00008952091D0023091D102822B932B0E9447
:1018E0001F0C08952091D0023091D10282239323BE
:1018F0000E941F0C08952091D0023091D1028227BE
:1019000093270E941F0C08950895262F277091E0B9
:1019100001C0990F2A95EAF723E0769567952A95F5
:10192000E1F7660F771F660F771FFA01E60FF71FC3
:1019300050E040E0682F70E08191DF0111979B013A
:10194000042E02C0369527950A94E2F7217021955E
:101950002827292328272C934F5F5F4F44305105B8
:1019600059F70895A82FA77023E0969587952A9593
:10197000E1F7880F991F880F991FFB01E80FF91FE6
:1019800050E040E080E0219130E00A2E02C0369520
:1019900027950A94E2F721703327042E01C0220F05
:1019A0000A94EAF7822B4F5F5F4F4430510559F795
:1019B0000895262F9E3070F4863060F4682F70E012
:1019C00086E0989F600D711D112444EA52E0822F39
:1019D0000E94850C0895292F9E3068F4863058F4B3
:1019E00090E064EA72E036E0239F800D911D11249F
:1019F0000E94B20C089580E00895B0E0A0E0E3E01A
:101A0000FDE00C9479337C010091D0021091D10259
:101A10008091D2029091D302082B192BCFE0D0E015
:101A2000CC24C394D12CBC2EC6010C2E02C0880F2E
:101A3000991F0A94E2F780239123892B49F4219777
:101A400090F7B12C8B2DCDB7DEB7E9E00C94953330
:101A5000B7018C2F0E94E713019789F3F3CFCF933F
:101A6000DF93EC010E94FD0CBE010E94E713DF91A1
:101A7000CF9108951F93CF93DF93EB019091A30231
:101A8000992339F0CB010E942F0DDF91CF911F9147
:101A90000895882369F0CB010E94FD0C182F682F50
:101AA000CE010E94D90CBE01812F0E94E713EDCF19
:101AB000CB010E94EB0C182FF6CF1F93CF93DF932F
:101AC000C091D40217E08091D5028C1304C0DF913D
:101AD000CF911F910895D0E01C9FF0011D9FF00D44
:101AE0001124EA52FD4F208131814281538164816A
:101AF000758186810E94E50B2196C770E4CF209105
:101B00000E0330910F034091100350911103609127
:101B1000120370911303809114030E94E50B089542
:101B2000CF93DF9380911403807F09F04DC08091A3
:101B30001303882309F448C0E091D4025091D502E0
:101B4000C0910F03D0910E036091100370911103A7
:101B500047E05E17C9F18E2F90E0E49FF001112459
:101B6000EA52FD4F2481222391F1489FF001499FC1
:101B7000F00D1124DF01AA52BD4F11962C9111973F
:101B80002C1325C02C912D1322C015962C9115973E
:101B900021111DC012962D913C91261B370B283C1C
:101BA0003105A8F4809114038F7080618093140331
:101BB000E452FD4F80818F70806180838EE093E0DE
:101BC0000E94750B0E945D0DDF91CF910895FC017D
:101BD0003196E770BECF482F2091D4029091D50264
:101BE00057E0291302C080E0089530E0529FF001D1
:101BF000539FF00D1124EA52FD4F8181681306C0F6
:101C00008081481303C085818111EECF2F5F3F4F44
:101C10002770E7CFA4E1B0E0E0E1FEE00C9476337A
:101C20008C0186E0F801DE011F9601900D928A95E5
:101C3000E1F7F8018481E5809EE0A92E93E0B92EBA
:101C40009091120391111FC08823D1F0EE20A9F0CA
:101C5000C8010E94CE0BF82E882379F087E0F801A6
:101C6000D50101900D928A95E1F7C5010E943C08CB
:101C70000E94900D0E947F0D5FC0C8010E94750BED
:101C8000FF24F39459C0C080D18082809380F0906B
:101C900013032091100330911103A401421B530B35
:101CA000FF2009F4F9C0483C510508F0A7C088237B
:101CB00009F442C090910F0380911403282F207FD4
:101CC00009F05CC09D1116C090910E03C91212C09C
:101CD000E1104EC08F708061809314030E947F0DCD
:101CE0008EE093E00E94750B80911403F8018683C7
:101CF000F12C22C0E1103CC06D2D8C2D0E94EB0D0B
:101D00006D2D8C2D0E94EB0DE82E8111F1CFCF8629
:101D1000D88A8F8598890E942F0D292F22952F70A0
:101D2000243078F49F702230A8F09923B9F0F8019C
:101D30009681907F99F4FE2C8F2D6496ECE00C94A4
:101D400092332A5F2F70223068F0C8010E94750B11
:101D5000EF2CF1CF992311F0882369F3805E88304E
:101D600050F3F3CF803F38F3815F833070F7E3CFD8
:101D700080911403816080931403BACF9D1113C026
:101D800090910E03C9120FC0E1100DC08683C801E7
:101D90000E94750B87E0F801AEE0B3E001900D9270
:101DA0008A95E1F767CFC8010E94CE0B882309F41A
:101DB00064CFEE2009F461CF80911403803288F063
:101DC00020910E0330910F03398728879B868A86DE
:101DD000909112039C871D868E87CE0108960E94E3
:101DE000750B87E0F801AEE0B3E001900D928A95A3
:101DF000E1F70E94900D0E947F0D42CF9091140355
:101E0000292F207FA1F4682D9A8A898AA6017A89D0
:101E10009E2D0E94DB0B8EE093E00E94750B87E005
:101E2000F50111928A95E9F70E947F0D61CF882311
:101E300009F482CF80910F038D1110C080910E03A1
:101E4000C8120CC0E1100AC09683C8010E94750B2D
:101E500087E0F50111928A95E9F76ECFC8010E94DB
:101E6000CE0B882309F409CFEE2009F406CF809128
:101E70001403803208F4B5CF20910E0330910F0384
:101E80003A8329839C828B82909112039D831E82C8
:101E90008F83CE010196A3CF483C5105B8F5882326
:101EA00009F4EECEFE2CEE2009F4E7CE80910F036C
:101EB0008D111EC080910E03C8121AC080911403A8
:101EC00080FD0DC0982F907F51F08683903F09F4DC
:101ED0005ECF982F907F905F8F70892B57CF87E0D0
:101EE000F801AEE0B3E001900D928A95E1F724CFBE
:101EF000C8010E94CE0B811174CF809114038160C0
:101F000080931403C8010E94750B16CF682D9A8A1E
:101F1000898AA6017A899E2D0E94DB0B87E0F50154
:101F200011928A95E9F7A6CEAEE0B0E0EAE9FFE0CB
:101F30000C947F33288739874A875B876C877D8736
:101F40008E87CE0108960E940A0E8823B1F06C8518
:101F5000662341F0288539854A855B857D858E8598
:101F60000E94E50B17E08091D4029091D50289136D
:101F70003DC02E96E3E00C949B3387E0FE0138963B
:101F8000DE01119601900D928A95E1F78C858823E8
:101F900049F32091D50230E0C90101968770992755
:101FA0004091D4024817190699F097E0929FD0010A
:101FB000939FB00D1124AA52BD4FFE01319601909E
:101FC0000D929A95E1F78093D5020E945D0DCACFDC
:101FD0000E94AE0B1092D5021092D40287E0EEE080
:101FE000F3E0DF011D928A95E9F7BCCF819FC00124
:101FF00011248A529D4F0E940A0E882309F4B9CFFA
:10200000E091D4021E9FF0011124EA52FD4F20817D
:102010003181428153816481758186810E94E50B03
:102020008091D40290E00196877099278093D40222
:102030009ACF682F8091EC019091ED010E94282B9E
:102040000895682F8091EC019091ED010E94362B4C
:1020500008958091EC019091ED010E94442B089528
:1020600080913503869586958695089580913503F0
:102070008770089590913503977081E009F480E0AE
:10208000089580915903089590915903892B809365
:10209000590308958095909159039823909359037B
:1020A000089510925903089590915803892B8093B5
:1020B000580308958095909158039823909358035E
:1020C000089510925803089508950E946410089589
:1020D00090913603292F282331F08095892380930E
:1020E00036030E946510089508950E9474100895A3
:1020F00090913703292F2823281729F0982B9093A4
:1021000037030E947510089590913703292F2823D3
:1021100031F080958923809337030E9475100895CC
:1021200080913703882329F01092370380E00E94C2
:1021300075100895CF93DF93E091EC01F091ED01DC
:10214000809159038083E091EC01F091ED01808151
:1021500090915803892B808390913703992381F0C4
:10216000E091EC01F091ED018081892B80838091D9
:10217000EC019091ED010E94942A81110E9490102F
:10218000C091EC01D091ED0140E250E065E173E0D7
:10219000CE010E94DB34892B59F080E2FE01A5E1DB
:1021A000B3E001900D928A95E1F7CE010E94252AB5
:1021B000DF91CF91089508950E94DB1008959091CA
:1021C000AE0492FF11C098E0899F90011124622B08
:1021D000609335030E94370C809135038695869570
:1021E00086950E94DC1008950E94370C0895109285
:1021F000350380E00E94DC100895909135038095AE
:10220000892380933503282F277069F4891759F0A3
:102210009091AE0492FF07C08695869586950E94A0
:10222000470C0E94F71008959091AE0492FB22276C
:1022300020F9281769F080FB92F99093AE04809101
:10224000AD049091AE040E945C1182E00E94FD10EA
:1022500008958091AE0482FB882780F991E0892758
:102260000E941411089581E00E941411089580E0E5
:102270000E94141108956FEF7FEF90E080E00E94BC
:102280003A35089590E080E00E94063521E0863ED0
:102290009E4F09F020E0822F089582E090E00E9496
:1022A000F834089583E090E00E94F834089584E0C3
:1022B00090E00E9406350895BC0184E090E00E9401
:1022C0003A3508958FE090E00E9400350895AB0103
:1022D000BC018FE090E00E942E350895AB01BC0157
:1022E00083E190E00E942E35089560E070E0CB011C
:1022F0000E946E110895A8E0B0E0E1E8F1E10C94CD
:10230000803366EE7EEF90E080E00E943A3560E038
:1023100082E090E00E941C3560E083E090E00E9443
:102320001C351092D3021092D20260E074E184E076
:1023300090E00E943A3560E086E090E00E941C3513
:102340006FEF87E090E00E941C3540E050E0BA015A
:1023500088E090E00E942E3560E084E290E00E94E8
:102360001C3560E087E190E00E941C3560E08CE065
:1023700090E00E941C3560E08DE090E00E941C35EA
:1023800019821A821B821C821D821E821F8218865D
:1023900048E050E068E170E0CE0101960E940C3503
:1023A00040E050E0BA0180E290E00E942E350E94A9
:1023B000A9062896E2E00C949C330E947B110895B4
:1023C000682F8EE090E00E941C350895A6E0B0E0F2
:1023D000ECEEF1E10C947E330E94042C8C01809190
:1023E0005A0390915B038017910781F019821A823A
:1023F0000E94042C682F49815A81792F80E090E057
:102400000E940C0810935B0300935A032696E4E0A5
:102410000C949A330E94102C60936E0370936F0398
:10242000809370039093710360936A0370936B03BE
:1024300080936C0390936D030895089508950E940E
:102440001E12089508950E942212089581E00895B1
:1024500081ED94E10E940E2A0E941D120E941F121B
:1024600008950E94261208950E9431120895089539
:1024700008950E9437120E94381208950E94D414C1
:102480000E94E0070E94FA2308950E94FB2B0E94FD
:10249000FB140E943E120E9423120895A6E0B0E0B1
:1024A000E4E5F2E10C9477330E94261281110CC00E
:1024B0000E94E6110E949A230E9466170E94F30769
:1024C0002696EBE00C9493330E940D158CE5A82E14
:1024D00083E0B82E750110E0F70101917F01812F93
:1024E0000E94F4141F5F1E3009F444C00817A1F3C2
:1024F0008091720381FD0E94FA140E943412982E7A
:1025000010E0812F0E94F414F82EF50181915F01F3
:10251000F81651F100E0EE24E394DF2CD8268D2D3F
:102520008E21D9F0CC24C3948F2D8E2109F4C12C97
:10253000992071F009831A830E94042C682F8B83E1
:102540009C8349815A81792F81E09C2D0E940C083F
:102550004C2D602F812F0E948F200F5FEE0C0630D4
:10256000F1F6F5013197F0821F5F1E3051F60E949F
:102570000A12A0CF0813BCCF9BCF1F93CF93DF933A
:102580000E94EC13EC01C11580E5D807F0F5C115E8
:1025900080E4D80708F09CC0C03ED10520F5CD3CB2
:1025A000D10508F082C0C83AD10578F4C53AD10502
:1025B00008F073C0C130D10519F1209709F1C4307A
:1025C000D105F0F4D0E0C0E01BC0C33CD105D0F78A
:1025D000C85AD0E0CC0FDD1FCE5BDD4F0990D8810B
:1025E000C02DD4640DC0C11580E2D80708F0D1C059
:1025F000C11581E0D80708F05AC0C83ED10510F7D0
:10260000CE01DF91CF911F910895C03682E5D807A2
:1026100018F5C03482E5D80708F06BC0C03282E5F7
:10262000D80708F05FC0C11582E5D80708F497C045
:102630002C2F2695269580E2289F900111248C2F1F
:102640008370C1E0D0E002C0CC0FDD1F8A95E2F7B5
:10265000C22BD32BDD68D4CFC03A82E5D80760F413
:10266000C03882E5D80708F459C0CF71D0E0DC2F1C
:10267000CC27C46FD06AC4CFC03C82E5D80708F429
:1026800062C0C03E82E5D80708F09CCFDC2FCC2783
:10269000CC27DF71C06FD06AB3CFC55AD0E0C8581D
:1026A000DD4FC881D0E0D064ABCFD065A9CF8D2FEE
:1026B0000E948E14182FCE0199270E94EC13C12F6F
:1026C000D0E0DC2FCC27CC27DF71C82BD92B98CFBB
:1026D000CE0199270E94EC13CC27DF70C82BD92B91
:1026E000D06A8ECFCF71D0E0DC2FCC27C16FD06AFB
:1026F00087CF2C2F26952695277080E2289F900162
:1027000011248C2F8370C1E0D0E002C0CC0FDD1FFC
:102710008A95E2F7C22BD32BDC6872CF2C2F26953B
:102720002695277080E2289F900111248C2F8370BA
:10273000C1E0D0E002C0CC0FDD1F8A95E2F7C22BCA
:10274000D32BDA685DCF8C2F8F710E948E14C82F27
:10275000D0E0DC2FCC27CC27DF71D06251CF8C2F7B
:102760008F710E948E1455E0D695C7955A95E1F762
:10277000CF70D0E0DC2FCC27282F30E084FF05C0BD
:1027800044E0220F331F4A95E1F7C22BD32BD069C7
:1027900037CF8D2F8F710E948E14182FCE0199275D
:1027A0000E94EC13C12FD0E0DC2FCC27CC27DF71A7
:1027B000C82BD92BD2CF462F7E3030F4663020F490
:1027C000672F0E94E106089590E080E008950E943E
:1027D000DB130E94BD12089582389105B9F1B0F45F
:1027E0008133910509F47DC048F48932910509F4DB
:1027F0006DC08A32910509F47BC008958533910537
:1028000009F45FC08933910509F10895833E91056C
:10281000D9F138F4803E910529F1823E910579F194
:102820000895863E9105D9F1873E910509F43EC091
:10283000843E910541F52091AE0421FF24C0809192
:10284000AD0484FD19C087EE90E008952091AD0499
:10285000237009F05AC02091AE0423FF14C089E20E
:1028600090E008952091AD0420FD38C03091AE0471
:1028700030FF09C024FF43C090E080E0089520911C
:10288000AD0422FDF7CF08952091AD0422FD3AC09A
:102890003091AE0430FD39C024FFF5CFEDCF20914B
:1028A000AD0423FFF0CF24FDE7CFCDCF2091AD04C1
:1028B00023FD2EC03091AE0431FFEECF84EE90E0C8
:1028C00008952091AD0425FFDECFC9CF2091AD043E
:1028D00025FD21C02091AE0423FFD5CF89E390E0F0
:1028E000D2CF2091AD0426FFCECF8AE290E00895AA
:1028F0002091AD0426FFC7CF81E390E0089583EED9
:1029000090E0089582EE90E0089580EE90E00895C2
:1029100086EE90E0089585E390E008959091AD04EF
:1029200092FF06C0282F28712830F9F4877F846031
:1029300093FF06C0282F28712831F1F4877E846127
:102940002091AE0420FF06C0382F38713830D9F4FA
:10295000877F816021FF06C0282F28712831D1F49C
:10296000877E816194FD877E0895282F247124300D
:10297000F9F68B7F8860DCCF282F2471243101F792
:102980008B7E8861DDCF382F3171313019F78E7F22
:102990008860E0CF282F2171213121F78E7E886158
:1029A000E1CF80E0089508950E944211811102C094
:1029B0000E94DD110E944D11809372030E945711F5
:1029C0009093AE048093AD040E94D3140E945211E0
:1029D00090E00E94FB0B8091D0029091D1020E9466
:1029E0001C0C089508950895E82FF0E0E354FB4F80
:1029F0008081089508950E941D05EFEAF4E0ADEB93
:102A0000B4E011921D9284E0ED3BF807D1F78EE01F
:102A10000E9420150E94FD050895CF938FEA94E04F
:102A20000E942905282F4EE06DEB74E08FEA94E0B8
:102A30000E943315C82F0E94C2068C2FCF91089593
:102A4000CF93C82F90E00E94A73380937703909391
:102A50007803282FFC018E2F821B8C1710F0CF914A
:102A600008951192F8CFB0E0A0E0E9E3F5E10C940D
:102A70007B33082FF92EE62ED72E142FC22F10925B
:102A80007303D0917403DD2309F452C00E94042C17
:102A90002091750330917603AC01421B530B9A01D0
:102AA00090937603809375034F3F510509F0C8F466
:102AB000452B99F01092740310927903409177039B
:102AC000E42FF091780390E030E08E2F841B811783
:102AD00058F03093740390937903C11137C0CD2F10
:102AE00029C02FEF30E0E6CF8081882321F028171E
:102AF00020F010829D2F3196E8CF821B80833D2FDE
:102B0000FACF8C913881381779F0308131110CC0AF
:102B1000508388832C918227292F30E0282B91E045
:102B2000232B09F490E021E03196219611961CC0E8
:102B3000211106C0809179038823F1F0C11106C0EC
:102B40000E94042C90937603809375034091770341
:102B50009091730320917403CE2DDD2DA02FBF2DF6
:102B6000E42FF09178035EE18E2F841B811748F2E9
:102B7000909373032093740380917303CDB7DEB7F2
:102B8000E7E00C9497330E94192E0E9445120E9490
:102B9000262E08950E942B2E0E944E120E94452E32
:102BA00008950E949D2B0E94FF2D0E9428120E94D2
:102BB000C3150E94CA150E943912FBCF8091810370
:102BC00080FF0DC06091F30170E0660F771F6038E1
:102BD000710570F56115710569F1862F089581FF02
:102BE00007C06091F30184E0689FB0011124EFCF2A
:102BF0006091F30182FD0AC0809180038823A9F0CF
:102C00002091F2016091F301821710F088E0ECCF7F
:102C1000869FC001112433E0880F991F3A95E1F790
:102C2000622F70E00E945633D2CF68E070E0D5CFBB
:102C30008FE7089581E008958091810380FF0CC0A3
:102C40006091EF0170E075956795759567956115D1
:102C5000710549F1862F089581FF06C06091EF014B
:102C600070E075956795F3CF6091EF0182FD0BC021
:102C700090917F039923A1F06091EE018091EF0183
:102C8000961738F0682F70E06038710500F38FE711
:102C90000895899FC001112470E00E945633F4CF3B
:102CA00061E070E0D7CF81E008958D3C31F40E945F
:102CB000DE1581958093840308958E3C19F40E945B
:102CC000DE15F8CF8F3C31F40E94DE15819580939C
:102CD00083030895803D19F40E94DE15F8CF893DE5
:102CE00029F40E941C168093850308958A3D21F4DF
:102CF0000E941C168195F7CF8B3D31F40E941C1663
:102D000081958093860308958C3D19F40E941C16CA
:102D1000F8CF9FE2980F983070F4815D990B21E015
:102D200030E001C0220F8A95EAF780918203822B5E
:102D30008093820308958D3D31F4809181038160F9
:102D40008093810308958E3D21F4809181038260F8
:102D5000F7CF8F3DB9F7809181038460F1CF409127
:102D600083038D3C59F48091840387FF0DC010923A
:102D7000840341110BC01092800308C08E3C81F483
:102D80008091840318169CF3442381F0809185037D
:102D900090918603892B09F05AC010927F03089501
:102DA0008F3C49F447FFF0CF109283038091840356
:102DB0008111ECCFE0CF803D19F41416ACF3E4CFD1
:102DC00090918503893D29F41916F4F61092850334
:102DD000DBCF8A3D19F497FFD7CFF8CF90918603C8
:102DE0008B3D29F497FFD0CF10928603CDCF8C3D39
:102DF00019F41916CCF3C8CF9FE2980F983090F4CD
:102E0000815D990B21E030E0B90102C0660F771FA8
:102E10008A95E2F7CB018095909182038923809374
:102E20008203B2CF8D3D31F4809181038E7F8093F8
:102E30008103AACF8E3D21F4809181038D7FF7CF4E
:102E40008F3D09F0A1CF809181038B7FF0CF089552
:102E50000E94042C9C019091830380918403982B01
:102E600021F030937E0320937D0390918503809120
:102E70008603982B21F030937C0320937B0382E818
:102E800093E00E943F2A089585E0E2E8F3E0DF0145
:102E90001D928A95E9F71092800310927F03109299
:102EA00081030895FC01818181110EC0828181110D
:102EB0000BC08381811108C091E08481811101C020
:102EC00090E0892F8170089581E0FCCFA5E0B0E00B
:102ED000ECE6F7E10C947F3385E0E2E8F3E0DE0115
:102EE000119601900D928A95E1F71092830310924A
:102EF000840310928503109286038A819B81892B1B
:102F000089F080917D0390917E030E941C2CAC017E
:102F1000909180039923C9F18091F40184171506DB
:102F200008F440C08C819D81892B91F080917B03B6
:102F300090917C030E941C2CAC0190917F039923FB
:102F400009F471C08091F0018417150608F479C066
:102F5000BE016F5F7F4F82E893E00E94562B811184
:102F600005C082E893E00E94521781110E94281741
:102F700085E0FE013196A2E8B3E001900D928A95BA
:102F8000E1F72596E3E00C949B3320917A038AE0E5
:102F9000289F900111242417350720F69F5F9093F6
:102FA000800302C09F3FD1F71A81112359F00E947C
:102FB000DE159FEF11160CF491E0899F802D1124EE
:102FC000809383031B81112359F00E94DE159FEF2C
:102FD00011160CF491E0899F802D112480938403B5
:102FE00030918303332309F49DCF2091840322235E
:102FF00009F498CF45EB3403C0011124992359F00B
:103000009093830345EB240390011124332339F07B
:103010003093840387CF81E080938303F3CF81E0F3
:10302000809384037FCF2091F1018AE0289F900153
:1030300011242417350708F08BCF9F5F90937F03EF
:1030400002C09F3FD1F71C81112359F00E941C162A
:103050009FEF11160CF491E0899F802D112480932D
:1030600085031D81112359F00E941C169FEF111634
:103070000CF491E0899F802D112480938603309178
:103080008503332309F464CF20918603222309F4B6
:103090005FCF45EB3403C0011124992359F090937D
:1030A000850345EB240390011124332339F0309339
:1030B00086034ECF81E080938503F3CF81E0809338
:1030C000860346CFEF92FF920F931F93CF93DF9328
:1030D000EB01E82FD1110EC0442321F0F0E0EC5FAA
:1030E000F94FE4916E2F7E2F8E2FCDB7DEB7E6E03D
:1030F0000C9498330D2F10E0282F30E0442329F052
:103100002C5F394FF901249130E0F6E0CF9FC001E8
:103110001124EFEFF0E0BF010E944233AB018C2F8E
:1031200090E0880F991FA5E5A49FB001A59F700DA1
:103130001124861B970B982F990F980FBF01601BC6
:10314000710B629FD001639FB00D729FB00D11246F
:103150008B2F9D9FB0011124672F7727EF01C61B8E
:10316000D70BBE01629FE001639FD00D729FD00D0F
:1031700011247F01E91AF108E09EB001E19E700D73
:10318000F09E700D1124672F7727E61BF70BE29F47
:103190008001E39F100DF29F100D1124E12F722F7B
:1031A0004230510599F048F44115510569F041301C
:1031B000510581F0EB2F8D2F07C04430510569F088
:1031C00080F046305105B1F76E2F8FCFE22F7B2F65
:1031D000812FFACFE22F7D2FF7CFEB2F822F712F88
:1031E000F3CF7B2F822FED2FEFCF41E00E946218AB
:1031F000089530E020E0869F212D969F200D311DFF
:103200001124C9010895AC018230910508F4089594
:103210009FEF413E8EE1580740F49A0195E03695C4
:1032200027959A95E1F798E0920F61E0E62FE90F74
:10323000FF27FF1F9F0135952795822F229FF001C1
:10324000239FF00DF00D11244E175F0738F49FEF08
:10325000920F961758F78FEF860F08952F3FE9F3D7
:1032600061E0620FF6CF4091FB015091FC0125E037
:1032700038E0429FC001439F900D529F900D112452
:10328000875E994C9093FC018093FB01890F089510
:10329000E82F86FDE0952E2F2F7086FD2F5FE69597
:1032A000E695E695E670F0E0E558FD4F9181929F36
:1032B000902D212D112492959F702295207F922B85
:1032C0002081920F87FD919580E8890F0895E42F62
:1032D000F0E0EE0FFF1FE65AFE4F408134EE439FB1
:1032E000412D1124E72FF0E050E0445E5F4FDA01FA
:1032F000A21BB1099D01B7FF03C03195219531098A
:1033000093E0220F331F9A95E1F7AF01421B530B55
:103310009A0157FD20E0279F212D1124722F089537
:10332000E42FF0E0EE0FFF1FE65AFE4F408134EE2F
:10333000439F412D1124E82FF0E050E0445E5F4FA1
:10334000DA01A21BB1099D01B7FF03C03195219598
:10335000310993E0220F331F9A95E1F7AF01421B29
:10336000530B9A0157FD20E0582F259F212D112442
:10337000822F0895622F0895E42FF0E0EE0FFF1FD3
:10338000E65AFE4F6081621B0895E42FF0E0EE0FD5
:10339000FF1FE55AFE4F6081621B0895322F50E0F7
:1033A000FA01EE0FFF1FE55AFE4F9081905297FDF4
:1033B0009195440F551FFA01E65AFE4F2081231BB9
:1033C000330B290F311D97FD3A95620F0895EF9247
:1033D0000F93972F23E0029FB001112475956795F5
:1033E0006E0D792F0F91EF9008950F93CF93DF9388
:1033F000D72FC82F47FD419588E390E0841B9109A2
:1034000047FD9395889FB001899F700D700D112421
:10341000229FC001239F900D900D1124860F971FAE
:103420000E940319982F990F890F682F600F7D2F25
:103430008C2FDF91CF910F9108950F931F93522FEF
:1034400010E0F801EE0FFF1FE55AFE4FA081A052D9
:10345000BB0B9D015203F001539FF00D1124000F8F
:10346000111FD801A65ABE4F0C910057110B4003F3
:103470009001419F300D11242E0F3F1F37FF02C0D6
:1034800021583F4F220F232F221F330B620F1F9112
:103490000F9108950F931F93522F10E0F801EE0F34
:1034A000FF1FE55AFE4FA081A052BB0B9D015203A6
:1034B000F001539FF00D1124000F111FD801A65ADF
:1034C000BE4F0C910057110B40039001419F300DEE
:1034D00011242E0F3F1F37FF02C0215C3F4F96E0A3
:1034E000359527959A95E1F7620F1F910F910895F1
:1034F0000F931F9310E0F801EE0FFF1FE65AFE4FE7
:103500009081905797FD9195000F111FF801E55A92
:10351000FE4F00810052110B2003F001219FF00D9E
:10352000112408E310E0091B110997FD13954003CE
:103530009001419F300D1124E20FF31F9F01220FD4
:10354000331F2E0F3F1F37FF02C021583F4F220F5E
:10355000232F221F330B620F1F910F9108950F939A
:103560001F93CF93DF938B01D82FC42F822F0E94FC
:103570004819EC2FF0E0EE0FFF1FE65AFE4F908146
:103580009058890F87FD8195880F682F2CE0629FE6
:10359000612D1124600F712F8D2FDF91CF911F911D
:1035A0000F910895E42FF0E0EE0FFF1FE65AFE4F53
:1035B0009081921B97FD9195292F38E1239F212D12
:1035C0001124620F08952091CF0430E1230F08F4F5
:1035D0002FEF60E1822F90E00E94F918BC0188EB88
:1035E0009BE00E94423390E080E0089590914D046A
:1035F000892B80934D040895FC019B01009729F4C9
:1036000080E077FF2BC080E80895AC0197FF04C0ED
:1036100044275527481B590BB901640F751F37FD07
:1036200010C0241B350BC901A5E0880F991FAA956E
:10363000E1F70E94563380E2861BF7FF0FC08195A9
:103640000895CB0165E0880F991F6A95E1F7BA01EB
:10365000621B730B0E94563380E6EECF08950F93E2
:103660001F93CF93DF93D62F172FC82FC901272F72
:10367000201B022FBA010E94FC1A982F990F990F54
:10368000782F791B700F719F712D11246D2F8C2F46
:10369000DF91CF911F910F9108950F931F93CF93B7
:1036A000DF93D62FC72F182FC901212F201B022FE0
:1036B000BA010E94FC1A982F990F990F891B800F4D
:1036C000282F219F212D1124822F6D2F7C2FDF91F8
:1036D000CF911F910F910895EF920F931F93CF9366
:1036E000DF93D62F172FC82FC9010E19070FBA0164
:1036F0000E94FC1A702F781B719F712D11246D2F61
:103700008C2FDF91CF911F910F91EF900895EF9241
:103710000F931F93CF93DF93D62FC72F182FC90175
:103720000E19010FBA010E94FC1A081B202F219FBD
:10373000212D1124822F6D2F7C2FDF91CF911F918E
:103740000F91EF9008950F93CF93DF93D72FC82F4A
:10375000C901BA010E94FC1A682F600F7D2F8C2FBF
:10376000DF91CF910F910895EF920F93CF93DF9355
:10377000D72FC82FC9010E19BA010E94FC1A602F59
:10378000681B7D2F8C2FDF91CF910F91EF900895C3
:1037900048E050E068E170E08BEC94E00E940C356A
:1037A00010924D0408950E94F5180895EBECF4E092
:1037B00085E380838091060290910702A091080220
:1037C00081839283A3838FE784838FEF85830E9415
:1037D000C81B0895E0918902F0918A020995089525
:1037E000E0918502F091860209950895B0E0A0E08D
:1037F000ECEFFBE10C9473335C014B01FC01808125
:10380000C82FCC0FCC0FC80F15E01C0FF12E1133B1
:1038100010F030E3F32E6091CF0466958091D304CD
:103820009091D4040E94F918582ED0E0CF1548F09A
:1038300081E0103308F080E0CDB7DEB7EFE00C9404
:103840008F33FE01E654FE4F8081F501918189237B
:10385000C9F1CE01880F991F8A5F9E4FFC01EC5A77
:10386000FF4F2081422F4057550B6A018B5A9F4FC3
:10387000FC018081282F2052330B3901449F900195
:10388000459F300D300D1124669CC001679C900D42
:10389000900D1124820F931F0E940319082F60912D
:1038A000CC047091CD048091CE04E52C9301A60147
:1038B000F40109950E94D31B462F282F672FCE01B4
:1038C0000E94F01B2196B2CF6CE67BE10E94F61BB2
:1038D000089567E87BE10E94F61B089567EE79E1A1
:1038E0000E94F61B089564EB7BE10E94F61B08958D
:1038F000B0E0A0E0EEE7FCE10C9478336C017B01D2
:10390000FC018081C82FCC0FCC0FC80F15E01C0F15
:10391000B12E113310F030E3B32E6091CF046695D1
:103920008091D3049091D4040E94F918A82ED0E07D
:10393000CB1548F081E0103308F080E0CDB7DEB75A
:10394000EAE00C949433FE01E654FE4F8081F601C8
:103950009181892311F1CE01880F991F8A5F9E4FB3
:10396000FC01EB5AFF4F20812052330B8C5A9F4FA2
:10397000FC0140814057550B6091CC047091CD04FF
:103980008091CE040A2DF70109950E94D31B462F82
:10399000282F672FCE010E94F01B2196C9CF6FE21E
:1039A0007BE10E94781C08956DE47BE10E94781C05
:1039B000089565EF79E10E94781C089563EA7BE140
:1039C0000E94781C0895B0E0A0E0E9EEFCE10C94C0
:1039D00079337C018B01FC018081C82FCC0FCC0F87
:1039E000C80F95E0D92EDC0ECD2CF0E3FD1510F4B8
:1039F00080E3C82E6091CF046695669521E0620F42
:103A000008F46FEF8091D3049091D4040E94F918C8
:103A1000B82ED0E0CC1550F081E09FE29D1508F45F
:103A200080E0CDB7DEB7E9E00C949533FE01E654B3
:103A3000FE4F8081F7019181892391F06091CC0440
:103A40007091CD048091CE042B2D4C2FF801099557
:103A50000E94D31B462F282F672FCE010E94F01BF8
:103A60002196D8CF67E679E10E94E31C089560E9CA
:103A700079E10E94E31C08956AEB79E10E94E31C5E
:103A800008956CEB79E10E94E31C089565EC79E1FF
:103A90000E94E31C08956EEC79E10E94E31C0895F6
:103AA0006FEA7AE10E94E31C089562ED7AE10E94D8
:103AB000E31C0895B0E0A0E0E0E6FDE10C9475336E
:103AC0005C016B01FC018081C82FCC0FCC0FC80FAB
:103AD00015E01C0F912E113310F030E3932E6091FE
:103AE000CF04669566958091D3049091D4040E948A
:103AF000F918F82E80E48F0D0E94481990E8892E5D
:103B0000880E8F2D0E94481920E8722E780ED0E082
:103B1000C91548F081E0103308F080E0CDB7DEB77A
:103B2000EDE00C949133FE01E654FE4F8081F501E7
:103B300091818923A1F06091CC047091CD04809192
:103B4000CE04EF2C0C2F272D482DF60109950E944D
:103B5000D31B462F282F672FCE010E94F01B2196E2
:103B6000D7CF6DE17AE10E945A1D08956AE47AE1A7
:103B70000E945A1D089568E77AE10E945A1D08952F
:103B8000B0E0A0E0E6ECFDE10C9479337C01FC01AF
:103B90008081C82FCC0FCC0FC80F15E01C0F012F50
:103BA000113308F000E36091CC047091CD04809152
:103BB000CE040E94D31BD62EC72EB82ED0E0C0173D
:103BC00048F081E0103308F080E0CDB7DEB7E9E0DF
:103BD0000C949533FE01E654FE4F8081F7019181EC
:103BE000892331F02B2D4D2D6C2DCE010E94F01B21
:103BF0002196E5CFB0E0A0E0E0E0FEE10C94763362
:103C00007C01FC018081C82FCC0FCC0FC80F15E0C0
:103C10001C0F012F113308F000E3C090CD04D090A9
:103C2000CE04D091CC046D2F7C2D8D2D0E94D31B02
:103C3000B62EA72E982E6091CF046D0F7C2D8D2D62
:103C40000E94D31BD62EC72E882ED0E0C01748F076
:103C500081E0103308F080E0CDB7DEB7ECE00C94E3
:103C60009233FE01E654FE4F9081F7018181892352
:103C700059F0282D4D2D6C2D90FD03C0292D4B2D75
:103C80006A2DCE010E94F01B2196E0CFB0E0A0E0AB
:103C9000ECE4FEE10C9479337C01FC018081C82FB7
:103CA000CC0FCC0FC80F15E01C0FD12E113310F024
:103CB00090E3D92EC090CD04B090CE042091CF04D3
:103CC00000E4029F012D1124D0E0CD1548F081E0E1
:103CD000103308F080E0CDB7DEB7E9E00C949533FF
:103CE000FE01E654FE4F8081F70191818923B9F0EE
:103CF000FE01EE0FFF1FE55AFE4F808182958F7007
:103D00006091CC04809F600D11247C2D8B2D0E942E
:103D1000D31B462F282F672FCE010E94F01B219620
:103D2000D4CFB0E0A0E0E7E9FEE10C9479338C0158
:103D3000FC018081C82FCC0FCC0FC80F55E0F52EA9
:103D4000FC0EDF2CF0E3FF1510F440E3D42EC090FE
:103D5000CD04B090CE042091CF0430E4E32E3E2D6C
:103D6000329F312D1124E32ED0E0CD1550F081E0AB
:103D70003FE23F1508F480E0CDB7DEB7E9E00C94F0
:103D80009533FE01E654FE4F8081F801918189232D
:103D9000D9F0FE01EE0FFF1FE65AFE4F6081E69E4E
:103DA000B001112495E0759567959A95E1F780919A
:103DB000CC04680F7C2D8B2D0E94D31B462F282FFF
:103DC000672FCE010E94F01B2196CFCFB0E0A0E07C
:103DD000ECEEFEE10C9479338C01FC018081C82F5C
:103DE000CC0FCC0FC80F95E0F92EFC0EEF2CF0E3B2
:103DF000FF1510F480E3E82ED090CC04D091CD04D0
:103E0000C090CE046091CF046695669566958091CA
:103E1000D3049091D4040E94F9180E944819805844
:103E200087FD8195880F282F3C2D239F212D11245C
:103E3000822F6D2D7D2F0E94D31BD62EC72EB82E1C
:103E4000D0E0CE1550F081E02FE22F1508F480E08D
:103E5000CDB7DEB7E9E00C949533FE01E654FE4F92
:103E60008081F8019181892331F02B2D4D2D6C2D0E
:103E7000CE010E94F01B2196E4CFB0E0A0E0E3E485
:103E8000FFE10C947B338C01FC01E654FE4F8081F2
:103E9000682349F1D090CD04D091CE04C091CC04D8
:103EA000EC2EF12C0E943319282FC7018C549F4F00
:103EB00068E671E00E9456338E199F0997FD0396BC
:103EC000959587959595879523706C2F289F600D04
:103ED00011247D2D8D2F0E94D31B462F282F672F55
:103EE000C8010E94F01BCDB7DEB7E7E00C94973312
:103EF000FF920F931F93CF93DF938C01FC0180817E
:103F0000C82FCC0FCC0FC80F85E0F82EFC0E828195
:103F1000D0E081112EC06091CF0420E1620F08F43F
:103F20006FEF8091D3049091D4040E94F9186AE055
:103F300070E00E944233892B61F40E943319F0E350
:103F40008F9FC0011124F8016181892F90E00E94A8
:103F50003D1F81E02FE22F1508F480E0CDB7DEB7DA
:103F6000E5E00C949933F8016181CE010E943D1F78
:103F700021968F2DF0E3FF1508F480E38C171D06C2
:103F800009F08CF7E6CF1F93CF93DF93EC01FC0190
:103F9000E654FE4F80816823B1F00E943319182F38
:103FA0000E94331920E8829FC00111247FE7790F16
:103FB000612F8091CE040E94D31B462F282F672F9C
:103FC000CE010E94F01BDF91CF911F910895B0E0C8
:103FD000A0E0EDEEFFE10C947B338C01FC01C2818B
:103FE000C11124C06091CF0420E1620F08F46FEF8B
:103FF0008091D3049091D4040E94F91865E070E098
:104000000E944233892B61F40E943319F0E38F9FA1
:10401000C0011124F8016181892F90E00E94C31F23
:104020008C2FCDB7DEB7E7E00C9497338081C82F93
:10403000CC0FCC0FC80F85E0D82EDC0E8D2DF0E311
:10404000FD1508F480E3D0E0E82EF12CCE15DF0555
:1040500034F0C1E0FFE2FD1518F7C0E0E1CFF80150
:104060006181CE010E94C31F2196F0CFB0E0A0E095
:10407000ECE3F0E20C9479337C01FC018081C82FE1
:10408000CC0FCC0FC80F15E01C0F012F113308F017
:1040900000E3C090CD04D090CE04D091CC046091C8
:1040A000CF046695669566958091D3049091D4046B
:1040B0000E94F9180E944819805887FD8195880F41
:1040C000682F2CE0629F612D11246D0F7C2D8D2DAA
:1040D0000E94F518D62EC72EB82ED0E0C01748F093
:1040E00081E0103308F080E0CDB7DEB7E9E00C9452
:1040F0009533FE01E654FE4F8081F70191818923BB
:1041000031F02B2D4D2D6C2DCE010E94F01B2196F0
:10411000E5CFE0918702F0918802099508950E9409
:1041200031120895A3E0B0E0E8E9F0E20C947133B5
:10413000782E8091F901871124C09091CB0493705F
:104140002091FA0130E081E09217130609F480E033
:1041500081708093F8018091D0049091F7019817B5
:1041600039F08093F70140E060E080E00E94892010
:104170002EE1271588F0E72DF0E0E25BFA4C0C9475
:104180006A3381E0E5CF8091F801882359F040E05F
:1041900060E080E00E94892080E004C086EF91E02A
:1041A0000E94C01D9091F6019F5F9093F6018111CE
:1041B0000CC082E08093F5018091F801811105C067
:1041C000711003C083E08093F5012396E1E10C9424
:1041D0008D3386EF91E00E94FA1DE4CF86EF91E0E7
:1041E0000E94461EDFCF86EF91E00E94911EDACF3B
:1041F00086EF91E00E94E61ED5CF86EF91E00E9407
:10420000321DD0CF86EF91E00E94371DCBCF86EFD5
:1042100091E00E94CF1CC6CF86EF91E00E94D41C93
:10422000C1CF86EF91E00E94641CBCCF86EF91E085
:104230000E94691CB7CF86EF91E00E943C1DB2CF6F
:1042400086EF91E00E94411DADCF86EF91E00E9484
:10425000461DA8CF86EF91E00E944B1DA3CF86EFAD
:1042600091E00E946E1C9ECF86EF91E00E94D91CC7
:1042700099CF86EF91E00E94DE1C94CF86EF91E00B
:104280000E94731C8FCF86EF91E00E94B11D8ACFF0
:1042900086EF91E00E94B61D85CF86EF91E00E94E7
:1042A000BB1D80CF86EF91E00E94781F7BCF86EF09
:1042B00091E00E94E71F76CF86EF91E00E943620C2
:1042C00071CF86EF91E00E94501D6CCF86EF91E098
:1042D0000E94551D67CF8091F6018F5F182F110F37
:1042E000110F180F4091D3045091D4046091D5045C
:1042F0007091D6048091490490914A04A0914B0496
:10430000B0914C0484179507A607B70708F055C06D
:104310000E94331920E3829FF00111248F2F9927E7
:104320009B838A83FC01E654FE4F80819091F701C4
:10433000892309F442C00E94331920E040E060E084
:1043400081FD13C00E943319082F0E943319E0E841
:104350008E9FC00111247FE7790F602F8091CE04DA
:104360000E94D31B462F282F672F8A819B810E9492
:10437000F01B2091CF0430E1230F08F42FEF60E110
:10438000822F90E00E94F918BC0184EF91E00E9416
:1043900042338091D3049091D404A091D504B0917C
:1043A000D604860F971FA11DB11D809349049093D9
:1043B0004A04A0934B04B0934C0481E0103308F4FA
:1043C000F1CEEACE409145045091460460914704F5
:1043D000709148048091D3049091D404A091D504A5
:1043E000B091D60484179507A607B70708F4D4CE72
:1043F0008091F801811128C08091F601F82FFF0FFC
:10440000FF0FF80FF98335E0F32EFF0EEF2C20E3BA
:104410002F1510F420E3E22E3981032F10E0E3E0A2
:104420003E9FC00111248B549C4F9B838A830E15A1
:1044300008F448C03FE2E5EBF3E082E494E03F1586
:1044400008F45FC081E0AECE40E060E080E00E9412
:10445000892005EB13E01B821A820E94331981FF29
:1044600010C0F8011082118212822A813B812F5FD5
:104470003F4F3B832A830D5F1F4F2033310569F780
:10448000BBCF0E943319D82E0E943319F0E88F9FBA
:10449000C00111247FE7790FEA80FB80EE0CFF1C3E
:1044A0002A813B81E20EF31EC7018B549C4F7C0195
:1044B0006D2D8091CE040E94F518F7016083718301
:1044C0008283D3CFF801E654FE4F80819091F701AB
:1044D000892341F0EA81FB81228140816181C80109
:1044E0000E94F01B2A813B812D5F3F4F3B832A8333
:1044F0000F5F1F4F9CCF23813481458121933193DE
:1045000041938E179F07B9F70E94331981FF1FC08F
:104510001092420410924304109244040E94E31A41
:104520000091D3041091D4042091D5043091D60485
:10453000DC01CB01800F911FA21FB31F80934504A4
:1045400090934604A0934704B093480425CE0E945C
:10455000331989830E943319E0E88E9FC00111242A
:104560007FE7790F69818091CE040E94F5186093EE
:1045700042047093430480934404D0CF8091F801A7
:10458000882329F040E060E080E00E94892030909C
:10459000F6013394832D880F880F380E4091D30491
:1045A0005091D4046091D5047091D6048091B103E8
:1045B0009091B203A091B303B091B403841795070F
:1045C000A607B70708F081C06091CC047091CD04B4
:1045D0008091CE040E94D31B662E572E482E07E8EA
:1045E00013E026E031E03B832A838AE5882E81E0D0
:1045F000982ECA80DB805601780132E001C031E09C
:104600003983F70121917F01F50181915F0190E0EC
:10461000222309F460C0242D462D652D0E94F01B35
:10462000F6018581242D462D652D90E00E94F01B1A
:10463000F701808131978083F1E0CF1AD108298179
:104640002130E9F6EA81FB81828190E0F801228144
:10465000222309F44BC0242D462D652D0E94F01B0A
:10466000EA81FB818381242D462D652D90E00E94F7
:10467000F01B0E943319837091E009F090E0F8017B
:1046800092830D5F1F4F2A813B812A5F3F4F3B83FF
:104690002A838216930609F0ACCF0E94E31A009198
:1046A000D3041091D4042091D5043091D604DC01B8
:1046B000CB01800F911FA21FB31F8093B103909372
:1046C000B203A093B303B093B40381E09FE29315C8
:1046D00008F068CD61CD20E040E060E00E94F01B72
:1046E000F601858120E040E060E09FCF20E040E0DF
:1046F00060E00E94F01BEA81FB81838120E040E0C2
:1047000060E0B4CF81E008950E948223089581E0A3
:1047100008950E9487230895FC019081892F880FB6
:10472000880F890F682F813308F060E385500E945D
:1047300089230895CF930E94102C60934E047093A8
:104740004F04809350049093510420915204C0E090
:10475000211108C02091CB04C22FC37019F0C22FC1
:10476000C695C6952091F5012130B1F0222331F094
:104770002230F1F0233039F1CF9108951092F601F3
:104780006093D3047093D4048093D5049093D6049B
:1047900081E08093F501F0CF8C2F0E949220CC23F2
:1047A00059F30E94842386EF91E00E948C23E4CF8A
:1047B000C093F9018091CB0483708093FA010E9429
:1047C000EA1B83E0E6CF80914D0481110E94C81B53
:1047D0006091D3047091D4048091D5049091D60453
:1047E0000E942B2C6A3171058105910528F21092E7
:1047F000F501C2CFE0918302F091840209950E94F5
:104800004211811104C00E94DD110E94D61B81E07B
:1048100080934D0448E050E068E170E08BEC94E058
:104820000E94E83410924D048091CB048C7F11F4E7
:104830000E94D61B0895CF93C82F882391F08091B2
:10484000520481110EC00E9492201092F9018091B1
:10485000CB0483708093FA010E94EA1B83E080936B
:10486000F501C0935204CF910895EBECF4E09081F0
:1048700021E0922790831092F5010E94F61A089584
:1048800081E00E94352408959091CB04937051F0FB
:10489000811109C094609093CB041092F501862F8A
:1048A0000E94F61A08958F3110F09867F4CF282FE0
:1048B000220F220F922BEFCF61E00E944424089533
:1048C000682F9091CB049695969581E0890F8F3152
:1048D00008F081E00E944424089581E00E94602451
:1048E0000895682F9091CB04969596958FEF890F38
:1048F00009F48EE10E944424089581E00E9471240D
:1049000008959091CB04937049F08093CC04609308
:10491000CD044093CE04822F0E94F61A0895ABEC8A
:10492000B4E01196EC911197F0E0282F13964C917A
:10493000139712966C91CF0108960E9481240895D6
:1049400081E00E948F240895EBECF4E09181282F00
:1049500043816281E92FE850FF0BCF010E9481243F
:10496000089581E00E94A4240895EBECF4E06281B4
:1049700020E1620F08F46FEF9181282F4381892F86
:1049800090E00E948124089581E00E94B52408955A
:10499000EBECF4E0628120E1621B08F460E09181BD
:1049A000282F4381892F90E00E948124089581E07F
:1049B0000E94C8240895EBECF4E0438120E1420F0B
:1049C00008F44FEF9181282F6281892F90E00E9497
:1049D0008124089581E00E94DB240895EBECF4E04B
:1049E000438120E1421B08F440E09181282F62813D
:1049F000892F90E00E948124089581E00E94EE2496
:104A00000895EBECF4E0248130E1230F08F42FEF5C
:104A100024830E94F61A089581E00E9401250895DA
:104A2000EBECF4E0248130E1231B08F420E0248344
:104A30000E94F61A089581E00E941025089580933F
:104A4000D00481E00E94F61A089560E084E70E9495
:104A5000DA2661E087E70E94DA260895CF930E9464
:104A6000262984E70E947C2587E70E947C25C0E0F8
:104A700021E041E061E08C2F0E942426CF5FC0330B
:104A8000B9F760E084E70E94EF2661E087E70E94C3
:104A9000EF26CF910895E7EFF5E06083418324E6A8
:104AA00030E042E050E0BF01880F0E94E9290895FC
:104AB0000F931F93CF93DF93082F000FEB0114E2A6
:104AC0001093F70580E1FE01A8EFB5E001900D928B
:104AD0008A95E1F724E630E041E150E067EF75E0C8
:104AE000802F0E94E929105F6096143B49F7DF91FF
:104AF000CF911F910F910895CF93DF93C82F4BE073
:104B00006DEF0E944B2540E06AE08C2F0E944B2500
:104B10008FE39CE90197F1F700C0000040E060E0FE
:104B20008C2F0E944B2540E061E08C2F0E944B258A
:104B300040E066E08C2F0E944B2540E06DEF8C2F0B
:104B40000E944B25D0E040E06D2F8C2F0E944B251A
:104B5000DF5FD231C1F740E06D2F8C2F0E944B25D3
:104B6000DF5FD432C1F740E06D2F8C2F0E944B25C0
:104B7000DF5FD43BC1F74BE06DEF8C2F0E944B25DC
:104B800041E06AE08C2F0E944B2540E06DEF8C2FB6
:104B90000E944B25DF91CF910895A4E0B0E0E3EDB2
:104BA000F5E20C947D33F62E042F122F80339105FD
:104BB00070F5880F991F880F991FBC0164557F4FAE
:104BC00044E050E0CE0101960E94D2348981837086
:104BD000EA81282F30E040E9849FC00111248952E6
:104BE0009B4FE80FF92FF11DB497F082EB81E80F8E
:104BF000F92FF11DB4970083EC81E80FF92FF11D17
:104C0000B497108327583B4F81E0F90180832496A5
:104C1000E5E00C949933FF920F931F93CF93DF93AA
:104C2000182F062FF42ED0E0C0E02F2D402F612F3B
:104C3000CE010E94CD252196C033D105B1F7CDB765
:104C4000DEB7E5E00C949933A4E0B0E0EAE2F6E2E6
:104C50000C947533762EA42EB22E24E0829FB001E0
:104C6000112464557F4F44E050E0CE0101960E942C
:104C7000D2348A8190E06C0154E2C51AD1089601C1
:104C8000D7FE02C0295F3F4F63E0359527956A95AF
:104C9000E1F74B8150E0CA0184977C0197FF04C083
:104CA0007A016DE1E61AF10853E0F594E7945A951C
:104CB000E1F74C8150E04A01E4E28E1A9108840148
:104CC00097FE02C0095F1F4F43E0159507954A956F
:104CD000E1F7E8E0F0E0BF010E945633482FC4013D
:104CE000BF010E945633982EC601BF010E94563361
:104CF00061E070E0FB0102C0EE0FFF1F8A95E2F752
:104D0000CF01E98133279E2F9370772009F440C0AB
:104D1000F2E19F9F200D311D1124D901AB5ABB4FE9
:104D20009C91892B8C93E3708E2F90E062E1E69F3B
:104D3000F0011124EB5AFB4FEE0DF11D508121E0E3
:104D400030E001C0220F4A95EAF7AA2069F1252B2D
:104D5000208322E1289FF001299FF00D1124EB5AB6
:104D6000FB4FE00FF11D408121E030E0092C01C034
:104D7000220F0A94EAF7BB20D1F0242B20838D5A0E
:104D80009B4F21E0FC0120832496EDE00C949133AD
:104D900052E1959F200D311D1124D901AB5ABB4F13
:104DA00080959C918923BECF20952523D1CF209536
:104DB0002423E4CFCF93DF93C62FD0E0C758DB4F37
:104DC0009881992341F090E9699FB00111246952BB
:104DD0007B4F0E9458251882DF91CF910895EF9262
:104DE000FF920F931F93CF93DF93E82E062F10E0CF
:104DF0000D5A1B4FF8018081882381F0F2E16F9FEB
:104E0000E0011124CB5ADB4FF12C49916F2D8E2DEF
:104E10000E944B25F39482E1F812F7CFF80110823B
:104E2000CDB7DEB7E6E00C949833FA01811101C0EA
:104E3000FB01099508951F93CF93DF93EC01FB01CC
:104E40001581111110C00E9441108272FE01E052C2
:104E5000F847E531F10508F049C0E359FA4C0C94E4
:104E60006A330E944024812FDF91CF911F910895D2
:104E70004DE754E26DE674E20E941527F4CF4DE64B
:104E800054E26DE774E2F8CF41EB54E260EA74E279
:104E9000F3CF40EA54E261EB74E2EECF47ED54E227
:104EA00064EC74E2E9CF44EC54E267ED74E2E4CFE1
:104EB0004DEF54E26AEE74E2DFCF4AEE54E26DEF5A
:104EC00074E2DACF4BE155E26CE075E2D5CF4CE00D
:104ED00055E26BE175E2D0CF81E00E945C24C3CF44
:104EE00085E0FBCF8DE0F9CF82E1F7CF11E0BBCFBA
:104EF000CF93DF93EC01FB018581882309F4D2C0B5
:104F00009E0130572332310508F0B2C00E9457117C
:104F10009093AE048093AD04FE01E150F047E2327D
:104F2000F10520F4EE57FA4C0C946A338091AD04ED
:104F300081608093AD0493C08091AE0488608093BB
:104F4000AE048DC08091AD048260F3CF8091AD043A
:104F50008460EFCF8091AD048860EBCF8091AE0488
:104F60008160EDCF8091AE048260E9CF8091AD0485
:104F70008061DFCF8091AD048062DBCF8091AD0492
:104F80008064D7CF0E94AE0B8091AD048068D1CFF2
:104F90008091AD048C60CDCF8091AE048360CFCF83
:104FA0008091AD048E7FC5CF8091AE04877FC7CF3F
:104FB0008091AD048D7FBDCF8091AD048B7FB9CF43
:104FC0008091AD04877FB5CF8091AE048E7FB7CF3F
:104FD0008091AE048D7FB3CF8091AD048F7EA9CF39
:104FE0008091AD048F7DA5CF8091AD048F7BA1CF43
:104FF0000E94AE0B8091AD048F779BCF8091AD0462
:10500000837F97CF8091AE048C7F99CF8091AD0440
:1050100082FB992790F921E0922790FB82F990FB7F
:1050200083F987CF8091AE04982F909591708E7FF1
:10503000892B90FB81F983CF9091AD04892F8F7BD1
:1050400096FF806476CF0E94AE0B9091AD04892FBD
:1050500097FB87F980586DCF81E00E94E011809125
:10506000AD049091AE040E945C110E94AE0B80E0F2
:10507000DF91CF91089580E0F0CF9091AD04892F1A
:105080008F7E94FF806155CF9091AD04892F8E7FE4
:1050900090FF81604ECF9091AE04892F877F93FF60
:1050A00088604DCF81E0E4CFCF93DF93EB01863171
:1050B0009C4711F50E9441109D81992399F08A7AAD
:1050C00091E009F490E090937B04811109C089E29A
:1050D0000E9419100E949A1080E0DF91CF910895EC
:1050E00085E3F6CF80917B04811104C089E20E94A0
:1050F0002110F0CF85E3FBCF81E0EFCF0F931F931B
:10510000CF93DF93C42FD22FFC0185818823C9F070
:1051100040937E040E94042C90937D0480937C0431
:1051200080E28C0F883040F4C77081E001C0880FA6
:10513000CA95EAF70E945C09DF91CF911F910F9108
:10514000089510917E04141332C080917C049091D4
:105150007D040E941C2C883C910548F5C0E2CD0FCF
:105160001D17B9F080E2810F883040F4177081E09C
:1051700001C0880F1A95EAF70E946309C83048F405
:1051800081E09D2F977001C0880F9A95EAF70E94E1
:105190005C09802F0E945309C83070F6D77081E0F7
:1051A00001C0880FDA95EAF70E946309C5CF80E253
:1051B0008C0F883008F6C77081E001C0880FCA954F
:1051C000EAF7F2CF0F93DB0188519C4787309105B6
:1051D000A0F5FC01EC55FA4C0C946A3306E221EE82
:1051E00041EE6AE17CE7CD010E947E2880E00F91CC
:1051F000089507E225EE45EE6BE17CE7F4CF06E289
:1052000021EE40EE68E17CE7EECF07E225EE44EECA
:1052100069E17CE7E8CF06E221EE42EE6CE17CE753
:10522000E2CF07E225EE46EE6DE17CE7DCCF08E257
:1052300021E045EE6EE17CE7D6CF15968C91882370
:1052400019F010927E04D3CF81E0D1CF1092B90033
:105250008CE08093B8000895B0E0A0E0E2E3F9E2CA
:105260000C947733B82EEB010E94042C6C01EE24D1
:10527000E394F12CC431D10560F025E0E22EF12C4D
:10528000CF3FDC0731F0CE0164E170E00E94423391
:105290007B0184EAA82E94E8992E1092BC00A0927B
:1052A000BC000E94042C8C018091BC0087FF0DC0C3
:1052B0008091B900887F8830F9F08091B900887FAB
:1052C0008031D1F00FEF1FEF08C0C8010E941C2CE5
:1052D000E816F90648F70EEF1FEFCF3FDC07E9F2BB
:1052E000C6010E941C2CC817D907B8F6C801CDB753
:1052F000DEB7EBE00C949333B092BB009092BC000D
:105300000E94042C8C018091BC0087FF0AC0809110
:10531000B900887F883111F08034A1F610E000E0F8
:10532000E5CFC8010E941C2CE816F90660F7D3CF20
:105330000F931F93CF93DF93EB018093BB0084E81F
:105340008093BC000E94042C8C018091BC0087FFDC
:1053500011C02091B900287F81E090E0283211F43B
:1053600090E080E0919581959109DF91CF911F9117
:105370000F910895CF3FDC0741F3C8010E941C2C18
:10538000C817D90710F78EEF9FEFEFCF0F931F933A
:10539000CF93DF93EC0184E88093BC000E94042C3F
:1053A0008C018091BC0087FF08C08091BB0090E019
:1053B000DF91CF911F910F910895CF3FDC0789F3C3
:1053C000C8010E941C2CC817D90758F78EEF9FEF11
:1053D000EFCFB0E0A0E0EFEEF9E20C947A336B018E
:1053E0008A017901B9010E942C29E6010C0D1D1DCD
:1053F000C017D10711F097FF08C024E92093BC0023
:10540000CDB7DEB7E8E00C949633B70189910E94DE
:105410009829EECF84E98093BC00089590939B0275
:1054200080939A020895909384048093830408954E
:10543000E0918304F0918404309729F00190F08189
:10544000E02D0995089580E00895E0918304F0919E
:105450008404309799F020910502222359F020917D
:10546000AD0427FF07C0DC012C9111962C931197F6
:1054700026E02C930280F381E02D09950895E091B8
:105480008304F0918404309721F00480F581E02DAD
:1054900009950895A3E0B0E0E0E5FAE20C948033CA
:1054A000209181043091820428173907A1F090934C
:1054B000820480938104E0918304F0918404309706
:1054C00051F023E029839B838A830680F781E02DB6
:1054D000CE01019609952396E2E00C949C33A3E05B
:1054E000B0E0E5E7FAE20C94803320917F0430913C
:1054F000800428173907A1F09093800480937F04DB
:10550000E0918304F0918404309751F024E02983E2
:105510009B838A830680F781E02DCE010196099551
:105520002396E2E00C949C33FC01329680910502B4
:10553000882321F08091AD049EE187FF96E080E012
:10554000915008F4089521912223D1F38F5FF8CF71
:10555000662301F1209105022223F1F02091AD0490
:1055600027FF1AC0462F4695469546954E3190F432
:10557000677021E030E002C0220F331F6A95E2F726
:10558000840F911DFC01828190E02823392381E062
:10559000232B69F480E00895FC013296089621914E
:1055A000261721F0E817F907D1F7F4CF81E0089525
:1055B0009C01FC0132969FEF80E04191461751F02B
:1055C0009F3F19F4411101C0982F8F5F8630A9F7D2
:1055D0009F3F09F40895290F311D97FD3A95F90170
:1055E00062830895FC01329608962191261303C028
:1055F000DF0111971C92E817F907B9F70895E62F14
:10560000E695E695E695EE3168F4E80FF92FF11D81
:10561000677021E030E001C0220F6A95EAF78281CD
:10562000822B82830895E62FE695E695E695EE3186
:1056300070F4E80FF92FF11D677021E030E001C030
:10564000220F6A95EAF72095828128232283089504
:1056500020910502222339F02091AD0427FF03C0D9
:105660000E94FF2A08950E94D82A089520910502D9
:10567000222339F02091AD0427FF03C00E94132B91
:1056800008950E94F22A0895FC0132968091050245
:10569000882351F08091AD0487FF06C08EE1DF01C1
:1056A0001D928A95E9F7089586E0F9CF45E050E02C
:1056B0000E94DB3421E0892B09F420E0822F089539
:1056C00008950E94602B0895811106C081E08093A7
:1056D00085040E94612B089582E0F9CF83E08093D6
:1056E00085040E94612B08950E94642B089581E037
:1056F000809385040E94612B08950E94772B089562
:10570000089508950E94812B089508950E94802B8A
:105710000895CF930E947D050E940D150E94852B50
:10572000C0E08C2F0E94F414811105C0CF5FCE30F1
:10573000C1F7CF91089581E0FCCF85B7806885BF20
:1057400085B7806885BF08951F921FB61F921124E8
:105750008F939F93AF93BF9380918604811113C061
:1057600080910B0690910C06A0910D06B0910E064B
:105770004196A11DB11D80930B0690930C06A0933A
:105780000D06B0930E06BF91AF919F918F911F9020
:105790001FBE1F90189580911306843031F10E942E
:1057A000BB071092860488E190E020E40FB6F894DD
:1057B000A895809360000FBE2093600083B7817F1F
:1057C000846083BF83B7816083BF7894889583B7F3
:1057D0008E7F83BF0FB6F894A89580916000886192
:1057E00080936000109260000FBE08950E94AE0B7F
:1057F0000E94C507089582E084BD93E095BD9AEFAD
:1058000097BD80936E0008952FB7F89480910B0692
:1058100090910C06A0910D06B0910E062FBF089531
:105820002FB7F89460910B0670910C0680910D06CD
:1058300090910E062FBF08959C014FB7F894809168
:105840000B0690910C06A0910D06B0910E064FBF6D
:10585000821B930B0895CF92DF92EF92FF922FB7A6
:10586000F894C0900B06D0900C06E0900D06F090D6
:105870000E062FBFA7019601261B370B480B590BAD
:10588000CA01B901FF90EF90DF90CF90089578940E
:105890001F921FB61F9211248F939F93AF93BF93B4
:1058A00080910B0690910C06A0910D06B0910E060A
:1058B0000196A11DB11D80930B0690930C06A09339
:1058C0000D06B0930E06BF91AF919F918F911F90DF
:1058D0001FBE1F901895F89481E08093E00080E24D
:1058E0008093D800E9ECF0E010828FE19EE401970C
:1058F000F1F700C000001DBA109268001CBC10BE79
:105900001FBA10927A0010926E0010926F001092DF
:105910007100109272001082ECEBF0E0108214B86B
:1059200017B81AB81DB810BA108215B818B81BB835
:105930001EB811BA0C94003F089588E19AE00FB6A2
:10594000F894A895809360000FBE90936000FFCFFD
:105950008091A70408959B01BA0190911306943099
:10596000E9F48F708093E9009FEF8091E8009150F7
:1059700085FD06C085ED8A95F1F700009111F5CF00
:105980008091E80085FF0AC050E040E0C9010E9414
:10599000BB2E8091E8008E778093E800089543E065
:1059A00050E0BC0183E00E94AB2C089545E050E03C
:1059B000BC0182E00E94AB2C0895CF93DF93EC01F1
:1059C00080910502811111C048E050E0BE0181E0E4
:1059D0000E94AB2C80E2FE01A7E8B4E001900D929A
:1059E0008A95E1F7DF91CF9108958091AD0487FF0B
:1059F00005C040E283E050E0BE01EACF48E081E02C
:105A0000FACF80911206811109C00E944B300E948A
:105A1000A8308091E20084608093E20008951092A3
:105A2000120608950E94772B089560910F0681E079
:105A3000611101C080E00E946E2B089590911306C1
:105A400081E0943009F080E060910F060E94742B91
:105A5000089542E061EC81E00E94C72F42E061ECD2
:105A600082E00E94C72F42E261EC83E00E94C72FD0
:105A70009091130681E0943009F080E060910F0668
:105A80000E94642B089580911506833009F463C049
:105A900030F48130E1F1823009F4A0C008958A30F9
:105AA00009F48CC08B3009F471C0893009F052C000
:105AB00080911406813209F04DC0809118069091B2
:105AC0001906009719F0029709F044C08091E80088
:105AD000877F8093E8008091E80082FF37C0909133
