:1000000058C4000073C4000071C400006FC4000035
:100010006DC400006BC4000069C4000067C4000028
:1000200065C4000063C400000C94872F0C94543006
:100030000C9471295BC4000059C4000057C400002F
:1000400055C4000053C4000051C400004FC4000058
:100050004DC400000C94E82949C4000047C40000C6
:1000600045C4000043C4000041C400003FC4000078
:100070003DC400003BC4000039C4000037C4000088
:1000800035C4000033C4000031C400002FC4000098
:100090002DC400002BC4000029C4000027C40000A8
:1000A00025C4000023C4000021C40000002010303B
:1000B0000050406000312141006151710012022264
:1000C00000423252007262820013032300534363E2
:1000D00000140424006454740015052500453555AA
:1000E0000075658500160626004636560017072758
:1000F0000047375700281838005848680039294900
:1001000000695979001A0A2A004A3A5A0120103027
:1001100001504060013121410161517101120222FF
:10012000014232520172628201130323015343637D
:100130000114042401645474011505250145355545
:1001400001756585011606260146365601170727F3
:10015000014737570128183801584868013929499B
:1001600001695979011A0A2A014A3A5A46003500AA
:1001700029212F22E00000001E00140004221D216E
:10018000E30000001F001A2816001B0050002B423D
:1001900020000800070006464F002C4321001500F0
:1001A000094419414C242800220017000A000500C8
:1001B000000000000000260200002D000000E30007
:1001C0005300270200002E000000000023001C0046
:1001D0000B00110000000000240018000D00104664
:1001E0004C34000025000C000E003600520028435D
:1001F000260012380F00370051002A422700130052
:1002000033323831007C00002D003100343130327F
:10021000E4000000000000000000000000000000FA
:1002200000000000000000000000000000000000CE
:1002300000004C000000E000000049000000000049
:100240000000E200000000000000000000000000CC
:10025000000000000000000000000000000000009E
:10026000000000000000000000000000000000008E
:100270000000000000004A0050004D000000000097
:1002800000004B0051004E00000000000000000084
:10029000520000000000E60000004A004F004D0040
:1002A0000000E4000000000000000000000000006A
:1002B000000000000000000000000000000000003E
:1002C0000000000000000000000000001E0200000E
:1002D00000000000000000001F02000000002B00D2
:1002E000000000002002000000002C0000000000C0
:1002F00021020000000000000000000022020000B7
:1003000000000000000000000000000000000000ED
:1003100000000000000000000000000000003502A6
:1003200023023500000000000000310224023100E9
:100330000000000000003402250234000000280004
:1003400000002F0226022F0000002A0000003002C9
:100350002702300000000000000000000000000044
:100360000000000046000000000000000000000047
:100370003A00277828780000000000003B00297828
:100380002A78000000002B003C0021782278000031
:1003900000002C003D00000000000000E200000012
:1003A0003E00000053000000000000004700000075
:1003B000000000000000000053004B0000004E0051
:1003C000000000003F0057002E0055000000000014
:1003D00040005F005C0059006300000041006000C5
:1003E0005D005A0062002800420061005E005B0070
:1003F00063002A00430056002E0054000000000055
:100400004400450000000000000000000000000063
:1004100000000000000000000000000000000000DC
:1004200000000000000000000000000000000000CC
:1004300000000000000000000000000000000000BC
:1004400000000000000000000000000000000000AC
:10045000000000000000000000000000000000009C
:10046000000000000000000000000000000000008C
:100470000000000000000000000040003D003A00C5
:1004800000000000000041003E003B0000000000B2
:10049000000042003F003C0000000000000043005C
:1004A00044004500000000000000000000000000C3
:1004B0000000000029000000E000E100E000000072
:1004C0001E00140004001D00000000001F001A00A0
:1004D00016001B0050002B0020000800070006003B
:1004E0004F002C002100150009001900E200000057
:1004F000220017000A000500000000004600260246
:1005000000002D000000E3005300270200002E0031
:100510000000000023001C000B0011000000000080
:10052000240018000D0010004C00000025000C00F5
:100530000E00360052002800260012000F0037007F
:1005400051002A002700130033003800000000008B
:100550002D00005234003000E400000000000000D4
:1005600000000000000000000000A80000000000E3
:10057000000000000000AA00AD0000000000D30051
:100580000000A900AC0000000000D1000000000045
:10059000AB0000000000000000000000AE00000002
:1005A000000000000000000000000000000000004B
:1005B00000000000000000000000000000000552E4
:1005C000CF0000000000000000000000CE0000008E
:1005D000000000000000D900CD00DA000000D200C9
:1005E00000000000D00000000000D3000000000068
:1005F00000000000000000000000000000000000FB
:1006000000000000000101010101010101010202DD
:1006100002020202020202030303030303030304B0
:10062000040404040404050505050506060606067B
:10063000070707070708080808090909090A0A0A35
:100640000B0B0B0C0C0C0D0D0D0E0E0E0F0F0F10D7
:100650001011111112121313141415151616171761
:10066000181819191A1A1B1B1C1D1D1E1E1F2020CD
:10067000212222232424252626272829292A2B2C17
:100680002D2D2E2F30313232333435363738393A3A
:100690003B3C3D3E3F404142434445464748494A32
:1006A0004C4D4E4F50515354555658595A5B5D5E00
:1006B0005F616264656668696B6C6D6F707273759B
:1006C00077787A7B7D7E8082838587888A8C8E8FFF
:1006D00091939596989A9C9EA0A2A3A5A7A9ABAD2D
:1006E000AFB1B3B5B7BABCBEC0C2C4C6C9CBCDCF1B
:1006F000D1D4D6D8DBDDDFE2E4E7E9EBEEF0F3F5C9
:10070000F8FAFDFF20034500720067006F00440007
:100710006F007800200045005A00200047006C0060
:100720006F007700000028035A00530041002000AA
:1007300054006500630068006E006F006C006F007D
:100740006700790020004C00610062007300000027
:100750000403090409025400030100A0FA0904007B
:1007600000010301010009211101000122440007D9
:1007700005810308000109040100010301020009C9
:100780002111010001224700070582031000010921
:100790000402000103000000092111010001226D83
:1007A0000007058303200001120100020000000879
:1007B0009732764901000102000105010980A1017B
:1007C000850319012AB700150126B7009501751098
:1007D0008100C0050C0901A101850419012AA002AC
:1007E000150126A002950175108100C005010906BA
:1007F000A1018506050719E029E7150025019508DF
:10080000750181020507190029EF1500250195F0F2
:1008100075018102050819012905950575019102E7
:10082000950175039101C005010902A1010901A10A
:100830000005091901290815002501950875018190
:10084000020501093009311581257F95027508815E
:100850000609381581257F950175088106050C0A62
:1008600038021581257F950175088106C0C00501F4
:100870000906A101050719E029E7150025019508DA
:10088000750181029501750881010507190029FF8D
:10089000150026FF00950675088100050819012935
:1008A00005150025019505750191029501750391C6
:1008B00001C011241FBECFEFDAE0DEBFCDBF12E0D2
:1008C000A0E0B1E0E4EBF8E602C005900D92AA3A90
:1008D000B107D9F726E0AAEAB2E001C01D92AF3015
:1008E000B207E1F70E94CC140C94E23389CB8098D4
:1008F000889A8198899A84988C9A85988D9A8698F6
:100900008E9A87988F9A08952098289821982998E8
:1009100022982A9823982B9852985A9853985B9823
:100920003E9846980895A1E0B0E0E9E9F4E00C941F
:100930002932873008F52091EA013091EB01232B11
:10094000B9F421E030E001C0220F8A95EAF7209542
:10095000298304E610E021E030E0AE014F5F5F4FF5
:1009600062E180E40E94662B9093EB018093EA01A0
:100970002196E4E00C9445328A30B1F038F48830A6
:1009800069F0893071F0209A2898F2CF8C3091F07C
:1009900070F08D30C1F73E9A4698EACF219A299897
:1009A000E7CF229A2A98E4CF239A2B98E1CF529A44
:1009B0005A98DECF539A5B98DBCFA1E0B0E0E3EE2C
:1009C000F4E00C942B328730D8F48091EA019091B6
:1009D000EB01892BE9F4198224E630E041E050E094
:1009E000BE016F5F7F4F80E40E940A2B9093EB0162
:1009F0008093EA01898180952196E2E00C94473248
:100A00009FB18FB1869586958C739370892BF3CFA8
:100A100080E0F2CFF2D090E09093EB018093EA0176
:100A200073DF65CFEF92FF920F931F93CF93DF9306
:100A30008091EA019091EB01892B91F08091AC02B9
:100A40008F5F8093AC0281110BC0D7D090E0909360
:100A5000EB018093EA01892B19F468D00E942F20C2
:100A600002ED15E0C0E0D0E087E0E82EEC0E8C2F20
:100A70005ADF8E2D58DF8C2FA0DF8F73F8019191F4
:100A80008F01F12C891721F031978083FF24F39493
:100A90008E2D93DF8F73F8019681891771F086830D
:100AA00081E08F29D82B30DFCF5FC730E9F68D2F5B
:100AB000CDB7DEB7E6E00C94433280E0F2CF9DD0B4
:100AC00090E09093EB018093EA011EDF10DFE0EEEF
:100AD000F5E0119285E0EE3EF807D9F70895259AE2
:100AE0002D9A0895269A2E9A0895279A2F9A089556
:100AF00056985E98089525982D98089526982E98D2
:100B0000089527982F980895F3DFF5DFF7DFF9CFE1
:100B100090E0909389008093880090938B0080935D
:100B20008A0090938D0080938C000895EDDF8FEF05
:100B3000EFDFD5DF2FEF80E792E02150804090403B
:100B4000E1F700C00000CEDF2FEF80E792E02150F8
:100B500080409040E1F700C00000C7DF2FEF80E742
:100B600092E0215080409040E1F700C00000C3DFD8
:100B70002FEF80E792E0215080409040E1F700C0E5
:100B80000000BCDF2FEF80E792E0215080409040D2
:100B9000E1F700C00000B5DFB7CF89EA809380009D
:100BA00089E08093810024982C983F98479A549824
:100BB0005C9A55985D9A6E98769A0E945B10609345
:100BC000CC057093CD058093CE059093CF056770CB
:100BD0002FEF629FC0011124959587959595879574
:100BE00097DF8091CC0584FF06C08FEF0E943821EB
:100BF0009DDF0C94FB1380E0F9CFA2E0B0E0E3E0CE
:100C0000F6E00C94293280E290E09093EB0180931F
:100C1000EA018091AD0281110EC00E94962A81E006
:100C20008093AD022FEF83ED90E321508040904000
:100C3000E1F700C0000019828FE38A8304E610E028
:100C400022E030E0AE014F5F5F4F60E080E40E9441
:100C5000662B9093EB018093EA01892B69F422E0E3
:100C600030E0AE014F5F5F4F6CE080E40E94662B86
:100C70009093EB018093EA018091EA012296E4E0EF
:100C80000C9445321092CC051092CD051092CE05F1
:100C90001092CF0584E080618093CC056091CC05F3
:100CA0007091CD058091CE059091CF050E945D1089
:100CB0000C941E100C94FC1308958730B8F46E3019
:100CC000A8F4463098F450E096E0699F400D511D1D
:100CD0001124FA0194E5899FE00DF11D1124EE0F16
:100CE000FF1FE459FE4F85919491089581E090E0B3
:100CF0000895E3CF089581E00895FDCF0895FBCFD7
:100D00000895F9CF0895F7CF0895FDCF0895089578
:100D10000895FDCF089508950895A6E0B0E0E3E9B1
:100D2000F6E00C942A3249835A839E833091B302B1
:100D300089819A81311117C03E81332389F02223A2
:100D400079F079D5182F682F89819A8153D56981D7
:100D50007A81812F0E944E122696E3E00C9446324F
:100D60005AD5182FF4CF67D569817A81F3CFFC016A
:100D7000262F408151816281738184819581CDCFFD
:100D8000CF93DF93EC0161E0F2DFBE01B6DF882391
:100D900049F061E0CE01EBDFBE01B1DF8170DF9190
:100DA000CF91089580E0FACF0F931F93CF93DF93F5
:100DB000EC0160E0DCDF8C01BE01AADFBE01C801EE
:100DC000A8DFDF91CF911F910F9108950F931F938B
:100DD000CF93DF93EC0161E0CADF8C01BE0191DFAC
:100DE000811106C080E0DF91CF911F910F9108958E
:100DF000BE01C8018ADF8823A9F3BE01C8010E9491
:100E0000E226882379F3BE01C8010E943C2388238F
:100E100049F3BE01C8010E941423882319F3BE01BF
:100E2000C8010E94E2148823E9F2BE01C8010E94B1
:100E300033158823B9F2BE01C8010E944E138823DE
:100E400089F2BE01C8010E946013882359F2BE01D5
:100E5000C8010E947913C7CF21E030E0A90102C088
:100E6000440F551F8A95E2F7CA01FDC3CF93C82FDF
:100E700081E090E00C2E02C0880F991F0A94E2F7DF
:100E80000E9451108C2FE8DFCF91089581E00895E2
:100E9000FDCF0895FBCF0895CF93C82F9CD38C2FFF
:100EA000F7DF8C2FF7DF2FEF84E39CE021508040A9
:100EB0009040E1F700C00000CF91089581E0ECDFA1
:100EC0000C940C2A80E0E8DF0C943E2A24DF0E9478
:100ED00039290E94C91F1DD081E00C9443201BD0EA
:100EE00080E00E94432018DF0C943C2981E00895A3
:100EF0000895CF93DF93D82FF9DFC82F882311F0FF
:100F00008D2FF6DF8C2FDF91CF9108950895F1CFCB
:100F1000089580E0FCCF0E943127F9CFCF930E9443
:100F20003127C82F8091AE028C1771F0C093AE02AA
:100F30000E94DC296093AF027093B0028093B102EB
:100F40009093B2028C2FE3DFCF910895ADE0B0E033
:100F5000ECEAF7E00C942B32488759876A877B8745
:100F60008C879D87911189D71F8286E0FE01389674
:100F7000DE01119601900D928A95E1F78D81811124
:100F80000CC029813A814B815C816D817E818F818A
:100F9000C4D62D96E2E00C944732CE010196F0DEE5
:100FA0008111EFCFF6CFFC012481213019F480812B
:100FB000918172C40895662321F00E9499240C94B3
:100FC00064250E94EB24FBCFCF93C82F8823B9F070
:100FD0008238B9F40E94402781FD11C089E30E9444
:100FE0006828D6D72FEF87EE93E0215080409040BD
:100FF000E1F700C0000089E30E947F28C9D7CF91A4
:101000000895833899F40E94402780FDF8CF83E546
:101010000E946828BDD72FEF81EE94E021508040D8
:101020009040E1F700C0000083E5E6CF843899F4F2
:101030000E94402782FDE3CF87E40E946828A8D75A
:101040002FEF81EE94E0215080409040E1F700C006
:10105000000087E4D1CF8CEF8C0F813A68F48C2F9D
:101060000E94DD27882321F08C2F0E947F2890D7B3
:101070008C2F0E946828C2CF80E28C0F883040F409
:10108000C77081E001C0880FCA95EAF7D9D6B6CFFC
:10109000EBE5EC0FE33040F4F0E0E45BFD4F8081E2
:1010A00090E00E946E27ABCFE8E5EC0FEB3150F4F7
:1010B000F0E0EE0FFF1FEA5EFD4F808191810E94FC
:1010C00095279DCF83E38C0F833108F098CF61E0A3
:1010D0008C2F71DF94CF882309F44DC0823861F4DE
:1010E0000E94402781FF47C089E30E94682850D7AB
:1010F00089E30E947F284CC7833851F40E9440271F
:1011000080FF39C083E50E94682842D783E5F1CF8C
:10111000843851F40E94402782FF2DC087E40E944A
:10112000682836D787E4E5CF9CEF980F913A08F30B
:1011300090E2980F983048F4877091E001C0990FC1
:101140008A95EAF7892F82D6D6CF9BE5980F933000
:1011500020F490E080E00C946E2798E5980F9B3186
:1011600020F490E080E00C94952793E3980F93315E
:1011700010F460E020CF08951F93CF93DF93182FD2
:10118000EB0122DF209731F4812FA5DFDF91CF9192
:101190001F9108958FE99FE00197F1F700C00000CB
:1011A0002197F0CF70E060E0893311F460E570E0E2
:1011B000E3CF882311F044D6EBC60895882311F0BD
:1011C00045D6E6C60895B0E0A0E0E9EEF8E00C945C
:1011D00024326C01D62FC72FFC01158106810295A0
:1011E0000F7024D6E82E8823E9F0E12E1123D1F0E8
:1011F0008C2F807F803461F080E28D0F8830F8F092
:101200008C2F807E803221F4D230C8F00023B9F0D8
:101210008091D10582FF13C082E0DED607D691E02F
:10122000E82EE926BC2EB2949FE0B922FBE0FB1524
:1012300080F1EB2DF0E0EC51FC4C0C941532E12CDC
:10124000F1CF0C2F0F70C07F11F00295007F11239A
:1012500081F0002349F080E28D0F883010F0D11129
:1012600005C0802FEDD594D68D2F40C0802FF8D5A6
:10127000FACF8D2F30DF002361F080E28D0F8830B0
:1012800010F0D11103C0802FE1D502C0802FEED520
:101290007FD6EB2DE850FF0B349708F04AC10E942F
:1012A000312735DECDB7DEB7E9E00C9440322C2F84
:1012B0002F70F22EC07FC03219F0F29480EFF82226
:1012C000DD2341F0D13081F1112309F438C000232E
:1012D000C9F0CACF8091D10582FD10C0112341F021
:1012E000FF2019F08F2DACD553D680E06DDED1CF25
:1012F00080E0F1DEFF2069F28F2DC6CF112359F077
:10130000011103C08F2D55DFC4CF013009F0C1CFCB
:101310008F2DC7D5BECF0111BCCF8F2D4FDF8F2DA5
:10132000CBD58F2DB0D5B5CF112321F0023008F0E9
:10133000B0CFE8CF0111ADCF8F2D40DFAACF002372
:10134000D9F3D93349F43FEF87EE93E03150804031
:101350009040E1F700C000008D2FBDDE9ACF8C2FAA
:1013600086958695837069F0813009F092CF8D2F34
:101370009C2F9370111102C080E090E00E9495278D
:1013800088CF8D2F9C2F9370111102C080E090E0C8
:101390000E946E277ECF612F8D2F0DDE7ACF8C2F8E
:1013A000837081F5111175CF4D2F42954695477089
:1013B000440F440F2D2F2F7030E0042E02C0220F57
:1013C000331F0A94E2F790E080E0D4FF09C08FE079
:1013D00090E002C0880F991F4A95E2F7809590959A
:1013E000C695C695C370822B932BC23039F040F45A
:1013F000C13011F041D14DCF38D14BCF44D149CF7D
:1014000032D147CF8695112311F08C2F817088231C
:1014100009F43FCF4D2F429546954770440F440F36
:101420002D2F2F7030E0042E02C0220F331F0A949C
:10143000E2F790E080E0D4FF09C08FE090E002C0C6
:10144000880F991F4A95E2F780959095C695C695A5
:10145000C370822B932BC23039F040F4C13011F0AD
:1014600066D117CF5DD115CF69D113CF19D111CF67
:10147000CF70112321F08C2F27D18D2F44CF8D2FAA
:101480009DDE8C2F2FD105CFD23F31F160F4D03FBC
:10149000B9F0D13F81F0112309F43BC00111E4CE32
:1014A0008C2F8F711DC0D33FE9F0D43FA1F78091FD
:1014B000D10582FD1FC08C2F8F71112319F310C02D
:1014C000112331F00111E5CE8C2F8F711BD1E1CEAC
:1014D000023008F0DECEF8CF8C2F8F711111D2CFF1
:1014E000F3D0D7CE112321F08C2F8F71E3D0D1CE42
:1014F000DED0CFCE112329F063E08C2F8F7155D52C
:10150000C8CE81E069D5023008F4C3CE82E064D54C
:10151000C0CE002359F0D93309F01ECFEFEFF7EE1C
:1015200023E0E150F0402040E1F714CF8C2F8F7181
:10153000A9CFEE2009F4B6CE75D480FDB3CEF60166
:1015400015826AD4C1D0C60117D066D4CBD0AACE3A
:101550000F931F93CF93DF93EC01688179818D8185
:10156000A4D18C01F2D07ED0B801CE012CDEDF9167
:10157000CF911F910F910895CF93DF93EC018C8150
:10158000882381F0CE0122DC81110FC04FD4882343
:1015900049F08D81882331F08091D10582FF02C00E
:1015A00082E01AD5DF91CF910895CE01D1DFCE012F
:1015B000FBDBF8CF90E080E00E946E2790E080E0B7
:1015C0000E9495275AD4E4D40E947D250C9464256A
:1015D0000E949628EFCF41D4FBCF92959F70963012
:1015E00091F058F4925F9F70923058F4803F19F058
:1015F00030F4883E30F481E008959A5FF4CF843F60
:10160000D1F380E00895883EB0F3813FD1F7F3CF66
:10161000FC012481222321F0808191813DD1DDCF05
:1016200080E00895A6E0B0E0E8E1FBE00C942B3206
:101630002696E2E00C944732A7E0B0E0E2E2FBE05D
:101640000C942B322796E2E00C9447320895FECF9B
:101650000895FDCF0895FADFFCDF9093E3028093B5
:10166000E20208950895F7CF08952091E2023091A3
:10167000E302822B932BEFCF2091E2023091E30221
:1016800082239323E8CF2091E2023091E302822764
:101690009327E1CFDBCF0895FDCF0895D7CF0895ED
:1016A000FDDFFADF9093E1028093E002089590E07D
:1016B00080E0F6CF21E030E0A90102C0440F551FC1
:1016C0008A95E2F7CA01ECCF21E030E002C0220F98
:1016D000331F8A95E2F78091E0029091E102822B1C
:1016E000932BDECF21E030E002C0220F331F8A951A
:1016F000E2F7209530958091E0029091E1028223FB
:101700009323CECF21E030E002C0220F331F8A9511
:10171000E2F78091E0029091E10282279327C0CF07
:101720002091E0023091E102822B932BB9CF2091DE
:10173000E0023091E10282239323B2CF2091E002B4
:101740003091E10282279327ABCF0895262F27708F
:1017500091E001C0990F2A95EAF723E07695679505
:101760002A95E1F7660F771F660F771FFA01E60FDC
:10177000F71F50E040E0682F70E08191DF01119782
:101780009B01042E02C0369527950A94E2F721703A
:1017900021952827292328272C934F5F5F4F44301A
:1017A000510559F70895A82FA77023E096958795BE
:1017B0002A95E1F7880F991F880F991FFB01E80F01
:1017C000F91F50E040E080E0219130E00A2E02C095
:1017D000369527950A94E2F721703327042E01C02D
:1017E000220F0A94EAF7822B4F5F5F4F4430510576
:1017F00059F70895262F9E3068F4863058F4682FE4
:1018000070E086E0989F600D711D112444EB52E05A
:10181000822F9CCF0895292F9E3058F4863048F4AB
:1018200090E064EB72E036E0239F800D911D11245F
:10183000BACF80E00895B0E0A0E0E1E2FCE00C94D3
:1018400024327C010091E0021091E1028091E202D9
:101850009091E302082B192BCFE0D0E0CC24C39465
:10186000D12CBC2EC6010C2E02C0880F991F0A94E1
:10187000E2F780239123892B49F4219790F7B12C2B
:101880008B2DCDB7DEB7E9E00C944032B7018C2F39
:1018900010D6019791F3F4CFCF93DF93EC01CBDF18
:1018A000BE0107D6DF91CF9108951F93CF93DF93A9
:1018B000EB019091B302992331F0CB01EDDFDF9181
:1018C000CF911F910895882351F0CB01B4DF182FD9
:1018D000682FCE018FDFBE01812FEBD5F0CFCB017A
:1018E0009ADF182FF8CF1F93CF93DF93C091E402B4
:1018F00017E08091E5028C1304C0DF91CF911F9116
:101900000895D0E01C9FF0011D9FF00D1124EA51B5
:10191000FD4F2081318142815381648175818681AF
:101920008BDE2196C770E5CF20911E0330911F03F7
:101930004091200350912103609122037091230371
:101940008091240379CECF93DF9380912403807F0D
:1019500009F04BC080912303882309F446C0E0912D
:10196000E4025091E502C0911F03D0911E036091E3
:1019700020037091210347E05E17B9F18E2F90E0AC
:10198000E49FF0011124EA51FD4F2481222381F1CB
:10199000489FF001499FF00D1124DF01AA51BD4F6E
:1019A00011962C9111972C1323C02C912D1320C02C
:1019B00015962C91159721111BC012962D913C91D3
:1019C000261B370B283C310598F4809124038F7037
:1019D000806180932403E451FD4F80818F7080618A
:1019E00080838EE193E0C8DD7EDFDF91CF910895A3
:1019F000FC013196E770C0CF482F2091E40290910E
:101A0000E50257E0291302C080E0089530E0529FBC
:101A1000F001539FF00D1124EA51FD4F81816813AD
:101A200006C08081481303C085818111EECF2F5FEE
:101A30003F4F2770E7CFA4E1B0E0E1E2FDE00C9476
:101A400021328C0186E0F801DE011F9601900D9293
:101A50008A95E1F7F8018481E5809EE1A92E93E063
:101A6000B92E9091220391111AC08823A9F0EE207B
:101A700089F0C801CDDDF82E882361F087E0F801F8
:101A8000D50101900D928A95E1F7C5018CDA5BDFF3
:101A90004BDF59C0C80170DDFF24F39454C0C080EF
:101AA000D18082809380F090230320912003309195
:101AB0002103A401421B530BFF2009F4E9C0483C59
:101AC000510508F09CC0882309F43DC090911F0384
:101AD00080912403282F207F09F056C09D1114C047
:101AE00090911E03C91210C0E11048C08F70806130
:101AF0008093240319DF8EE193E03EDD809124037F
:101B0000F8018683F12C1FC0E11038C06D2D8C2D9B
:101B100073DF6D2D8C2D70DFE82E8111F3CFCF8612
:101B2000D88A8F859889B8DE292F22952F70243086
:101B300078F49F702230A0F09923B1F0F8019681DB
:101B4000907F91F4FE2C8F2D6496ECE00C943D3246
:101B50002A5F2F70223060F0C8010EDDEF2CF2CF2B
:101B6000992311F0882371F3805E883058F3F4CF05
:101B7000803F40F3815F833078F7E4CF8091240386
:101B8000816080932403BECF9D1112C090911E03EB
:101B9000C9120EC0E1100CC08683C801EDDC87E0DD
:101BA000F801AEE1B3E001900D928A95E1F770CFB4
:101BB000C8012EDD882309F46DCFEE2009F46ACF29
:101BC00080912403803280F020911E0330911F0306
:101BD000398728879B868A86909122039C871D8659
:101BE0008E87CE010896C8DC87E0F801AEE1B3E04D
:101BF00001900D928A95E1F7A6DE96DE4DCF909189
:101C00002403292F207F89F4682D9A8A898AA601C6
:101C10007A899E2D07DD8EE193E0AEDC87E0F50149
:101C200011928A95E9F780DE6DCF882309F48BCF76
:101C300080911F038D110FC080911E03C8120BC02D
:101C4000E11009C09683C80197DC87E0F501119285
:101C50008A95E9F778CFC801DBDC882309F41ACF2D
:101C6000EE2009F417CF80912403803208F4BCCF12
:101C700020911E0330911F033A8329839C828B821B
:101C8000909122039D831E828F83CE010196ABCF5C
:101C9000483C5105A8F5882309F4FECEFE2CEE2021
:101CA00009F4F8CE80911F038D111EC080911E0390
:101CB000C8121AC08091240380FD0DC0982F907F18
:101CC00051F08683903F09F468CF982F907F905F02
:101CD0008F70892B61CF87E0F801AEE1B3E001900E
:101CE0000D928A95E1F72FCFC80192DC81117CCF4C
:101CF00080912403816080932403C8013DDC23CFBD
:101D0000682D9A8A898AA6017A899E2D8BDC87E0C4
:101D1000F50111928A95E9F7BBCEAEE0B0E0E3E9B8
:101D2000FEE00C942A32288739874A875B876C87C4
:101D30007D878E87CE0108967EDE8823A9F06C858C
:101D4000662339F0288539854A855B857D858E85B2
:101D500073DC17E08091E4029091E50289133BC0A7
:101D60002E96E3E00C94463287E0FE013896DE01C1
:101D7000119601900D928A95E1F78C85882349F39D
:101D80002091E50230E0C9010196877099274091C2
:101D9000E4024817190691F097E0929FD001939FB3
:101DA000B00D1124AA51BD4FFE01319601900D9244
:101DB0009A95E1F78093E50296DDCBCF0CDC10928B
:101DC000E5021092E40287E0EEE1F3E0DF011D920C
:101DD0008A95E9F7BECF819FC00111248A519D4F9A
:101DE0002ADE882309F4BCCFE091E4021E9FF001B3
:101DF0001124EA51FD4F2081318142815381648158
:101E00007581868119DC8091E40290E001968770EB
:101E100099278093E4029ECF80914D038695869505
:101E20008695089580914D038770089590914D0394
:101E3000977081E009F480E0089580917903089516
:101E400090917903892B80937903089580959091DF
:101E50007903982390937903089510927903089554
:101E600090917803892B80937803089580959091C1
:101E70007803982390937803089510927803089537
:101E80000895FECF089590914E03292F282329F01D
:101E90008095892380934E03F4CF08950895FECF53
:101EA000089590914F03292F2823281721F0982B6C
:101EB00090934F03F4CF089590914F03292F282337
:101EC00029F08095892380934F03E9CF089580916D
:101ED0004F03882321F010924F0380E0E0CF089554
:101EE000CF93C091790380917803C82B80914F03E1
:101EF000882329F0C82B0E94BC278111E8DF8C2F92
:101F0000CF910895CF93DF93C091EE01D091EF016F
:101F1000E7DF8883C091EE01D091EF0148E050E007
:101F200065E473E0CE010E948633892B59F088E086
:101F3000FE01A5E4B3E001900D928A95E1F7CE0190
:101F40000E944227DF91CF910895CF93DF93C091F4
:101F5000EC01D091ED01C4DF8983C091EC01D091F7
:101F6000ED0140E250E065E273E0CE010E9486336D
:101F7000892B59F080E2FE01A5E2B3E001900D92B9
:101F80008A95E1F7CE010E944F27DF91CF91089506
:101F90000E942A27882329F08091D00587FF01C05D
:101FA000D4CFB0CF0895FECF08959091D10592FF80
:101FB0000EC098E0899F90011124622B60934D031D
:101FC00083DB80914D03869586958695ECCF7CCBFF
:101FD00010924D0380E0E7CF90914D0380958923C7
:101FE00080934D03282F277059F4891749F0909159
:101FF000D10592FF05C086958695869573DBE8CF5F
:1020000008959091D10592FB222720F9281749F0D5
:1020100080FB92F99093D10580ED95E046D082E067
:10202000DBCF08958091D10582FB882780F991E06C
:102030008927E7CF81E0E5CF80E0E3CF60E070E083
:10204000CB01CEC3A3E0B0E0E8E2F0E10C942B3288
:102050006AD375D31B82CE01039688D381E090E0CA
:102060009093E3028093E2028DD31A8219828A81CF
:1020700084618A83CE01019696D30E943C190E9406
:1020800042060E9435192396E2E00C944732DACFDB
:1020900008955BC3089548C308955DC308956CC354
:1020A000089570C3089573C308957DC3089582C3CE
:1020B000089586C308958AC308958CC3089596C36E
:1020C0000895A6E0B0E0E7E6F0E10C9429320E9422
:1020D000D0298C0180917A0390917B03801791071E
:1020E00081F019821A820E94D029682F49815A8171
:1020F000792F80E090E00E94A60710937B03009365
:102100007A032696E4E00C9445320E94DC29609321
:102110008E0370938F038093900390939103609349
:102120008A0370938B0380938C0390938D0308959F
:1021300008950895FDCF08950895FEDFFBCF08951B
:10214000FECF08950895FEDFFBCF8CE493E135D4F4
:10215000F0DFF3CF81E00895FDCF0895FBCF089520
:10216000089508950895FCDFFCDFFCCF94DF811112
:1021700001C08DDF82E993E090DF80ED95E093DF91
:102180008EDF71DA8091E0029091E10285CA0E94AF
:10219000C7293AD3EBDF0E9486070E942F20D3CFB6
:1021A000A6E0B0E0E6EDF0E10C942232D5DF81113B
:1021B0000BC087DF0E94C91F0E949F250E948E07C7
:1021C0002696EBE00C943E322FD38CE7A82E83E0CA
:1021D000B82E750110E0F70101917F01812F0DD319
:1021E0001F5F1E3009F440C00817A9F380919203C5
:1021F00081FD09D3B3DF982E10E0812FFED2F82E97
:10220000F50181915F01F81651F100E0EE24E394AD
:10221000DF2CD8268D2D8E21D9F0CC24C3948F2D80
:102220008E2109F4C12C992071F009831A830E9430
:10223000D029682F8B839C8349815A81792F81E033
:102240009C2D0E94A6074C2D602F812F0E94CC1937
:102250000F5FEE0C0630F1F6F5013197F0821F5F4B
:102260001E3059F652DFA6CF0813C0CFA2CF1F935E
:10227000CF93DF9320D1EC01C11580E5D807F0F5AD
:10228000C11580E4D80708F09AC0C03ED10520F5FA
:10229000CD3CD10508F082C0C83AD10578F4C53AE2
:1022A000D10508F073C0C130D10519F1209709F1AB
:1022B000C430D105F0F4D0E0C0E01BC0C33CD10570
:1022C000D0F7C85AD0E0CC0FDD1FC15BDD4F0990BD
:1022D000D881C02DD4640DC0C11580E2D80708F0A4
:1022E000CDC0C11581E0D80708F05AC0C83ED1055D
:1022F00010F7CE01DF91CF911F910895C03682E58E
:10230000D80718F5C03482E5D80708F068C0C03295
:1023100082E5D80708F05CC0C11582E5D80708F44B
:1023200093C02C2F2695269580E2289F900111249A
:102330008C2F8370C1E0D0E002C0CC0FDD1F8A95E6
:10234000E2F7C22BD32BDD68D4CFC03A82E5D807A1
:1023500060F4C03882E5D80708F456C0CF71D0E0E9
:10236000DC2FCC27C46FD06AC4CFC03C82E5D8072D
:1023700008F45FC0C03E82E5D80708F09CCFDC2F90
:10238000CC27CC27DF71C06FD06AB3CFC55AD0E05D
:10239000CB57DD4FC881D0E0D064ABCFD065A9CF9B
:1023A0008D2F2BD1182FCE01992785D0C12FD0E0AA
:1023B000DC2FCC27CC27DF71C82BD92B9ACFCE01AD
:1023C000992779D0CC27DF70C82BD92BD06A91CF31
:1023D000CF71D0E0DC2FCC27C16FD06A8ACF2C2FF1
:1023E00026952695277080E2289F900111248C2F36
:1023F0008370C1E0D0E002C0CC0FDD1F8A95E2F708
:10240000C22BD32BDC6875CF2C2F269526952770F1
:1024100080E2289F900111248C2F8370C1E0D0E0CE
:1024200002C0CC0FDD1F8A95E2F7C22BD32BDA68EE
:1024300060CF8C2F8F71E1D0C82FD0E0DC2FCC275C
:10244000CC27DF71D06255CF8C2F8F71D6D055E05D
:10245000D695C7955A95E1F7CF70D0E0DC2FCC2701
:10246000282F30E084FF06C044E0220F331F4A9536
:10247000E1F73327C22BD32BD0693BCF8D2F8F7140
:10248000BCD0182FCE01992716D0C12FD0E0DC2F59
:10249000CC27CC27DF71C82BD92BD4CF462F7E3049
:1024A00028F4663018F4672F0C94790690E080E0E9
:1024B0000895F4DFDCCE82389105B9F1B0F48133B0
:1024C000910509F47DC048F48932910509F46DC085
:1024D0008A32910509F47BC008958533910509F48A
:1024E0005FC08933910509F10895833E9105D9F1C3
:1024F00038F4803E910529F1823E910579F10895E5
:10250000863E9105D9F1873E910509F43EC0843E8F
:10251000910541F52091D10521FF24C08091D0057E
:1025200084FD19C087EE90E008952091D0052370B6
:1025300009F05AC02091D10523FF14C089E290E030
:1025400008952091D00520FD38C03091D10530FF8D
:1025500009C024FF43C090E080E008952091D00599
:1025600022FDF7CF08952091D00522FD3AC0309189
:10257000D10530FD39C024FFF5CFEDCF2091D00536
:1025800023FFF0CF24FDE7CFCDCF2091D00523FD51
:102590002EC03091D10531FFEECF84EE90E008954A
:1025A0002091D00525FFDECFC9CF2091D00525FD94
:1025B00021C02091D10523FFD5CF89E390E0D2CF70
:1025C0002091D00526FFCECF8AE290E00895209199
:1025D000D00526FFC7CF81E390E0089583EE90E019
:1025E000089582EE90E0089580EE90E0089586EEE2
:1025F00090E0089585E390E008959091D00592FFD2
:1026000010C041E0282F2471243009F040E031E06F
:10261000282F2871283009F030E0431711F02CE002
:10262000822793FF10C041E0282F2471243109F044
:1026300040E031E0282F2871283109F030E04317BD
:1026400011F02CE082273091D10530FF10C051E00D
:10265000282F2171213009F050E041E0282F287106
:10266000283009F040E0541711F029E0822731FFAB
:1026700010C041E0282F2171213109F040E031E004
:10268000282F2871283109F030E0431711F029E094
:10269000822794FD877E089580E00895CF939C0162
:1026A000205E3245C1E02032310538F4FB01C5819E
:1026B000C11103C08F710E9436078C2FCF910895EE
:1026C0009C01FB018581882391F02B35FCE73F07B6
:1026D00061F02C359CE7390729F02A353C4741F455
:1026E000A9DC01C09FDC80E00895A6DCFCCF81E07E
:1026F00008959C01FB018581882399F02130FCE736
:102700003F0761F023309CE7390739F021153C473A
:1027100049F40E945E0780E00895BBDC0E946207D6
:10272000FACF81E00895089590E080E00E94B033F0
:1027300021E0833E9E4F09F020E0822F089563EE52
:102740007EEF90E080E00C94DE336FEF7FEF90E05F
:1027500080E00C94DE33CF93DF93EC0182E090E0D5
:102760000E94A3338883DF91CF910895FC0160819B
:1027700082E090E00C94C43383E090E00E94A333A5
:1027800090E00895682F83E090E00C94C433CF93D9
:10279000DF93EC0184E090E00E94B033998388835A
:1027A000DF91CF910895FC016081718184E090E018
:1027B0000C94DE3348E050E067E170E00C94933312
:1027C00048E050E067E170E00C94B5338FE090E0B2
:1027D0000C94AB33AB01BC018FE090E00C94D6338A
:1027E000AB01BC0183E190E00C94D633682F8EE0FE
:1027F00090E00C94C43308950895E82FF0E0E0527F
:10280000FA4F8081089508950E940A05E2EDF5E0EF
:10281000A0EEB5E011921D9285E0E03EF807D1F7F9
:102820008EE014D00C94CD05CF9382ED95E00E94FC
:102830001205282F4EE060EE75E082ED95E019D08C
:10284000C82F0E945A068C2FCF910895CF93C82F7E
:1028500090E00E9452328093970390939803282F20
:10286000FC018E2F821B8C1710F0CF9108951192CE
:10287000F8CFB0E0A0E0EFE3F4E10C942632082FAB
:10288000F92EE62ED72E142FC22F10929303D0913B
:102890009403DD2309F451C00E94D02920919503AF
:1028A00030919603AC01421B530B9A01909396030F
:1028B000809395034F3F510509F0C8F4452B99F0DB
:1028C000109294031092990340919703E42FF09192
:1028D000980390E030E08E2F841B811758F03093DE
:1028E000940390939903C11136C0CD2F28C02FEFC8
:1028F00030E0E6CF8081882321F0281720F0108275
:102900009D2F3196E8CF821B80833D2FFACF99917E
:102910003C91391779F0308131110CC060834C91B2
:102920004927282F30E0242B81E0232B09F480E075
:102930009C9321E0319611961EC0211106C0809112
:102940009903882301F1C11106C00E94D0299093F8
:102950009603809395031092990350919703809169
:10296000930320919403AE2DBD2DC02FDF2DE52FB5
:10297000F09198036EE19E2F951B911740F2809382
:1029800093032093940380919303CDB7DEB7E7E0E0
:102990000C94423205CC08950E946A290E94D62CDC
:1029A000D4DB0E94EE2CF3DB0E94F72C0E94FA2C61
:1029B000F1DF0E94102DD7DBF9CF9093AB0280930B
:1029C000AA0208950F931F93CF938C01FB01C58139
:1029D000CC2309F446C031DA8272F801E052F8479C
:1029E000EB30F10538F4E051FC4C0C9415320E94A8
:1029F0006420C0E08C2FCF911F910F910895882300
:102A000029F00E94B620F5CF8823D9F30E94AA208E
:102A1000F0CF882329F00E94E220EBCF8823D9F35E
:102A20000E94D520E6CF882329F00E940021E1CF23
:102A30008823D9F30E94F120DCCF882329F00E945B
:102A40001E21D7CF8823D9F30E940F21D2CF88230C
:102A500029F00E943621CDCF8823D9F30E942A2164
:102A6000C8CFC1E0C7CF1F93CF93DF93EC01FB0129
:102A7000158111110FC0E1D98272FE01E054F847AF
:102A8000ED30F10508F043C0E550FC4C0C941532D4
:102A90000E947320812FDF91CF911F9108950E9492
:102AA0008320F8CF0E946420F5CF882329F00E946C
:102AB000B620F0CF8823D9F30E94AA20EBCF882339
:102AC00029F00E94E220E6CF8823D9F30E94D52086
:102AD000E1CF882329F00E940021DCCF8823D9F39D
:102AE0000E94F120D7CF882329F00E941E21D2CF47
:102AF0008823D9F30E940F21CDCF882329F00E948B
:102B00003621C8CF8823D9F30E942A21C3CF11E0F0
:102B1000C1CFEF92FF920F931F93CF93DF939B014F
:102B2000682F31110EC0442329F0E82FF0E0EC5F4C
:102B3000F94F6491762F862FCDB7DEB7E6E00C947F
:102B40004332C32FD0E0E82FF0E0442321F0EC5FC4
:102B5000F94FE491F0E046E0249FC00111240FEF0B
:102B600010E0B8010E94EE31AB01822F90E0880F97
:102B7000991F25E5249FB001259F700D1124861B08
:102B8000970B982F990F980FB8016C1B7D0B6E9FB8
:102B9000D0016F9FB00D7E9FB00D11248B2F939F9E
:102BA00090011124232F3327B801621B730B6E9FF2
:102BB00090016F9F300D7E9F300D11247801E91A2E
:102BC000F108EC9EB001ED9E700DFC9E700D11247D
:102BD000672F7727061B170B0E9FE0010F9FD00D65
:102BE0001E9FD00D11247D2F9E2F4230510599F04C
:102BF00048F44115510569F04130510581F07B2FB2
:102C0000832F07C04430510569F080F046305105EC
:102C1000B1F7692F91CF9B2F8D2F7E2FFACF7E2F6B
:102C2000932FF7CF9D2F7B2F8E2FF3CF732F9B2FBB
:102C3000FBCF41E06ECF282F269F020E20E0211D02
:102C40001124822F089530E020E0869F080E211D78
:102C5000969F200D311D1124290F311DC9010895A2
:102C6000AC018230910508F408959FEF413E8EE15A
:102C7000580740F49A0195E0369527959A95E1F723
:102C800098E0920F61E0E62FE90FFF27FF1F9F01F9
:102C900035952795822F229FF001239FF00DF00D8F
:102CA00011244E175F0738F49FEF920F961758F7CD
:102CB0008FEF860F08952F3FE9F361E0620FF6CFA3
:102CC0004091FC015091FD0125E038E0429FC00198
:102CD000439F900D529F900D1124875E994C9093C5
:102CE000FD018093FC01890F0895CF93C82FE8DF81
:102CF0008C9FC0011124892FCF910895E82F86FD64
:102D0000E0952E2F2F7086FD2F5FE695E695E695D0
:102D1000E670F0E0E857FD4F9181929F902D212DB4
:102D2000112492959F702295207F922B2081920FE3
:102D300087FD919580E8890F08951F93CF93DF93C6
:102D4000D62FC72F182F822F8695D8DF805887FD62
:102D50008195612F880F6FDF6D2F7C2FDF91CF91D1
:102D60001F9108950F931F93CF93DF93162FC72FB3
:102D7000D82F022FE42FF0E0EE0FFF1FE65AFE4F90
:102D800064EE808158DF4C2F50E0282F30E0245E25
:102D90003F4F201B310937FF03C031952195310981
:102DA00083E0220F331F8A95E1F7CA01821B930B40
:102DB00097FD80E06C2F3FDF612F782F8D2FDF9103
:102DC000CF911F910F9108950F931F93CF93DF938E
:102DD000162FD72FC82F022FE42FF0E0EE0FFF1F82
:102DE000E65AFE4F64EE808126DF4C2F50E0282FFC
:102DF00030E0245E3F4F201B310937FF03C031957F
:102E00002195310983E0220F331F8A95E1F7CA012A
:102E1000821B930B97FD80E06C2F0DDF612F7D2FC0
:102E2000DF91CF911F910F910895622F0895E42FA4
:102E3000F0E0EE0FFF1FE65AFE4F6081621B08951F
:102E4000E42FF0E0EE0FFF1FE55AFE4F6081621B9A
:102E50000895322F50E0FA01EE0FFF1FE55AFE4FA2
:102E60009081905297FD9195440F551FFA01E65AB3
:102E7000FE4F2081231B330B290F311D97FD3A95FF
:102E8000620F0895EF920F93972F23E0029FB001F6
:102E90001124759567956E0D792F0F91EF90089518
:102EA0000F93CF93DF93D72FC82F47FD419588E32A
:102EB00090E0841B910947FD9395889FB001899FFD
:102EC000700D700D1124229FC001239F900D900D55
:102ED0001124860F971FC4DE982F990F890F682F32
:102EE000600F7D2F8C2FDF91CF910F9108950F935D
:102EF0001F93522F10E0F801EE0FFF1FE55AFE4F0F
:102F0000A081A052BB0B9D015203F001539FF00D15
:102F10001124000F111FD801A65ABE4F0C91005763
:102F2000110B40039001419F300D11242E0F3F1FC4
:102F300037FF02C021583F4F220F232F221F330B90
:102F4000620F1F910F9108950F931F93522F10E05E
:102F5000F801EE0FFF1FE55AFE4FA081A052BB0BF8
:102F60009D015203F001539FF00D1124000F111F1A
:102F7000D801A65ABE4F0C910057110B4003900187
:102F8000419F300D11242E0F3F1F37FF02C0215CDF
:102F90003F4F96E0359527959A95E1F7620F1F917F
:102FA0000F9108950F931F9310E0F801EE0FFF1F8C
:102FB000E65AFE4F9081905797FD9195000F111F93
:102FC000F801E55AFE4F00810052110B2003F00179
:102FD000219FF00D112408E310E0091B110997FD52
:102FE000139540039001419F300D1124E20FF31F10
:102FF0009F01220F331F2E0F3F1F37FF02C02158A2
:103000003F4F220F232F221F330B620F1F910F916F
:1030100008951F93CF93DF93C62F172FD82F822F9A
:1030200086956CDE805887FD81956CE0880F03DE05
:10303000682F6C0F712F8D2FDF91CF911F91089505
:103040000F931F93CF93DF93D62F072F182FC42FE3
:10305000822F54DEEC2FF0E0EE0FFF1FE65AFE4FFA
:1030600090819058890F87FD81956CE0880FE3DD92
:10307000682F6D0F702F812FDF91CF911F910F91CE
:1030800008951F93CF93DF93C62F172FD82FE42FC8
:10309000F0E0EE0FFF1FE65AFE4F8081821B87FD96
:1030A000819568E1C8DD682F6C0F712F8D2FDF913E
:1030B000CF911F9108952091F20530E1230F08F47C
:1030C0002FEF60E1822F90E0BEDDBC0188EB9BE03A
:1030D0000E94EE3190E080E0089590915E04892B8B
:1030E00080935E040895FC019B01009729F480E021
:1030F00077FF2BC080E80895AC0197FF04C04427F8
:103100005527481B590BB901640F751F37FD10C0B7
:10311000241B350BC901A5E0880F991FAA95E1F77B
:103120000E94023280E2861BF7FF0FC0819508954E
:10313000CB0165E0880F991F6A95E1F7BA01621B20
:10314000730B0E94023280E6EECF08950F931F9317
:10315000CF93DF93162FC72FD82FC901272F201BFE
:10316000022FBA01C0DF982F990F990F891B6C2F7E
:10317000800F61DD612F782F8D2FDF91CF911F910F
:103180000F9108950F931F93CF93DF93162FD72F8F
:10319000C82FC9012C2F201B022FBA01A4DF982FA2
:1031A000990F990F891B6C2F800F45DD612F7D2FA3
:1031B000DF91CF911F910F910895EF920F931F937D
:1031C000CF93DF93162FC72FD82FC9010E19070FE2
:1031D000BA0189DF6C2F081B802F2DDD612F782F1E
:1031E0008D2FDF91CF911F910F91EF900895EF9266
:1031F0000F931F93CF93DF93162FD72FC82FC9019B
:103200000E190C0FBA016FDF6C2F081B802F13DD16
:10321000612F7D2FDF91CF911F910F91EF90089536
:103220000F93CF93DF93D72FC82FC901BA015BDF6C
:10323000682F600F7D2F8C2FDF91CF910F91089514
:10324000EF920F93CF93DF93D72FC82FC9010E1999
:10325000BA0149DF602F681B7D2F8C2FDF91CF9142
:103260000F91EF900895E5CC08958EEE95E00E94C1
:10327000591010925E040895EEEEF5E085E3808328
:103280008091130290911402A09115028183928380
:10329000A3838FE784838FEF8583CF010E9459102A
:1032A00010925E040895E0919602F09197020995BC
:1032B00008950895FF920F931F93CF93DF93162FD6
:1032C000042FF22EC0919202D0919302F2DF2F2DA3
:1032D000402F612FFE010995CDB7DEB7E5E00C94D4
:1032E0004432B0E0A0E0E7E7F9E10C942632C82FC1
:1032F000D0E0FE01E654FE4F8081682329F1D09092
:10330000F0050091F1051091EF05E12EF12C83E01D
:10331000ECDC282FC7018C549F4F68E671E00E94B7
:1033200002328E199F0997FD03969595879595957D
:103330008795612F289F600D11247D2D802F93DFAD
:10334000472F282FCE01B6DFCDB7DEB7E7E00C94CC
:1033500042321F93CF93DF93C82FD0E0FE01E65493
:10336000FE4F8081682371F0ABDC182F80E8BDDC54
:103370007FE7780F612F8091F10575DF472F282FA8
:10338000CE0198DFDF91CF911F910895E0919402D3
:10339000F0919502099508950C94AA10089581E082
:1033A0000895FDCF0895FBCF0895FBDFFCCF982F44
:1033B000990F990F890F95E0980F913308F090E3DA
:1033C0000895B0E0A0E0E7EEF9E10C941F325C0153
:1033D0004B01FC018081EBDFC82F192F6091F205B2
:1033E00066958091F6059091F7052DDCF82ED0E0DA
:1033F000C11748F081E0103308F080E0CDB7DEB7A8
:10340000EEE00C943B32FE01E654FE4F8081F50164
:1034100091818923A9F1CE01880F991F8A5F9E4F60
:10342000FC01EC5AFF4F2081422F4057550B6A0197
:103430008B5A9F4FFC018081282F2052330B39017A
:10344000449F9001459F300D300D1124669CC001B2
:10345000679C900D900D1124820F931F01DC082FA3
:103460006091EF057091F0058091F105EF2C9301CB
:10347000A601F4010995F7DE472F282FCE011ADFA8
:103480002196B6CF6DED78E19CCF67EF78E199CFCB
:1034900062E477E196CF60E279E193CFB0E0A0E01B
:1034A000E4E5FAE10C9424326C017B01FC0180819B
:1034B0007EDFC82F192F6091F20566958091F60581
:1034C0009091F705C0DBB82ED0E0C11748F081E03D
:1034D000103308F080E0CDB7DEB7E9E00C9440325D
:1034E000FE01E654FE4F8081F60191818923F9F0B7
:1034F000CE01880F991F8A5F9E4FFC01EB5AFF4F48
:1035000020812052330B8C5A9F4FFC014081405741
:10351000550B6091EF057091F0058091F1050B2D31
:10352000F7010995A0DE472F282FCE01C3DE219693
:10353000CCCF66EA78E1B2CF62EC78E1AFCF60E55C
:1035400077E1ACCF60E179E1A9CFB0E0A0E0EBEAB0
:10355000FAE10C9425327C018B01FC01808127DF8C
:10356000C82FD92E6091F2056695669521E0620F0D
:1035700008F46FEF8091F6059091F70564DBC82E93
:10358000D0E0CD1550F081E09FE29D1508F480E079
:10359000CDB7DEB7E8E00C944132FE01E654FE4FB1
:1035A0008081F7019181892379F06091EF05709115
:1035B000F0058091F1052C2D4C2FF801099553DE73
:1035C000472F282FCE0176DE2196DBCF6DE976E1FD
:1035D000BCCF62EB76E1B9CF64EE76E1B6CF65E1C0
:1035E00077E1B3CF67E177E1B0CF60E277E1ADCFCC
:1035F00069E277E1AACF69E078E1A7CF60E278E1FC
:10360000A4CF61E478E1A1CFB0E0A0E0EAE0FBE183
:103610000C9421325C016B01FC018081C8DEC82F53
:10362000F92E6091F205669566958091F605909168
:10363000F70509DB182F80E4810F60DB90E8992EF5
:10364000980E812F5BDB20E8822E880ED0E0CF150C
:1036500050F081E09FE29F1508F480E0CDB7DEB71F
:10366000ECE00C943D32FE01E654FE4F8081F50102
:103670009181892389F06091EF057091F005809127
:10368000F105E12E0C2F282D492DF6010995EBDDD2
:10369000472F282FCE010EDE2196D9CF67E777E19D
:1036A000B3CF64EA77E1B0CF62ED77E1ADCFB0E0C0
:1036B000A0E0EDE5FBE10C9425327C01FC0180816A
:1036C00076DEC82F192F6091EF057091F00580917B
:1036D000F105C9DD062FD72EC82ED0E0C11748F05E
:1036E00081E0103308F080E0CDB7DEB7E8E00C945D
:1036F0004132FE01E654FE4F8081F701918189231A
:1037000029F02C2D4D2D602FCE01D4DD2196E6CF52
:10371000B0E0A0E0EEE8FBE10C9422327C01FC0179
:10372000808145DEC82F192FD090F0050091F1055A
:10373000D091EF056D2F7D2D802F95DDC62EB72EF4
:10374000A82E6091F2056D0F7D2D802F8CDD062F48
:10375000D72E982ED0E0C11748F081E0103308F042
:1037600080E0CDB7DEB7EBE00C943E32FE01E654CC
:10377000FE4F9081F7018181892351F0292D4D2D34
:10378000602F90FD03C02A2D4B2D6C2DCE0192DDB4
:103790002196E1CFB0E0A0E0E0EDFBE10C94253212
:1037A0008C01FC01808103DEC82FF92ED090F0053A
:1037B000C090F1056091F20580E43DDAE82ED0E09A
:1037C000CF1550F081E09FE29F1508F480E0CDB75F
:1037D000DEB7E8E00C944132FE01E654FE4F8081F2
:1037E000F80191818923A1F0FE01EE0FFF1FE55A38
:1037F000FE4F808182958F706091EF058E9D600DE8
:1038000011247D2D8C2D2FDD472F282FCE0152DD49
:103810002196D6CFB0E0A0E0E0E1FCE10C942532A7
:103820008C01FC018081C3DDC82FF92ED090F005FA
:10383000C090F1056091F20580E4FDD9E82ED0E05A
:10384000CF1550F081E09FE29F1508F480E0CDB7DE
:10385000DEB7E8E00C944132FE01E654FE4F808171
:10386000F80191818923C1F0FE01EE0FFF1FE65A96
:10387000FE4F6081E69EB001112495E07595679535
:103880009A95E1F78091EF05680F7D2D8C2DEBDC8B
:10389000472F282FCE010EDD2196D2CF0F931F93F5
:1038A000CF93DF93EC018881811118C06091F205FC
:1038B00020E1620F08F46FEF8091F6059091F70513
:1038C000C2D96AE070E00E94EE31892B39F480E3BE
:1038D0000CDA90E09093F5018093F401888167DD24
:1038E000092F182F9A8191111AC02091F40130915B
:1038F000F5018217130609F0A0F40217130689F0E8
:1039000080F06981822FEDDC81E390E09093F501F6
:103910008093F40106C06981812FE3DC1F5F1017DB
:10392000D0F381E0003308F080E0DF91CF911F9168
:103930000F9108950F931F93CF93DF93EC0188812C
:10394000811118C06091F20520E1620F08F46FEF59
:103950008091F6059091F70576D965E070E00E94B8
:10396000EE31892B39F480E3C0D990E09093F301D4
:103970008093F20188811BDD092F182F9A81911104
:103980001AC02091F2013091F3018217130609F059
:10399000A0F40217130689F080F06981822FD9DC28
:1039A00081E390E09093F3018093F20106C0698176
:1039B000812FCFDC1F5F1017D0F381E0003308F0B8
:1039C00080E0DF91CF911F910F910895A5E0B0E0C5
:1039D000ECEEFCE10C941B32782E8091FA018711F9
:1039E00023C09091EE0593702091FB0130E081E0BF
:1039F0009217130609F480E081708093F901809199
:103A0000F3059091F801981731F08093F80140E0A8
:103A100060E080E0BBDC2EE1271588F0E72DF0E0C8
:103A2000E85FFB4C0C94153281E0E6CF3091F90150
:103A30003983332351F040E060E080E0A7DC198255
:103A400004C087EF91E033DE89838091F7018F5FB7
:103A50008093F701E981E1110CC082E08093F601C7
:103A60008091F901811105C0711003C083E080933A
:103A7000F6012596E2E10C94373287EF91E048DEBB
:103A8000E3CF87EF91E086DEDFCF87EF91E0C2DE04
:103A9000DBCF87EF91E09ADDD7CF87EF91E099DD1B
:103AA000D3CF87EF91E098DDCFCF87EF91E041DD75
:103AB000CBCF87EF91E040DDC7CF87EF91E0E2DC2D
:103AC000C3CF87EF91E0E1DCBFCF87EF91E087DDE7
:103AD000BBCF87EF91E086DDB7CF87EF91E085DD43
:103AE000B3CF87EF91E084DDAFCF87EF91E0D0DCFB
:103AF000ABCF87EF91E023DDA7CF87EF91E022DD09
:103B0000A3CF87EF91E0C7DC9FCF87EF91E0C6DDC1
:103B10009BCF87EF91E0C5DD97CF87EF91E0C4DDC4
:103B200093CF87EF91E0BADE8FCF87EF91E002DF8E
:103B30008BCF87EF91E05FDD87CF87EF91E05EDD90
:103B400083CF87EF91E05DDD7FCF8091F701811119
:103B50001CC080915C0490915D040E9451294091A9
:103B6000F20520E431E0241B31092817390768F4F5
:103B700080E3BBD890E09093F1018093F0010E9424
:103B8000D02990935D0480935C048091F7010FDC51
:103B90009A832091F0013091F1018217130609F008
:103BA00008F592171306F1F0E8F026543E4FD901BC
:103BB0008C919091F8018923A9F082D881FF19C0D6
:103BC000198270E080E069814EDB472F282F8091B9
:103BD000F0019091F1016EDB81E390E09093F101AF
:103BE0008093F001B1E0B983EA81E03308F42DCF8E
:103BF00026CF66D8898380E878D87FE7780F8091D0
:103C0000F105E1CF409158045091590460915A0454
:103C100070915B048091F6059091F705A091F805ED
:103C2000B091F90584179507A607B70708F407CFE1
:103C30008091F9018823D9F040E060E080E0A6DBC4
:103C400008EC13E01D821C823BD881FF2EC0D801F6
:103C50001C9211961C92119712961C92EC81FD8178
:103C60003196FD83EC830D5F1F4FF09769F78091CC
:103C7000F7019DDB092FC82ED12C93E0899F90017D
:103C8000112428533C4F3D832C83C01648F121E07A
:103C90002983003308F01982003308F4D6CE20E0DF
:103CA000802F8150990B7C014DC00AD8D82E80E816
:103CB0001CD87FE7780FEC80FD80EE0CFF1CEC81B8
:103CC000FD81EE0EFF1E970128533C4F79016D2DAB
:103CD0008091F105C8DAD7016D937D938C93BECFA7
:103CE000F601E654FE4F80819091F801892359F046
:103CF000AC81BD8112962C91129711964C9111971F
:103D00006C91C601D7DAEC81FD813396FD83EC839B
:103D1000FFEFCF1ADF0AB9CFFC01EE0FFF1FE80F4C
:103D2000F91FE853FC4F0196DC01AA0FBB1FA80F37
:103D3000B91FA853BC4F8D919D91AC918083918305
:103D4000A2832F5F822F90E08E159F052CF30E9497
:103D500060168701000F111F81FF20C00E0D1F1D6F
:103D6000F801E853FC4F108211821282A4D900910D
:103D7000F6051091F7052091F8053091F905DC0161
:103D8000CB01800F911FA21FB31F80935804909303
:103D90005904A0935A04B0935B0457CE0E94601656
:103DA0008A8380E80E9475167FE7780F0E0D1F1D2D
:103DB00008531C4F6A818091F10555DAD8016D9343
:103DC0007D938C93D3CF8091F901882321F040E03B
:103DD00060E080E0DBDA8091F701E9DA9B834091D3
:103DE000F6055091F7056091F8057091F9058091FD
:103DF000C4039091C503A091C603B091C703841773
:103E00009507A607B70708F0A8C06091EF05709165
:103E1000F0058091F10527DA362E7A83282E0AE9FB
:103E200013E0E6E0F1E0FD83EC83AC80BD8096E03A
:103E3000A90EB11C8C809D8065017801198202C099
:103E4000F1E0F983D7018D917D01412C512C612C3A
:103E5000882319F0422C5A80632CD401ED914D0136
:103E6000F0E0DF01A654BE4F9C918091F8019823A9
:103E700029F0242D452D662DCF011CDAD601EE91B7
:103E80006D01F0E0DF01A654BE4F9C918091F801D6
:103E9000982329F0242D452D662DCF010BDAF7014B
:103EA000808131978083F981F13051F6D8011296E3
:103EB0008C91D12CE12CF12C882319F0D22CEA80A2
:103EC000F32CAC81BD811296EC91F0E0DF01A65499
:103ED000BE4F9C918091F801982329F02D2D4E2DF5
:103EE0006F2DCF01E7D9AC81BD811396EC91F0E045
:103EF000DF01A654BE4F9C918091F801982329F0D0
:103F00002D2D4E2D6F2DCF01D5D90E9460168370B7
:103F100091E009F090E0F80192830D5F1F4FBD82A0
:103F2000AC8295012A55314009F07FCFC4D8009169
:103F3000F6051091F7052091F8053091F905DC019F
:103F4000CB01800F911FA21FB31F8093C4039093D6
:103F5000C503A093C603B093C703A1E0A983BB81A7
:103F6000B03308F472CD6BCD81E00895FDCF089594
:103F7000FBCF0895CF93DF93FC018081815017DA46
:103F8000EC016D2FF3DF6D2F8C2FF2DFDF91CF91DE
:103F90000895CF930E94DC2960935F0470936004BE
:103FA000809361049093620420916304C0E0211126
:103FB00008C02091EE05C22FC37019F0C22FC6951C
:103FC000C6952091F6012130B1F0222331F0223044
:103FD000F9F0233039F1CF9108951092F7016093F1
:103FE000F6057093F7058093F8059093F90581E045
:103FF0008093F601F0CF8C2FE9DCCC2361F3809124
:10400000F601823009F4D1D987EF91E0B3DFE3CF35
:10401000C093FA018091EE0583708093FB0143D930
:1040200083E0E6CF80915E04882331F08EEE95E048
:104030000E94591010925E046091F6057091F70588
:104040008091F8059091F9050E945A296A3171050D
:104050008105910508F4BFCF1092F601BCCFE09125
:104060009002F0919102099581E080935E048EEEBA
:1040700095E00E94571010925E048091EE058C7FAF
:1040800009F4FAC80895CF93C82F882381F080914E
:10409000630481110CC09ADC1092FA018091EE0544
:1040A00083708093FB01FFD883E08093F601C09377
:1040B0006304CF910895EEEEF5E0908121E0922720
:1040C00090831092F60109C881E0F5CF8091EE054A
:1040D000837011F41092F6018091EE058C7F81605F
:1040E0008093EE050895F2DF81E00C946D188091C5
:1040F000EE05837011F01092F6018091EE058C7F31
:104100008093EE050895F3DF81E00C946D18909193
:10411000EE05937051F0811109C094609093EE0503
:104120001092F601862F0C946D1808958F3110F0BF
:104130009867F4CF282F220F220F922BEFCF682FF2
:104140009091EE059695969581E0890F8F3108F054
:1041500081E0DDCF81E0F3CF682F9091EE05969559
:1041600096958FEF890F09F48EE1D1CF81E0F4CFDE
:104170009091EE05937049F08093EF056093F00500
:104180004093F105822F0C946D180895AEEEB5E0C2
:104190001196EC911197F0E0282F13964C911397FC
:1041A00012966C91CF010896E3CF81E0EFCFEEEE4F
:1041B000F5E09181282F43816281E92FE850FF0BC0
:1041C000CF01D6CF81E0F3CFEEEEF5E0628120E1C2
:1041D000620F08F46FEF9181282F4381892F90E0BF
:1041E000C7CF81E0F1CFEEEEF5E0628120E1621B06
:1041F00008F460E09181282F4381892F90E0B8CFA7
:1042000081E0F1CFEEEEF5E0438120E1420F08F4CA
:104210004FEF9181282F6281892F90E0A9CF81E013
:10422000F1CFEEEEF5E0438120E1421B08F440E0DF
:104230009181282F6281892F90E09ACF81E0F1CF80
:10424000EEEEF5E0248130E1230F08F42FEF248314
:104250000C946D1881E0F4CFEEEEF5E0248130E1AE
:10426000231B08F420E024830C946D1881E0F4CF24
:104270008093F30581E00C946D18A1E0B0E0E3E4D5
:10428000F1E20C9429324983E82FF0E0E856FD4F23
:10429000808104E610E021E030E0AE014F5F5F4F27
:1042A000880F0E94662B2196E4E00C944532462F3D
:1042B0006DEFE3CFEF92FF920F931F93CF93DF93B6
:1042C000282F30E094EA899FE0011124CC59DB4F7C
:1042D00084E2F82E28563D4FF901E080EE0C04E60A
:1042E00010E020E130E0AE016F2D8E2D0E94662B94
:1042F000F0E1FF0E609684EBF812F1CFCDB7DEB798
:10430000E6E00C944332CF93DF93C82F6BE0CFDF0E
:1043100040E06AE08C2FB1DF8FE39CE90197F1F771
:1043200000C0000040E060E08C2FA7DF40E061E0CB
:104330008C2FA3DF40E066E08C2F9FDF60E08C2FA6
:10434000B6DFD0E040E06D2F8C2F97DFDF5FD231FA
:10435000C9F740E06D2F8C2F90DFDF5FD432C9F7B3
:1043600040E06D2F8C2F89DFDF5FD43BC9F76BE016
:104370008C2F9DDF41E06AE08C2F7FDF60E08C2F87
:1043800096DFDF91CF910895A4E0B0E0EAECF1E28E
:104390000C942732F62E042F122F8033910508F04B
:1043A00047C0880F991F880F991FBC0164557F4F24
:1043B00044E050E0CE0101960E947D3389818370F4
:1043C0002A8130E0482F50E064EA869FC001112422
:1043D0008C599B4FFC01E20FF31F6081AB81EC8095
:1043E0006F110DC0BC016A0F711DFB01608160136C
:1043F00006C08E0D911DFC0180818117C9F064EA11
:10440000649FC001659F900D11248C599B4F280F0C
:10441000391FF901F082A80FB92FB11D0C93FC01CF
:10442000EE0DF11D108380579F4F21E0FC0120838A
:104430002496E6E00C944332FF920F931F93CF93A0
:10444000DF93182F062FF42ED0E0C0E02F2D402F41
:10445000612FCE0199DF2196C033D105B9F7CDB7D1
:10446000DEB7E5E00C944432A4E0B0E0EAE3F2E227
:104470000C942832F62E042F122F24E0829FB001D4
:10448000112464557F4F44E050E0CE0101960E9414
:104490007D339A817B81F72FF695F695F6956C81A1
:1044A000E62FE695E695E69577706770A92FA695B5
:1044B000A695A695B0E0977021E030E001C0220FEC
:1044C0009A95EAF78981982F937044EA949FA00DFA
:1044D000B11D1124AB50BB4FFF2009F442C09C9189
:1044E000922B9C938370482F50E024EA829FC00156
:1044F00011248C599B4F8F0F911DDC01AF56BF4F7C
:104500009C9121E030E001C0220F7A95EAF7002368
:1045100069F1292B2C9324EA249FC001259F900D3B
:1045200011248C599B4FE80FF92FF11DEF56FF4FC7
:10453000208181E090E001C0880F6A95EAF711239D
:10454000C1F0822B808384EA849FF001859FF00D67
:104550001124E95FFA4F81E080832496E5E00C9412
:104560004432922F90952C919223BBCF20952923F2
:10457000D1CF80958223E6CFCF93DF9394EA899FB2
:10458000E0011124CC50DB4F9881992311F092DE89
:104590001882DF91CF910895EF92FF920F931F93AE
:1045A000CF93DF93082FE82EF12CC4EACE9DF001C3
:1045B000CF9DF00D1124E95FFA4F80818823B1F07F
:1045C0000C9FE0011124CB50DB4F10E04991612F8B
:1045D000802F53DE1F5F1231C9F784EA8E9DF001F0
:1045E0008F9DF00D1124E95FFA4F1082CDB7DEB731
:1045F000E6E00C944332CF9399D780E084DE81E0EB
:1046000082DEC0E021E041E061E08C2F2DDFCF5F52
:10461000C033C1F780E0C0DF81E0BEDFCF910895F5
:1046200080E0AADF81E0A8CFCF93DF93EB01863152
:104630009C4701F50E941D0F9D81992391F08A7A74
:1046400091E009F490E09093AC05811108C089E2F3
:104650003FD50E94C80F80E0DF91CF91089585E398
:10466000F7CF8091AC05811103C089E248D5F1CF25
:1046700085E3FCCF81E0F0CFCF93DF93EC01FB012A
:104680008581882309F4CEC09E013057233231053D
:1046900008F0AEC080ED95E00E945310FE01E1509D
:1046A000F047E232F10520F4E95DFB4C0C94153241
:1046B0008091D00581608093D00593C08091D10511
:1046C00088608093D1058DC08091D0058260F3CF42
:1046D0008091D0058460EFCF8091D0058860EBCFCA
:1046E0008091D1058160EDCF8091D1058260E9CFC5
:1046F0008091D0058061DFCF8091D0058062DBCFD3
:104700008091D0058064D7CF0E94EB0A8091D005BC
:104710008068D1CF8091D0058C60CDCF8091D105BC
:104720008360CFCF8091D0058E7FC5CF8091D1059A
:10473000877FC7CF8091D0058D7FBDCF8091D00579
:104740008B7FB9CF8091D005877FB5CF8091D10580
:104750008E7FB7CF8091D1058D7FB3CF8091D0056B
:104760008F7EA9CF8091D0058F7DA5CF8091D00578
:104770008F7BA1CF0E94EB0A8091D0058F779BCFD2
:104780008091D005837F97CF8091D1058C7F99CF81
:104790008091D00582FB992790F921E0922790FB28
:1047A00082F990FB83F987CF8091D105982F90955E
:1047B00091708E7F892B90FB81F983CF9091D005EA
:1047C000892F8F7B96FF806476CF0E94EB0A9091B1
:1047D000D005892F97FB87F980586DCF81E00E9423
:1047E0005F1080ED95E00E9455100E94EB0A80E07A
:1047F000DF91CF91089580E0F2CF9091D005892F7D
:104800008F7E94FF806157CF9091D005892F8E7F46
:1048100090FF816050CF9091D105892F877F93FFC2
:1048200088604FCF81E0E4CF282F35EB2303C00110
:10483000112497FF04C080589109892F089580584A
:104840009F4FFBCF8091B40580FF0DC060910302A4
:1048500070E0660F771F6038710570F5611571059E
:1048600069F1862F089581FF07C06091030284E0FB
:10487000689FB0011124EFCF6091030282FD0AC04E
:104880008091B3058823A9F0209102026091030270
:10489000821710F088E0ECCF869FC001112433E02E
:1048A000880F991F3A95E1F7622F70E00E9402325B
:1048B000D2CF68E070E0D5CF8FE7089581E008950A
:1048C0008091B40580FF0CC06091FF0170E0759588
:1048D0006795759567956115710549F1862F08955E
:1048E00081FF06C06091FF0170E075956795F3CF79
:1048F0006091FF0182FD0BC09091B2059923A1F058
:104900006091FE018091FF01961738F0682F70E0EA
:104910006038710500F38FE70895899FC001112465
:1049200070E00E940232F4CF61E070E0D7CF81E006
:1049300008958D3C29F486DF81958093B70508950D
:104940008E3C11F47FDFF9CF8F3C29F47BDF81951A
:104950008093B6050895803D11F474DFF9CF893D49
:1049600021F4AEDF8093B80508958A3D19F4A8DFDD
:104970008195F8CF8B3D29F4A3DF81958093B9050C
:1049800008958C3D11F49CDFF9CF9FE2980F983089
:1049900070F4815D990B21E030E001C0220F8A950F
:1049A000EAF78091B505822B8093B50508958D3D7A
:1049B00031F48091B40581608093B40508958E3DF3
:1049C00021F48091B4058260F7CF8F3DB9F78091D3
:1049D000B4058460F1CF4091B6058D3C59F48091C7
:1049E000B70587FF0DC01092B70541110BC010929B
:1049F000B30508C08E3C81F48091B70518169CF36E
:104A0000442381F08091B8059091B905892B09F074
:104A10005AC01092B20508958F3C49F447FFF0CF79
:104A20001092B6058091B7058111ECCFE0CF803DA3
:104A300019F41416ACF3E4CF9091B805893D29F42C
:104A40001916F4F61092B805DBCF8A3D19F497FFDA
:104A5000D7CFF8CF9091B9058B3D29F497FFD0CFF0
:104A60001092B905CDCF8C3D19F41916CCF3C8CFEF
:104A70009FE2980F983090F4815D990B21E030E02F
:104A8000B90102C0660F771F8A95E2F7CB018095C6
:104A90009091B50589238093B505B2CF8D3D31F452
:104AA0008091B4058E7F8093B405AACF8E3D21F40A
:104AB0008091B4058D7FF7CF8F3D09F0A1CF809114
:104AC000B4058B7FF0CF08956BD49C019091B6050F
:104AD0008091B705982B21F03093B1052093B00554
:104AE0009091B8058091B905982B21F03093AF05CE
:104AF0002093AE0585EB95E0E4C185E0E5EBF5E0BC
:104B0000DF011D928A95E9F71092B3051092B20564
:104B10001092B4050895FC01818181110EC082813B
:104B200081110BC08381811108C091E084818111C2
:104B300001C090E0892F8170089581E0FCCFA5E04D
:104B4000B0E0E5EAF5E20C942A3285E0E5EBF5E029
:104B5000DE01119601900D928A95E1F71092B6054B
:104B60001092B7051092B8051092B9058A819B8101
:104B7000892B81F08091B0059091B10592D3AC0161
:104B80009091B3059923A9F1809104028417150629
:104B900008F43CC08C819D81892B89F08091AE0501
:104BA0009091AF057ED3AC019091B205992309F4A1
:104BB00063C0809100028417150608F46BC0BE0123
:104BC0006F5F7F4F85EB95E0CAD2811104C085EB02
:104BD00095E0A1DF811178DF85E0FE013196A5EB3C
:104BE000B5E001900D928A95E1F72596E3E00C94EB
:104BF00046322091AD058AE0289F900111242417A8
:104C0000350740F69F5F9093B30502C09F3FD1F7F1
:104C10001A81112351F016DE9FEF11160CF491E06A
:104C2000899F802D11248093B6051B81112351F09B
:104C300009DE9FEF11160CF491E0899F802D11245D
:104C40008093B7058091B605882309F4A3CF10910E
:104C5000B705112309F49ECFE7DD882349F080933F
:104C6000B605812FE1DD882329F08093B70592CF27
:104C700081E0F5CF81E0F9CF209101028AE0289F01
:104C8000900111242417350708F099CF9F5F909366
:104C9000B20502C09F3FD1F71C81112351F010DEF5
:104CA0009FEF11160CF491E0899F802D11248093C1
:104CB000B8051D81112351F003DE9FEF11160CF48E
:104CC00091E0899F802D11248093B9058091B805CA
:104CD000882309F474CF1091B905112309F46FCF1B
:104CE000A3DD882349F08093B805812F9DDD8823BB
:104CF00029F08093B90563CF81E0F5CF81E0F9CF4A
:104D00000F931F93CF93DF93C42FD22FFC01858184
:104D10008823C1F04093BC0543D39093BB05809397
:104D2000BA0580E28C0F883040F4C77081E001C082
:104D3000880FCA95EAF70E94D908DF91CF911F9199
:104D40000F9108951091BC05141331C08091BA05DC
:104D50009091BB05A6D2883C910548F5C0E2CD0FE5
:104D60001D17B9F080E2810F883040F4177081E0A0
:104D700001C0880F1A95EAF70E94DE08C83048F48F
:104D800081E09D2F977001C0880F9A95EAF70E94E5
:104D9000D908802F0E94D208C83078F6D77081E0F9
:104DA00001C0880FDA95EAF70E94DE08C6CF80E2DC
:104DB0008C0F883010F6C77081E001C0880FCA954B
:104DC000EAF7F2CF0F93DB0188519C4787309105BA
:104DD00098F5FC01E75BFB4C0C94153206E221EEE2
:104DE00041EE6AE17CE7CD018BDF80E00F91089511
:104DF00007E225EE45EE6BE17CE7F5CF06E221EE1A
:104E000040EE68E17CE7EFCF07E225EE44EE69E192
:104E10007CE7E9CF06E221EE42EE6CE17CE7E3CFEE
:104E200007E225EE46EE6DE17CE7DDCF08E221E00A
:104E300045EE6EE17CE7D7CF15968C91882319F06B
:104E40001092BC05D3CF81E0D1CF9093C20580935F
:104E5000C1050895EDD191E0813009F090E0892FEE
:104E60000895E091C105F091C205309739F00190A5
:104E7000F081E02D309711F00995089580E00895B4
:104E8000F0CF0895E091C105F091C205309731F05F
:104E90000280F381E02D309709F009950895E091A3
:104EA000C105F091C205309759F024813581232B3B
:104EB00039F026E0DC012C930480F581E02D099582
:104EC0000895E091C105F091C205309731F0068058
:104ED000F781E02D309709F009950895A3E0B0E03F
:104EE000E4E7F7E20C942B322091BF053091C00526
:104EF00028173907B1F09093C0058093BF05E09162
:104F0000C105F091C205309761F00084F185E02D74
:104F1000309739F023E029839B838A83CE01019661
:104F200009952396E2E00C944732A3E0B0E0EBE968
:104F3000F7E20C942B322091BD053091BE05281765
:104F40003907B1F09093BE058093BD05E091C1058E
:104F5000F091C205309761F00084F185E02D309723
:104F600039F024E029839B838A83CE010196099539
:104F70002396E2E00C944732CF93DF93C091EE0189
:104F8000D091EF01229666DF882381F08091D005D1
:104F900087FF0CC0C091EC01D091ED0122969EE1FB
:104FA00080E0915028F4DF91CF91089596E0F8CFFA
:104FB00029912223B1F38F5FF4CFCF93C82F8111B2
:104FC00002C080E023C046DF882311F18091D00524
:104FD00087FF1EC0EC2FE695E695E695EE3188F743
:104FE0008091EC019091ED01E80FF92FF11D2281E4
:104FF00030E0C77081E090E002C0880F991FCA9529
:10500000E2F72823392381E0232BD9F2CF910895A9
:105010008091EE019091EF01FC013296089621916A
:105020002C1721F0E817F907D1F7CBCF81E0EECFAD
:105030009C01FC0132969FEF80E04191461751F0B0
:105040009F3F19F4411101C0982F8F5F8630A9F757
:105050009F3F09F40895290F311D97FD3A95F901F5
:1050600062830895FC01329608962191261303C0AD
:10507000DF0111971C92E817F907B9F70895E62F99
:10508000E695E695E695EE3168F4E80FF92FF11D07
:10509000677021E030E001C0220F6A95EAF7828153
:1050A000822B82830895E62FE695E695E695EE310C
:1050B00070F4E80FF92FF11D677021E030E001C0B6
:1050C000220F6A95EAF7209582812823228308958A
:1050D000CF93C82FBFDE6C2F882359F08091D00565
:1050E00087FF07C08091EC019091ED01C8DFCF915F
:1050F00008958091EE019091EF019ADFF8CFCF9360
:10510000C82FA8DE6C2F882359F08091D00587FF27
:1051100007C08091EC019091ED01C5DFCF9108951A
:105120008091EE019091EF019DDFF8CF93DE88230F
:1051300079F08091D00587FF0BC0E091EC01F091F0
:10514000ED0132968EE1DF011D928A95E9F708950F
:10515000E091EE01F091EF01329686E0F4CFDC01B0
:10516000FB019C918081981322C011968C9111971C
:10517000882319F0918189131AC012968C91129785
:10518000882319F09281891312C014968C91149778
:10519000882319F0948189130AC013969C9199234E
:1051A00021F081E02381291303C080E001C081E068
:1051B000817008950895FECF089581110CC081E09B
:1051C00080930802609105027091060280910702A7
:1051D00090910802F0CF82E0F3CF83E08093080241
:1051E0006091050270910602809107029091080279
:1051F000E2CFE3CF089581E0809308026091050239
:10520000709106028091070290910802D4CFF3CFEB
:10521000089591E0811101C090E0909307026091A0
:105220000502709106028091070290910802C3CF97
:1052300080910702089580930602609105027091A3
:1052400006028091070290910802B5CF8091060274
:105250000895809305026091050270910602809185
:10526000070290910802A7CF809105020895089542
:105270000895FECF08950895FACF0895CF930E9420
:105280005F050E941414F7DFC0E08C2F0E94FD130D
:10529000811105C0CF5FCE30C1F7CF91089581E075
:1052A000FCCFCF93DF93EC017BD08C1B9D0BDF9168
:1052B000CF910895CF92DF92EF92FF926B017C0124
:1052C0007BD06C197D098E099F09FF90EF90DF90CC
:1052D000CF90089585B7806885BF85B7806885BF02
:1052E00008951F921FB61F9211248F939F93AF931F
:1052F000BF938091C305811113C08091FA059091ED
:10530000FB05A091FC05B091FD054196A11DB11DC5
:105310008093FA059093FB05A093FC05B093FD05DF
:10532000BF91AF919F918F911F901FBE1F901895B5
:1053300080910206843031F10E9466071092C30505
:1053400088E190E020E40FB6F894A895809360007F
:105350000FBE2093600083B7817F846083BF83B7D3
:10536000816083BF7894889583B78E7F83BF0FB6A3
:10537000F894A895809160008861809360001092F5
:1053800060000FBE08950E94EB0A0C946F0782E044
:1053900084BD93E095BD9AEF97BD80936E0008950C
:1053A0002FB7F8948091FA059091FB05A091FC0528
:1053B000B091FD052FBF08952FB7F8946091FA05BD
:1053C0007091FB058091FC059091FD052FBF08951C
:1053D00078941F921FB61F9211248F939F93AF93BF
:1053E000BF938091FA059091FB05A091FC05B091C7
:1053F000FD050196A11DB11D8093FA059093FB0553
:10540000A093FC05B093FD05BF91AF919F918F9143
:105410001F901FBE1F901895F89481E08093E000C4
:1054200080E28093D800E9ECF0E010828FE19EE406
:105430000197F1F700C000001DBA109268001CBC73
:1054400010BE1FBA10927A0010926E0010926F0078
:1054500010927100109272001082ECEBF0E010825A
:1054600014B817B81AB81DB810BA108215B818B801
:105470001BB81EB811BA0C94003F089588E19AE059
:105480000FB6F894A895809360000FBE90936000CB
:10549000FFCFEF92FF920F931F93CF93DF93182FBD
:1054A000EB011092BC0084EA8093BC0079DF7C01A0
:1054B0008091BC0087FF26C08091B900887F88302A
:1054C00029F08091B900887F803169F51093BB0085
:1054D00084E88093BC0064DF8C018091BC0087FF6E
:1054E0001CC02091B900287F90E080E0283189F02D
:1054F00081E090E0203411F490E080E09195819576
:10550000910907C0C701CDDEC817D90788F68EEF0D
:105510009FEFCDB7DEB7E6E0B6C7C801C2DEC81759
:10552000D907D8F6F4CF8FEF9FEFF3CF1092B900E1
:105530008CE08093B80008950F931F93CF93DF936F
:10554000EB018093BB0084E88093BC0029DF8C01D1
:105550008091BC0087FF11C02091B900287F81E0B5
:1055600090E0283211F490E080E0919581959109C6
:10557000DF91CF911F910F910895CF3FDC0741F349
:10558000C8018FDEC817D90718F78EEF9FEFF0CF4D
:105590000F931F93CF93DF93EC0184EC8093BC00B7
:1055A000FFDE8C018091BC0087FF08C08091BB00AA
:1055B00090E0DF91CF911F910F910895CF3FDC07CD
:1055C00089F3C8016EDEC817D90760F78EEF9FEF29
:1055D000F0CF0F931F93CF93DF93EC0184E8809378
:1055E000BC00DEDE8C018091BC0087FF08C080918A
:1055F000BB0090E0DF91CF911F910F910895CF3FB5
:10560000DC0789F3C8014DDEC817D90760F78EEFB4
:105610009FEFF0CFB0E0A0E0EFE0FBE211C77B012D
:105620004A018901782E689470F8BADE5C01CC24B6
:10563000C394D12C0431110558F085E0C82ED12C2B
:105640000F3F100729F0C80164E170E0C7D66B0175
:10565000B601872D1EDFEC0197FF08C00F3F100732
:10566000B9F3C5011EDE0817190790F7D12CC12C1C
:10567000F1E08F1A9108C814D904E0F4D7FF0DC0E7
:1056800084E98093BC00CE011C161D0614F490E042
:1056900080E0CDB7DEB7EDE0EFC6C80179DFEC0101
:1056A00097FD04C0F701EC0DFD1D8083EFEFCE1ACE
:1056B000DE0AE1CFD7FDE4CFC8018BDFEC0197FD17
:1056C000DFCFE80CF91CF7018083DACFB0E0A0E06F
:1056D000EBE6FBE2B4C6682E762E5A01690160DE65
:1056E0004C01C1E0D0E00431110550F0C5E0D0E03C
:1056F0000F3F100729F0C80164E170E06FD6EB019D
:10570000BE01862DC6DE7C0197FF1AC00F3F100731
:10571000B9F3C401C6DD0817190790F784E980932F
:10572000BC00C701CDB7DEB7EEE0A5C6B8018991D0
:1057300003DF7C01CC16DD0689F3F7FEF7CFEECF51
:10574000B801872DF9DE7C01E501CA0CDB1CF2CF24
:105750009B01BA01909102069430E1F48F7080931E
:10576000E9009FEF8091E800915085FD06C085ED2E
:105770008A95F1F700009111F5CF8091E80085FF3F
:1057800009C050E040E0C901BFD18091E8008E77A8
:105790008093E800089543E050E0BC0183E0D8CF57
:1057A00045E050E0BC0182E0D3CF40E250E0BC01D4
:1057B00083E0CECFCF93DF93EC013ADD48E050E0B9
:1057C000BE0181E0C5DF88E0FE01A4ECB5E00190F8
:1057D0000D928A95E1F7DF91CF91089580910106AE
:1057E000811107C01FD376D38091E200846080933B
:1057F000E2000895109201060895FDDC81E009CDD4
:105800006091FE0581E0611101C080E0E6CC9091DD
:10581000020681E0943009F080E06091FE05E9CC59
:1058200042E061EC81E07AD242E161EC82E076D242
:1058300042E261EC83E072D29091020681E0943002
:1058400009F080E06091FE05B8CC809104068330B9
:1058500009F460C030F48130D1F1823009F496C08F
:1058600008958A3009F485C08B3009F46DC0893001
:1058700009F04FC080910306813209F04AC080913F
:10588000070690910806009719F0029709F041C0A9
:105890008091E800877F8093E8008091E80082FF94
:1058A00034C09091F3008091F200029731F480911E
:1058B000F100813011F0863019F48091F100BBDCE9
:1058C0008091E8008B778093E8005CD222C08091C1
:1058D0000306813AF1F48091E800877F8093E80025
:1058E0008091070690910806892B59F468E084ECB2
:1058F00095E070E056D18091E8008B778093E800C6
:10590000089560E090E080E0F4CF8091020681117C
:10591000C4CF089580910306813AD9F78091070694
:1059200090910806892BA9F78091E800877F8093E2
:10593000E8008091E80080FFFCCF7ADC8093F100E2
:105940008091E8008E77BFCF80910306813209F7FE
:105950008091070690910806892BD9F68091E8007E
:10596000877F8093E8000ED28091050652DC0C946C
:10597000EB0A80910306813261F68091E800877F0F
:105980008093E800FFD18091060663CC80910306E6
:10599000813A09F0BECF8091E800877F8093E800CC
:1059A0008091E80080FFFCCF5FDCC8CF84B7877FA1
:1059B00084BF0FB6F894A8958091600088618093A9
:1059C0006000109260000FBE80E890E00FB6F8947F
:1059D00080936100909361000FBE19CC23D27AD2DC
:1059E000E2EEF0E08081846080837894DDC489E019
:1059F00092E02BCA80910206853029F4809102063C
:105A0000853011F0C0CC089593DC38DC8823B1F3E5
:105A100080910006882391F361D00E94EB0AEECFBB
:105A200008959A014091090650910A0600C0492F35
:105A300055274330510521F168F44130510509F4EF
:105A400043C04230510509F444C090E080E050E08A
:105A500040E026C04132510551F142325105A9F7CB
:105A60006330710590F7FB01EE0FFF1FE356FD4F0A
:105A70004081518166567D4FFB01808190E010C0CE
:105A800099278130910581F0009729F00297E9F676
:105A9000E4E0F7E002C0E0E5F7E0849190E0AF01D8
:105AA000F901518340830895E6E2F7E0F6CF6330D1
:105AB000710558F6660F771FFB01ED55FD4F4081CC
:105AC000518189E090E0ECCF82E190E048EA57E034
:105AD000E7CF84E590E044E557E0E2CF80E189BD7F
